{
  "contractName": "Denominations",
  "abi": [
    {
      "inputs": [],
      "name": "ARS",
      "outputs": [
        {
          "internalType": "address",
          "name": "",
          "type": "address"
        }
      ],
      "stateMutability": "view",
      "type": "function"
    },
    {
      "inputs": [],
      "name": "AUD",
      "outputs": [
        {
          "internalType": "address",
          "name": "",
          "type": "address"
        }
      ],
      "stateMutability": "view",
      "type": "function"
    },
    {
      "inputs": [],
      "name": "BRL",
      "outputs": [
        {
          "internalType": "address",
          "name": "",
          "type": "address"
        }
      ],
      "stateMutability": "view",
      "type": "function"
    },
    {
      "inputs": [],
      "name": "BTC",
      "outputs": [
        {
          "internalType": "address",
          "name": "",
          "type": "address"
        }
      ],
      "stateMutability": "view",
      "type": "function"
    },
    {
      "inputs": [],
      "name": "CAD",
      "outputs": [
        {
          "internalType": "address",
          "name": "",
          "type": "address"
        }
      ],
      "stateMutability": "view",
      "type": "function"
    },
    {
      "inputs": [],
      "name": "CHF",
      "outputs": [
        {
          "internalType": "address",
          "name": "",
          "type": "address"
        }
      ],
      "stateMutability": "view",
      "type": "function"
    },
    {
      "inputs": [],
      "name": "CKB",
      "outputs": [
        {
          "internalType": "address",
          "name": "",
          "type": "address"
        }
      ],
      "stateMutability": "view",
      "type": "function"
    },
    {
      "inputs": [],
      "name": "CNY",
      "outputs": [
        {
          "internalType": "address",
          "name": "",
          "type": "address"
        }
      ],
      "stateMutability": "view",
      "type": "function"
    },
    {
      "inputs": [],
      "name": "ETH",
      "outputs": [
        {
          "internalType": "address",
          "name": "",
          "type": "address"
        }
      ],
      "stateMutability": "view",
      "type": "function"
    },
    {
      "inputs": [],
      "name": "EUR",
      "outputs": [
        {
          "internalType": "address",
          "name": "",
          "type": "address"
        }
      ],
      "stateMutability": "view",
      "type": "function"
    },
    {
      "inputs": [],
      "name": "GBP",
      "outputs": [
        {
          "internalType": "address",
          "name": "",
          "type": "address"
        }
      ],
      "stateMutability": "view",
      "type": "function"
    },
    {
      "inputs": [],
      "name": "INR",
      "outputs": [
        {
          "internalType": "address",
          "name": "",
          "type": "address"
        }
      ],
      "stateMutability": "view",
      "type": "function"
    },
    {
      "inputs": [],
      "name": "JPY",
      "outputs": [
        {
          "internalType": "address",
          "name": "",
          "type": "address"
        }
      ],
      "stateMutability": "view",
      "type": "function"
    },
    {
      "inputs": [],
      "name": "KRW",
      "outputs": [
        {
          "internalType": "address",
          "name": "",
          "type": "address"
        }
      ],
      "stateMutability": "view",
      "type": "function"
    },
    {
      "inputs": [],
      "name": "NGN",
      "outputs": [
        {
          "internalType": "address",
          "name": "",
          "type": "address"
        }
      ],
      "stateMutability": "view",
      "type": "function"
    },
    {
      "inputs": [],
      "name": "NZD",
      "outputs": [
        {
          "internalType": "address",
          "name": "",
          "type": "address"
        }
      ],
      "stateMutability": "view",
      "type": "function"
    },
    {
      "inputs": [],
      "name": "PHP",
      "outputs": [
        {
          "internalType": "address",
          "name": "",
          "type": "address"
        }
      ],
      "stateMutability": "view",
      "type": "function"
    },
    {
      "inputs": [],
      "name": "RUB",
      "outputs": [
        {
          "internalType": "address",
          "name": "",
          "type": "address"
        }
      ],
      "stateMutability": "view",
      "type": "function"
    },
    {
      "inputs": [],
      "name": "SGD",
      "outputs": [
        {
          "internalType": "address",
          "name": "",
          "type": "address"
        }
      ],
      "stateMutability": "view",
      "type": "function"
    },
    {
      "inputs": [],
      "name": "USD",
      "outputs": [
        {
          "internalType": "address",
          "name": "",
          "type": "address"
        }
      ],
      "stateMutability": "view",
      "type": "function"
    },
    {
      "inputs": [],
      "name": "ZAR",
      "outputs": [
        {
          "internalType": "address",
          "name": "",
          "type": "address"
        }
      ],
      "stateMutability": "view",
      "type": "function"
    }
  ],
  "bytecode": "0x6104eb610053600b82828239805160001a607314610046577f4e487b7100000000000000000000000000000000000000000000000000000000600052600060045260246000fd5b30600052607381538281f3fe73000000000000000000000000000000000000000030146080604052600436106101415760003560e01c806356ef4514116100c25780639db2a472116100865780639db2a47214610308578063a4a2359514610326578063ca9d1a7214610344578063e774928e14610362578063f37fcc4214610380578063fd760c491461039e57610141565b806356ef4514146102725780636b09583c146102905780638322fff2146102ae5780638de18a2a146102cc578063976d5e77146102ea57610141565b80632792949d116101095780632792949d146101dc578063294a2bf2146101fa5780632e79477f14610218578063465bd0a31461023657806353f7c3671461025457610141565b806301b8b3391461014657806303d698f2146101645780630c0128341461018257806319342a64146101a05780631bf6c21b146101be575b600080fd5b61014e6103bc565b60405161015b9190610468565b60405180910390f35b61016c6103c2565b6040516101799190610468565b60405180910390f35b61018a6103c8565b6040516101979190610468565b60405180910390f35b6101a86103cd565b6040516101b59190610468565b60405180910390f35b6101c66103d2565b6040516101d39190610468565b60405180910390f35b6101e46103d8565b6040516101f19190610468565b60405180910390f35b6102026103f0565b60405161020f9190610468565b60405180910390f35b6102206103f6565b60405161022d9190610468565b60405180910390f35b61023e6103fc565b60405161024b9190610468565b60405180910390f35b61025c610402565b6040516102699190610468565b60405180910390f35b61027a610408565b6040516102879190610468565b60405180910390f35b61029861040e565b6040516102a59190610468565b60405180910390f35b6102b6610414565b6040516102c39190610468565b60405180910390f35b6102d461042c565b6040516102e19190610468565b60405180910390f35b6102f2610431565b6040516102ff9190610468565b60405180910390f35b610310610437565b60405161031d9190610468565b60405180910390f35b61032e61043d565b60405161033b9190610468565b60405180910390f35b61034c610442565b6040516103599190610468565b60405180910390f35b61036a610448565b6040516103779190610468565b60405180910390f35b61038861044e565b6040516103959190610468565b60405180910390f35b6103a6610454565b6040516103b39190610468565b60405180910390f35b61033a81565b61023681565b602081565b607c81565b61034881565b73bbbbbbbbbbbbbbbbbbbbbbbbbbbbbbbbbbbbbbbb81565b6103d281565b6102be81565b61018881565b61026081565b61019a81565b6103da81565b73eeeeeeeeeeeeeeeeeeeeeeeeeeeeeeeeeeeeeeee81565b600181565b61028381565b6102c681565b609c81565b61022a81565b61016481565b6102f481565b602481565b61046281610483565b82525050565b600060208201905061047d6000830184610459565b92915050565b600061048e82610495565b9050919050565b600073ffffffffffffffffffffffffffffffffffffffff8216905091905056fea2646970667358221220ef1945242f1c84c9597dd456ec727dd8f3909121ac6c5d715a26aed5f83178e564736f6c63430008070033",
  "immutableReferences": {},
  "source": "// SPDX-License-Identifier: MIT\npragma solidity >=0.4.22 <0.9.0;\n\nlibrary Denominations {\n  address public constant CKB = address(1);\n  address public constant ETH = 0xEeeeeEeeeEeEeeEeEeEeeEEEeeeeEeeeeeeeEEeE;\n  address public constant BTC = 0xbBbBBBBbbBBBbbbBbbBbbbbBBbBbbbbBbBbbBBbB;\n\n  // Fiat currencies follow https://en.wikipedia.org/wiki/ISO_4217\n  address public constant USD = address(840);\n  address public constant GBP = address(826);\n  address public constant EUR = address(978);\n  address public constant JPY = address(392);\n  address public constant KRW = address(410);\n  address public constant CNY = address(156);\n  address public constant AUD = address(36);\n  address public constant CAD = address(124);\n  address public constant CHF = address(756);\n  address public constant ARS = address(32);\n  address public constant PHP = address(608);\n  address public constant NZD = address(554);\n  address public constant SGD = address(702);\n  address public constant NGN = address(566);\n  address public constant ZAR = address(710);\n  address public constant RUB = address(643);\n  address public constant INR = address(356);\n  address public constant BRL = address(986);\n}",
  "sourcePath": "C:\\Users\\Chaitanya\\Documents\\Projects\\nervos-insure\\contracts\\Denominations.sol",
  "compiler": {
    "name": "solc",
    "version": "0.8.7+commit.e28d00a7.Emscripten.clang"
  },
  "schemaVersion": "3.4.3",
  "updatedAt": "2021-10-06T09:24:15.062Z",
  "devdoc": {
    "kind": "dev",
    "methods": {},
    "version": 1
  },
  "userdoc": {
    "kind": "user",
    "methods": {},
    "version": 1
  }
}