{
  "contractName": "InsuranceContract",
  "abi": [
    {
      "inputs": [
        {
          "internalType": "address",
          "name": "_client",
          "type": "address"
        },
        {
          "internalType": "uint256",
          "name": "_duration",
          "type": "uint256"
        },
        {
          "internalType": "uint256",
          "name": "_premium",
          "type": "uint256"
        },
        {
          "internalType": "uint256",
          "name": "_payoutValue",
          "type": "uint256"
        },
        {
          "internalType": "uint256",
          "name": "_collateralValue",
          "type": "uint256"
        }
      ],
      "stateMutability": "payable",
      "type": "constructor"
    },
    {
      "anonymous": false,
      "inputs": [
        {
          "indexed": true,
          "internalType": "address",
          "name": "previousOwner",
          "type": "address"
        },
        {
          "indexed": true,
          "internalType": "address",
          "name": "newOwner",
          "type": "address"
        }
      ],
      "name": "OwnershipTransferred",
      "type": "event"
    },
    {
      "anonymous": false,
      "inputs": [
        {
          "indexed": false,
          "internalType": "address",
          "name": "_insurer",
          "type": "address"
        },
        {
          "indexed": false,
          "internalType": "address",
          "name": "_client",
          "type": "address"
        },
        {
          "indexed": false,
          "internalType": "uint256",
          "name": "_duration",
          "type": "uint256"
        },
        {
          "indexed": false,
          "internalType": "uint256",
          "name": "_premium",
          "type": "uint256"
        },
        {
          "indexed": false,
          "internalType": "uint256",
          "name": "_totalCover",
          "type": "uint256"
        }
      ],
      "name": "contractCreated",
      "type": "event"
    },
    {
      "anonymous": false,
      "inputs": [
        {
          "indexed": false,
          "internalType": "uint256",
          "name": "_endTime",
          "type": "uint256"
        },
        {
          "indexed": false,
          "internalType": "uint256",
          "name": "_totalReturned",
          "type": "uint256"
        }
      ],
      "name": "contractEnded",
      "type": "event"
    },
    {
      "anonymous": false,
      "inputs": [
        {
          "indexed": false,
          "internalType": "uint256",
          "name": "_paidTime",
          "type": "uint256"
        },
        {
          "indexed": false,
          "internalType": "uint256",
          "name": "_totalPaid",
          "type": "uint256"
        },
        {
          "indexed": false,
          "internalType": "uint256",
          "name": "_finalCollateralValue",
          "type": "uint256"
        }
      ],
      "name": "contractPaidOut",
      "type": "event"
    },
    {
      "inputs": [],
      "name": "DAY_IN_SECONDS",
      "outputs": [
        {
          "internalType": "uint256",
          "name": "",
          "type": "uint256"
        }
      ],
      "stateMutability": "view",
      "type": "function"
    },
    {
      "inputs": [],
      "name": "insurer",
      "outputs": [
        {
          "internalType": "address",
          "name": "",
          "type": "address"
        }
      ],
      "stateMutability": "view",
      "type": "function"
    },
    {
      "inputs": [],
      "name": "owner",
      "outputs": [
        {
          "internalType": "address",
          "name": "",
          "type": "address"
        }
      ],
      "stateMutability": "view",
      "type": "function"
    },
    {
      "inputs": [],
      "name": "renounceOwnership",
      "outputs": [],
      "stateMutability": "nonpayable",
      "type": "function"
    },
    {
      "inputs": [
        {
          "internalType": "address",
          "name": "newOwner",
          "type": "address"
        }
      ],
      "name": "transferOwnership",
      "outputs": [],
      "stateMutability": "nonpayable",
      "type": "function"
    },
    {
      "inputs": [],
      "name": "updateContract",
      "outputs": [],
      "stateMutability": "nonpayable",
      "type": "function"
    },
    {
      "inputs": [],
      "name": "getLatestPrice",
      "outputs": [
        {
          "internalType": "int256",
          "name": "",
          "type": "int256"
        }
      ],
      "stateMutability": "view",
      "type": "function"
    },
    {
      "inputs": [],
      "name": "getContractBalance",
      "outputs": [
        {
          "internalType": "uint256",
          "name": "",
          "type": "uint256"
        }
      ],
      "stateMutability": "view",
      "type": "function"
    },
    {
      "inputs": [],
      "name": "getPayoutValue",
      "outputs": [
        {
          "internalType": "uint256",
          "name": "",
          "type": "uint256"
        }
      ],
      "stateMutability": "view",
      "type": "function"
    },
    {
      "inputs": [],
      "name": "getPremium",
      "outputs": [
        {
          "internalType": "uint256",
          "name": "",
          "type": "uint256"
        }
      ],
      "stateMutability": "view",
      "type": "function"
    },
    {
      "inputs": [],
      "name": "getContractStatus",
      "outputs": [
        {
          "internalType": "bool",
          "name": "",
          "type": "bool"
        }
      ],
      "stateMutability": "view",
      "type": "function"
    },
    {
      "inputs": [],
      "name": "getContractPaid",
      "outputs": [
        {
          "internalType": "bool",
          "name": "",
          "type": "bool"
        }
      ],
      "stateMutability": "view",
      "type": "function"
    },
    {
      "inputs": [],
      "name": "getCurrentValue",
      "outputs": [
        {
          "internalType": "uint256",
          "name": "",
          "type": "uint256"
        }
      ],
      "stateMutability": "view",
      "type": "function"
    },
    {
      "inputs": [],
      "name": "getRequestCount",
      "outputs": [
        {
          "internalType": "uint256",
          "name": "",
          "type": "uint256"
        }
      ],
      "stateMutability": "view",
      "type": "function"
    },
    {
      "inputs": [],
      "name": "getCurrentValueDateChecked",
      "outputs": [
        {
          "internalType": "uint256",
          "name": "",
          "type": "uint256"
        }
      ],
      "stateMutability": "view",
      "type": "function"
    },
    {
      "inputs": [],
      "name": "getDuration",
      "outputs": [
        {
          "internalType": "uint256",
          "name": "",
          "type": "uint256"
        }
      ],
      "stateMutability": "view",
      "type": "function"
    },
    {
      "inputs": [],
      "name": "getContractStartDate",
      "outputs": [
        {
          "internalType": "uint256",
          "name": "",
          "type": "uint256"
        }
      ],
      "stateMutability": "view",
      "type": "function"
    },
    {
      "inputs": [],
      "name": "getNow",
      "outputs": [
        {
          "internalType": "uint256",
          "name": "",
          "type": "uint256"
        }
      ],
      "stateMutability": "view",
      "type": "function"
    }
  ],
  "bytecode": "0x60806040526000600960016101000a81548160ff0219169083151502179055506000600a5542600b556000600c55604051620017653803806200176583398181016040528101906200005291906200035d565b62000072620000666200026360201b60201c565b6200026b60201b60201c565b730fcbaeba1bd0ebf3cfed672c3e98b4aa76da9546600160006101000a81548173ffffffffffffffffffffffffffffffffffffffff021916908373ffffffffffffffffffffffffffffffffffffffff160217905550813410156200010d576040517f08c379a000000000000000000000000000000000000000000000000000000000815260040162000104906200048b565b60405180910390fd5b33600260006101000a81548173ffffffffffffffffffffffffffffffffffffffff021916908373ffffffffffffffffffffffffffffffffffffffff16021790555084600360006101000a81548173ffffffffffffffffffffffffffffffffffffffff021916908373ffffffffffffffffffffffffffffffffffffffff160217905550426004819055508360058190555082600681905550816007819055506001600960006101000a81548160ff021916908315150217905550806008819055507f0203790cae2ea31823a6382172bd46011fcfbab29b22bb78b4b2f266febf6072600260009054906101000a900473ffffffffffffffffffffffffffffffffffffffff16600360009054906101000a900473ffffffffffffffffffffffffffffffffffffffff16600554600654600754604051620002509594939291906200042e565b60405180910390a1505050505062000584565b600033905090565b60008060009054906101000a900473ffffffffffffffffffffffffffffffffffffffff169050816000806101000a81548173ffffffffffffffffffffffffffffffffffffffff021916908373ffffffffffffffffffffffffffffffffffffffff1602179055508173ffffffffffffffffffffffffffffffffffffffff168173ffffffffffffffffffffffffffffffffffffffff167f8be0079c531659141344cd1fd0a4f28419497f9722a3daafe3b4186f6b6457e060405160405180910390a35050565b600081519050620003408162000550565b92915050565b60008151905062000357816200056a565b92915050565b600080600080600060a086880312156200037c576200037b620004fc565b5b60006200038c888289016200032f565b95505060206200039f8882890162000346565b9450506040620003b28882890162000346565b9350506060620003c58882890162000346565b9250506080620003d88882890162000346565b9150509295509295909350565b620003f081620004be565b82525050565b600062000405602183620004ad565b9150620004128262000501565b604082019050919050565b6200042881620004f2565b82525050565b600060a082019050620004456000830188620003e5565b620004546020830187620003e5565b6200046360408301866200041d565b6200047260608301856200041d565b6200048160808301846200041d565b9695505050505050565b60006020820190508181036000830152620004a681620003f6565b9050919050565b600082825260208201905092915050565b6000620004cb82620004d2565b9050919050565b600073ffffffffffffffffffffffffffffffffffffffff82169050919050565b6000819050919050565b600080fd5b7f4e6f7420656e6f7567682066756e64732073656e7420746f20636f6e7472616360008201527f7400000000000000000000000000000000000000000000000000000000000000602082015250565b6200055b81620004be565b81146200056757600080fd5b50565b6200057581620004f2565b81146200058157600080fd5b50565b6111d180620005946000396000f3fe608060405234801561001057600080fd5b50600436106101165760003560e01c8063ad2e8c9b116100a2578063c974402911610071578063c974402914610279578063dbc837c514610297578063dcbacd11146102b5578063e3ea4ef2146102d3578063f2fde38b146102f157610116565b8063ad2e8c9b14610201578063b0b30fee1461021f578063bbe4fd501461023d578063c032846b1461025b57610116565b80636f9fb98a116100e95780636f9fb98a14610193578063715018a6146101b15780638da5cb5b146101bb5780638e15f473146101d9578063a241c089146101f757610116565b80630f76c1141461011b578063243d9a5d146101395780633fad1834146101575780635fdc628114610175575b600080fd5b61012361030d565b6040516101309190610de3565b60405180910390f35b610141610317565b60405161014e9190610de3565b60405180910390f35b61015f610321565b60405161016c9190610de3565b60405180910390f35b61017d61032b565b60405161018a9190610de3565b60405180910390f35b61019b610330565b6040516101a89190610de3565b60405180910390f35b6101b9610338565b005b6101c36103c0565b6040516101d09190610d12565b60405180910390f35b6101e16103e9565b6040516101ee9190610d48565b60405180910390f35b6101ff6104ea565b005b6102096105c9565b6040516102169190610de3565b60405180910390f35b6102276105d3565b6040516102349190610d2d565b60405180910390f35b6102456105ea565b6040516102529190610de3565b60405180910390f35b6102636105f2565b6040516102709190610d2d565b60405180910390f35b610281610609565b60405161028e9190610de3565b60405180910390f35b61029f610613565b6040516102ac9190610d12565b60405180910390f35b6102bd610639565b6040516102ca9190610de3565b60405180910390f35b6102db610643565b6040516102e89190610de3565b60405180910390f35b61030b60048036038101906103069190610ba2565b61064d565b005b6000600a54905090565b6000600754905090565b6000600c54905090565b603c81565b600047905090565b610340610745565b73ffffffffffffffffffffffffffffffffffffffff1661035e6103c0565b73ffffffffffffffffffffffffffffffffffffffff16146103b4576040517f08c379a00000000000000000000000000000000000000000000000000000000081526004016103ab90610da3565b60405180910390fd5b6103be600061074d565b565b60008060009054906101000a900473ffffffffffffffffffffffffffffffffffffffff16905090565b600080600080600080600160009054906101000a900473ffffffffffffffffffffffffffffffffffffffff1673ffffffffffffffffffffffffffffffffffffffff1663feaf968c6040518163ffffffff1660e01b815260040160a06040518083038186803b15801561045a57600080fd5b505afa15801561046e573d6000803e3d6000fd5b505050506040513d601f19601f820116820180604052508101906104929190610bcf565b94509450945094509450600082116104df576040517f08c379a00000000000000000000000000000000000000000000000000000000081526004016104d690610dc3565b60405180910390fd5b839550505050505090565b60011515600960009054906101000a900460ff16151514610540576040517f08c379a000000000000000000000000000000000000000000000000000000000815260040161053790610d83565b60405180910390fd5b610548610811565b600960009054906101000a900460ff16156105c7576105656103e9565b600a8190555042600b819055506001600c60008282546105859190610e6f565b925050819055506105b560646105a7600a6008546109ec90919063ffffffff16565b610a0290919063ffffffff16565b600a54116105c6576105c5610a18565b5b5b565b6000600554905090565b6000600960019054906101000a900460ff16905090565b600042905090565b6000600960009054906101000a900460ff16905090565b6000600654905090565b600260009054906101000a900473ffffffffffffffffffffffffffffffffffffffff1681565b6000600454905090565b6000600b54905090565b610655610745565b73ffffffffffffffffffffffffffffffffffffffff166106736103c0565b73ffffffffffffffffffffffffffffffffffffffff16146106c9576040517f08c379a00000000000000000000000000000000000000000000000000000000081526004016106c090610da3565b60405180910390fd5b600073ffffffffffffffffffffffffffffffffffffffff168173ffffffffffffffffffffffffffffffffffffffff161415610739576040517f08c379a000000000000000000000000000000000000000000000000000000000815260040161073090610d63565b60405180910390fd5b6107428161074d565b50565b600033905090565b60008060009054906101000a900473ffffffffffffffffffffffffffffffffffffffff169050816000806101000a81548173ffffffffffffffffffffffffffffffffffffffff021916908373ffffffffffffffffffffffffffffffffffffffff1602179055508173ffffffffffffffffffffffffffffffffffffffff168173ffffffffffffffffffffffffffffffffffffffff167f8be0079c531659141344cd1fd0a4f28419497f9722a3daafe3b4186f6b6457e060405160405180910390a35050565b426005546004546108229190610e6f565b10156109ea576002610840603c600554610a0290919063ffffffff16565b61084a9190610f50565b600c54106108c057600260009054906101000a900473ffffffffffffffffffffffffffffffffffffffff1673ffffffffffffffffffffffffffffffffffffffff166108fc479081150290604051600060405180830381858888f193505050501580156108ba573d6000803e3d6000fd5b50610995565b600360009054906101000a900473ffffffffffffffffffffffffffffffffffffffff1673ffffffffffffffffffffffffffffffffffffffff166108fc6006549081150290604051600060405180830381858888f1935050505015801561092a573d6000803e3d6000fd5b50600260009054906101000a900473ffffffffffffffffffffffffffffffffffffffff1673ffffffffffffffffffffffffffffffffffffffff166108fc479081150290604051600060405180830381858888f19350505050158015610993573d6000803e3d6000fd5b505b6000600960006101000a81548160ff0219169083151502179055507f71d9f146944417dd66115a997376d9878c3618f396c331a6c3aa82ce653eae1442476040516109e1929190610dfe565b60405180910390a15b565b600081836109fa9190610ef6565b905092915050565b60008183610a109190610ec5565b905092915050565b60011515600960009054906101000a900460ff16151514610a6e576040517f08c379a0000000000000000000000000000000000000000000000000000000008152600401610a6590610d83565b60405180910390fd5b600360009054906101000a900473ffffffffffffffffffffffffffffffffffffffff1673ffffffffffffffffffffffffffffffffffffffff166108fc479081150290604051600060405180830381858888f19350505050158015610ad6573d6000803e3d6000fd5b507fd8874104029b491ba57b1b4875bd4ba8d4a98bf0261e1fdfac96db44022f95f842600754600a54604051610b0e93929190610e27565b60405180910390a16000600960006101000a81548160ff0219169083151502179055506001600960016101000a81548160ff021916908315150217905550565b600081359050610b5d8161113f565b92915050565b600081519050610b7281611156565b92915050565b600081519050610b878161116d565b92915050565b600081519050610b9c81611184565b92915050565b600060208284031215610bb857610bb761104a565b5b6000610bc684828501610b4e565b91505092915050565b600080600080600060a08688031215610beb57610bea61104a565b5b6000610bf988828901610b8d565b9550506020610c0a88828901610b63565b9450506040610c1b88828901610b78565b9350506060610c2c88828901610b78565b9250506080610c3d88828901610b8d565b9150509295509295909350565b610c5381610f84565b82525050565b610c6281610f96565b82525050565b610c7181610fa2565b82525050565b6000610c84602683610e5e565b9150610c8f8261104f565b604082019050919050565b6000610ca7603183610e5e565b9150610cb28261109e565b604082019050919050565b6000610cca602083610e5e565b9150610cd5826110ed565b602082019050919050565b6000610ced601283610e5e565b9150610cf882611116565b602082019050919050565b610d0c81610fcc565b82525050565b6000602082019050610d276000830184610c4a565b92915050565b6000602082019050610d426000830184610c59565b92915050565b6000602082019050610d5d6000830184610c68565b92915050565b60006020820190508181036000830152610d7c81610c77565b9050919050565b60006020820190508181036000830152610d9c81610c9a565b9050919050565b60006020820190508181036000830152610dbc81610cbd565b9050919050565b60006020820190508181036000830152610ddc81610ce0565b9050919050565b6000602082019050610df86000830184610d03565b92915050565b6000604082019050610e136000830185610d03565b610e206020830184610d03565b9392505050565b6000606082019050610e3c6000830186610d03565b610e496020830185610d03565b610e566040830184610d03565b949350505050565b600082825260208201905092915050565b6000610e7a82610fcc565b9150610e8583610fcc565b9250827fffffffffffffffffffffffffffffffffffffffffffffffffffffffffffffffff03821115610eba57610eb9610fec565b5b828201905092915050565b6000610ed082610fcc565b9150610edb83610fcc565b925082610eeb57610eea61101b565b5b828204905092915050565b6000610f0182610fcc565b9150610f0c83610fcc565b9250817fffffffffffffffffffffffffffffffffffffffffffffffffffffffffffffffff0483118215151615610f4557610f44610fec565b5b828202905092915050565b6000610f5b82610fcc565b9150610f6683610fcc565b925082821015610f7957610f78610fec565b5b828203905092915050565b6000610f8f82610fac565b9050919050565b60008115159050919050565b6000819050919050565b600073ffffffffffffffffffffffffffffffffffffffff82169050919050565b6000819050919050565b600069ffffffffffffffffffff82169050919050565b7f4e487b7100000000000000000000000000000000000000000000000000000000600052601160045260246000fd5b7f4e487b7100000000000000000000000000000000000000000000000000000000600052601260045260246000fd5b600080fd5b7f4f776e61626c653a206e6577206f776e657220697320746865207a65726f206160008201527f6464726573730000000000000000000000000000000000000000000000000000602082015250565b7f436f6e74726163742068617320656e6465642c2063616e7420696e746572616360008201527f74207769746820697420616e796d6f7265000000000000000000000000000000602082015250565b7f4f776e61626c653a2063616c6c6572206973206e6f7420746865206f776e6572600082015250565b7f526f756e64206e6f7420636f6d706c6574650000000000000000000000000000600082015250565b61114881610f84565b811461115357600080fd5b50565b61115f81610fa2565b811461116a57600080fd5b50565b61117681610fcc565b811461118157600080fd5b50565b61118d81610fd6565b811461119857600080fd5b5056fea2646970667358221220a1292266cf5e75c7f70dd96911b97377d8cdbd5970bf5c816dc86a02d5622da864736f6c63430008070033",
  "immutableReferences": {},
  "source": "// SPDX-License-Identifier: MIT\npragma solidity ^0.8.7;\n\nimport \"@openzeppelin/contracts/access/Ownable.sol\";\nimport \"@openzeppelin/contracts/utils/math/SafeMath.sol\";\nimport \"@chainlink/contracts/src/v0.8/interfaces/AggregatorInterface.sol\";\nimport \"@chainlink/contracts/src/v0.8/interfaces/AggregatorV3Interface.sol\";\n\ncontract InsuranceContract is Ownable {\n    using SafeMath for uint;\n    AggregatorV3Interface internal priceFeed;\n\n    uint public constant DAY_IN_SECONDS = 60; //Seconds in a day. 60 for testing, 86400 for Production\n\n    address public insurer;\n    address  client;\n    uint startDate;\n    uint duration;\n    uint premium;\n    uint payoutValue;\n    uint collateralValue;\n    \n    bool contractActive;\n    bool contractPaid = false;\n    uint currentValue = 0;\n    uint currentValueDateChecked = block.timestamp;\n    uint requestCount = 0;\n\n    modifier onContractEnded() {\n        if (startDate + duration < block.timestamp) {\n          _;\n        }\n    }\n\n    modifier onContractActive() {\n        require(contractActive == true ,'Contract has ended, cant interact with it anymore');\n        _;\n    }\n\n    modifier callFrequencyOncePerDay() {\n        require(block.timestamp.sub(currentValueDateChecked) > (DAY_IN_SECONDS.sub(DAY_IN_SECONDS.div(12))),'Can only check token value once per day');\n        _;\n    }\n    \n    event contractCreated(address _insurer, address _client, uint _duration, uint _premium, uint _totalCover);\n    event contractPaidOut(uint _paidTime, uint _totalPaid, uint _finalCollateralValue);\n    event contractEnded(uint _endTime, uint _totalReturned);\n    \n    constructor(address _client, uint _duration, uint _premium, uint _payoutValue, uint _collateralValue) payable {\n        priceFeed = AggregatorV3Interface(0x0FcBAebA1BD0EbF3cFed672C3e98B4aa76DA9546);\n        \n        require(msg.value >= _payoutValue, \"Not enough funds sent to contract\");\n        \n        insurer = msg.sender;\n        client = _client;\n        startDate = block.timestamp;\n        duration = _duration;\n        premium = _premium;\n        payoutValue = _payoutValue;\n        contractActive = true;\n        collateralValue = _collateralValue;\n        \n        emit contractCreated(insurer, client, duration, premium, payoutValue);\n    }\n    \n    function updateContract() public onContractActive() {\n        checkEndContract();\n\n        if (contractActive) {\n            currentValue = uint(getLatestPrice());\n            currentValueDateChecked = block.timestamp;\n            requestCount += 1;\n            if(currentValue <= (collateralValue.mul(10)).div(100)) {\n              payOutContract();\n            }\n        }\n        \n    }\n    \n    function payOutContract() private onContractActive() {\n        payable(client).transfer(address(this).balance);\n\n        emit contractPaidOut(block.timestamp, payoutValue, currentValue);\n\n        contractActive = false;\n        contractPaid = true;\n        \n    }\n    \n    function checkEndContract() private onContractEnded() {\n        if (requestCount >= (duration.div(DAY_IN_SECONDS) - 2)) {\n            payable(insurer).transfer(address(this).balance);\n        } else {\n            payable(client).transfer(premium);\n            payable(insurer).transfer(address(this).balance);\n        }\n\n        contractActive = false;\n        emit contractEnded(block.timestamp, address(this).balance);\n    }\n    \n    function getLatestPrice() public view returns (int) {\n        (\n            uint80 roundID,\n            int price,\n            uint startedAt,\n            uint timeStamp,\n            uint80 answeredInRound\n        ) = priceFeed.latestRoundData();\n        require(timeStamp > 0, \"Round not complete\");\n        \n        return price;\n    }\n    \n    function getContractBalance() external view returns (uint) {\n        return address(this).balance;\n    }\n    \n    function getPayoutValue() external view returns (uint) {\n        return payoutValue;\n    }\n\n    function getPremium() external view returns (uint) {\n        return premium;\n    }\n\n    function getContractStatus() external view returns (bool) {\n        return contractActive;\n    }\n\n    function getContractPaid() external view returns (bool) {\n        return contractPaid;\n    }\n    \n    function getCurrentValue() external view returns (uint) {\n        return currentValue;\n    }\n\n    function getRequestCount() external view returns (uint) {\n        return requestCount;\n    }\n\n    function getCurrentValueDateChecked() external view returns (uint) {\n        return currentValueDateChecked;\n    }\n\n    function getDuration() external view returns (uint) {\n        return duration;\n    }\n\n    function getContractStartDate() external view returns (uint) {\n        return startDate;\n    }\n\n    function getNow() external view returns (uint) {\n        return block.timestamp;\n    }\n\n}",
  "sourcePath": "C:\\Users\\Chaitanya\\Documents\\Projects\\nervos-insure\\contracts\\InsuranceContract.sol",
  "compiler": {
    "name": "solc",
    "version": "0.8.7+commit.e28d00a7.Emscripten.clang"
  },
  "schemaVersion": "3.4.3",
  "updatedAt": "2021-09-27T07:19:14.065Z",
  "devdoc": {
    "kind": "dev",
    "methods": {
      "owner()": {
        "details": "Returns the address of the current owner."
      },
      "renounceOwnership()": {
        "details": "Leaves the contract without owner. It will not be possible to call `onlyOwner` functions anymore. Can only be called by the current owner. NOTE: Renouncing ownership will leave the contract without an owner, thereby removing any functionality that is only available to the owner."
      },
      "transferOwnership(address)": {
        "details": "Transfers ownership of the contract to a new account (`newOwner`). Can only be called by the current owner."
      }
    },
    "version": 1
  },
  "userdoc": {
    "kind": "user",
    "methods": {},
    "version": 1
  }
}