{
  "contractName": "InsuranceContract",
  "abi": [
    {
      "inputs": [
        {
          "internalType": "address payable",
          "name": "_client",
          "type": "address"
        },
        {
          "internalType": "uint256",
          "name": "_duration",
          "type": "uint256"
        },
        {
          "internalType": "uint256",
          "name": "_premium",
          "type": "uint256"
        },
        {
          "internalType": "uint256",
          "name": "_payoutValue",
          "type": "uint256"
        },
        {
          "internalType": "uint256",
          "name": "_collateralValue",
          "type": "uint256"
        }
      ],
      "stateMutability": "nonpayable",
      "type": "constructor"
    },
    {
      "anonymous": false,
      "inputs": [
        {
          "indexed": true,
          "internalType": "address",
          "name": "previousOwner",
          "type": "address"
        },
        {
          "indexed": true,
          "internalType": "address",
          "name": "newOwner",
          "type": "address"
        }
      ],
      "name": "OwnershipTransferred",
      "type": "event"
    },
    {
      "anonymous": false,
      "inputs": [
        {
          "indexed": true,
          "internalType": "address",
          "name": "_client",
          "type": "address"
        },
        {
          "indexed": false,
          "internalType": "address",
          "name": "_insurer",
          "type": "address"
        },
        {
          "indexed": false,
          "internalType": "uint256",
          "name": "_duration",
          "type": "uint256"
        },
        {
          "indexed": false,
          "internalType": "uint256",
          "name": "_premium",
          "type": "uint256"
        },
        {
          "indexed": false,
          "internalType": "uint256",
          "name": "_totalCover",
          "type": "uint256"
        }
      ],
      "name": "contractCreated",
      "type": "event"
    },
    {
      "anonymous": false,
      "inputs": [
        {
          "indexed": true,
          "internalType": "address",
          "name": "_client",
          "type": "address"
        },
        {
          "indexed": false,
          "internalType": "uint256",
          "name": "_endTime",
          "type": "uint256"
        }
      ],
      "name": "contractEnded",
      "type": "event"
    },
    {
      "anonymous": false,
      "inputs": [
        {
          "indexed": true,
          "internalType": "address",
          "name": "_client",
          "type": "address"
        },
        {
          "indexed": false,
          "internalType": "uint256",
          "name": "_paidTime",
          "type": "uint256"
        },
        {
          "indexed": false,
          "internalType": "uint256",
          "name": "_totalPaid",
          "type": "uint256"
        },
        {
          "indexed": false,
          "internalType": "uint256",
          "name": "_finalCollateralValue",
          "type": "uint256"
        }
      ],
      "name": "contractPaidOut",
      "type": "event"
    },
    {
      "inputs": [],
      "name": "DAY_IN_SECONDS",
      "outputs": [
        {
          "internalType": "uint256",
          "name": "",
          "type": "uint256"
        }
      ],
      "stateMutability": "view",
      "type": "function"
    },
    {
      "inputs": [],
      "name": "insurer",
      "outputs": [
        {
          "internalType": "contract InsuranceProvider",
          "name": "",
          "type": "address"
        }
      ],
      "stateMutability": "view",
      "type": "function"
    },
    {
      "inputs": [],
      "name": "owner",
      "outputs": [
        {
          "internalType": "address",
          "name": "",
          "type": "address"
        }
      ],
      "stateMutability": "view",
      "type": "function"
    },
    {
      "inputs": [],
      "name": "renounceOwnership",
      "outputs": [],
      "stateMutability": "nonpayable",
      "type": "function"
    },
    {
      "inputs": [
        {
          "internalType": "address",
          "name": "newOwner",
          "type": "address"
        }
      ],
      "name": "transferOwnership",
      "outputs": [],
      "stateMutability": "nonpayable",
      "type": "function"
    },
    {
      "inputs": [],
      "name": "updateContract",
      "outputs": [],
      "stateMutability": "nonpayable",
      "type": "function"
    },
    {
      "inputs": [],
      "name": "getClient",
      "outputs": [
        {
          "internalType": "address",
          "name": "",
          "type": "address"
        }
      ],
      "stateMutability": "view",
      "type": "function"
    },
    {
      "inputs": [],
      "name": "getPayoutValue",
      "outputs": [
        {
          "internalType": "uint256",
          "name": "",
          "type": "uint256"
        }
      ],
      "stateMutability": "view",
      "type": "function"
    },
    {
      "inputs": [],
      "name": "getPremium",
      "outputs": [
        {
          "internalType": "uint256",
          "name": "",
          "type": "uint256"
        }
      ],
      "stateMutability": "view",
      "type": "function"
    },
    {
      "inputs": [],
      "name": "getContractStatus",
      "outputs": [
        {
          "internalType": "bool",
          "name": "",
          "type": "bool"
        }
      ],
      "stateMutability": "view",
      "type": "function"
    },
    {
      "inputs": [],
      "name": "getContractPaid",
      "outputs": [
        {
          "internalType": "bool",
          "name": "",
          "type": "bool"
        }
      ],
      "stateMutability": "view",
      "type": "function"
    },
    {
      "inputs": [],
      "name": "getCurrentValue",
      "outputs": [
        {
          "internalType": "uint256",
          "name": "",
          "type": "uint256"
        }
      ],
      "stateMutability": "view",
      "type": "function"
    },
    {
      "inputs": [],
      "name": "getRequestCount",
      "outputs": [
        {
          "internalType": "uint256",
          "name": "",
          "type": "uint256"
        }
      ],
      "stateMutability": "view",
      "type": "function"
    },
    {
      "inputs": [],
      "name": "getCurrentValueDateChecked",
      "outputs": [
        {
          "internalType": "uint256",
          "name": "",
          "type": "uint256"
        }
      ],
      "stateMutability": "view",
      "type": "function"
    },
    {
      "inputs": [],
      "name": "getDuration",
      "outputs": [
        {
          "internalType": "uint256",
          "name": "",
          "type": "uint256"
        }
      ],
      "stateMutability": "view",
      "type": "function"
    },
    {
      "inputs": [],
      "name": "getContractStartDate",
      "outputs": [
        {
          "internalType": "uint256",
          "name": "",
          "type": "uint256"
        }
      ],
      "stateMutability": "view",
      "type": "function"
    }
  ],
  "bytecode": "0x60806040526000600960016101000a81548160ff0219169083151502179055506000600a5542600b556000600c553480156200003a57600080fd5b5060405162001a6538038062001a6583398181016040528101906200006091906200033a565b62000080620000746200024060201b60201c565b6200024860201b60201c565b731363bdce312532f864e84924d54c7da5edb5b1bc600160006101000a81548173ffffffffffffffffffffffffffffffffffffffff021916908373ffffffffffffffffffffffffffffffffffffffff16021790555033600260006101000a81548173ffffffffffffffffffffffffffffffffffffffff021916908373ffffffffffffffffffffffffffffffffffffffff16021790555084600360006101000a81548173ffffffffffffffffffffffffffffffffffffffff021916908373ffffffffffffffffffffffffffffffffffffffff160217905550426004819055508360058190555082600681905550816007819055506001600960006101000a81548160ff02191690831515021790555080600881905550600360009054906101000a900473ffffffffffffffffffffffffffffffffffffffff1673ffffffffffffffffffffffffffffffffffffffff167f0203790cae2ea31823a6382172bd46011fcfbab29b22bb78b4b2f266febf6072600260009054906101000a900473ffffffffffffffffffffffffffffffffffffffff166005546006546007546040516200022d9493929190620003e4565b60405180910390a25050505050620004bc565b600033905090565b60008060009054906101000a900473ffffffffffffffffffffffffffffffffffffffff169050816000806101000a81548173ffffffffffffffffffffffffffffffffffffffff021916908373ffffffffffffffffffffffffffffffffffffffff1602179055508173ffffffffffffffffffffffffffffffffffffffff168173ffffffffffffffffffffffffffffffffffffffff167f8be0079c531659141344cd1fd0a4f28419497f9722a3daafe3b4186f6b6457e060405160405180910390a35050565b6000815190506200031d8162000488565b92915050565b6000815190506200033481620004a2565b92915050565b600080600080600060a0868803121562000359576200035862000483565b5b600062000369888289016200030c565b95505060206200037c8882890162000323565b94505060406200038f8882890162000323565b9350506060620003a28882890162000323565b9250506080620003b58882890162000323565b9150509295509295909350565b620003cd8162000431565b82525050565b620003de8162000479565b82525050565b6000608082019050620003fb6000830187620003c2565b6200040a6020830186620003d3565b620004196040830185620003d3565b620004286060830184620003d3565b95945050505050565b60006200043e8262000459565b9050919050565b6000620004528262000459565b9050919050565b600073ffffffffffffffffffffffffffffffffffffffff82169050919050565b6000819050919050565b600080fd5b620004938162000445565b81146200049f57600080fd5b50565b620004ad8162000479565b8114620004b957600080fd5b50565b61159980620004cc6000396000f3fe608060405234801561001057600080fd5b50600436106101005760003560e01c8063ad2e8c9b11610097578063dbc837c511610066578063dbc837c514610245578063dcbacd1114610263578063e3ea4ef214610281578063f2fde38b1461029f57610100565b8063ad2e8c9b146101cd578063b0b30fee146101eb578063c032846b14610209578063c97440291461022757610100565b80635fdc6281116100d35780635fdc62811461017d578063715018a61461019b5780638da5cb5b146101a5578063a241c089146101c357610100565b80630f76c11414610105578063243d9a5d146101235780633fad18341461014157806359dc735c1461015f575b600080fd5b61010d6102bb565b60405161011a9190611114565b60405180910390f35b61012b6102c5565b6040516101389190611114565b60405180910390f35b6101496102cf565b6040516101569190611114565b60405180910390f35b6101676102d9565b6040516101749190610fd1565b60405180910390f35b610185610303565b6040516101929190611114565b60405180910390f35b6101a3610308565b005b6101ad610390565b6040516101ba9190610fd1565b60405180910390f35b6101cb6103b9565b005b6101d5610593565b6040516101e29190611114565b60405180910390f35b6101f361059d565b604051610200919061103e565b60405180910390f35b6102116105b4565b60405161021e919061103e565b60405180910390f35b61022f6105cb565b60405161023c9190611114565b60405180910390f35b61024d6105d5565b60405161025a9190611059565b60405180910390f35b61026b6105fb565b6040516102789190611114565b60405180910390f35b610289610605565b6040516102969190611114565b60405180910390f35b6102b960048036038101906102b49190610e02565b61060f565b005b6000600a54905090565b6000600754905090565b6000600c54905090565b6000600360009054906101000a900473ffffffffffffffffffffffffffffffffffffffff16905090565b603c81565b610310610707565b73ffffffffffffffffffffffffffffffffffffffff1661032e610390565b73ffffffffffffffffffffffffffffffffffffffff1614610384576040517f08c379a000000000000000000000000000000000000000000000000000000000815260040161037b906110d4565b60405180910390fd5b61038e600061070f565b565b60008060009054906101000a900473ffffffffffffffffffffffffffffffffffffffff16905090565b60011515600960009054906101000a900460ff1615151461040f576040517f08c379a0000000000000000000000000000000000000000000000000000000008152600401610406906110b4565b60405180910390fd5b610417610707565b73ffffffffffffffffffffffffffffffffffffffff16610435610390565b73ffffffffffffffffffffffffffffffffffffffff161461048b576040517f08c379a0000000000000000000000000000000000000000000000000000000008152600401610482906110d4565b60405180910390fd5b6104b36104a3600c603c6107d390919063ffffffff16565b603c6107e990919063ffffffff16565b6104c8600b54426107e990919063ffffffff16565b11610508576040517f08c379a00000000000000000000000000000000000000000000000000000000081526004016104ff90611074565b60405180910390fd5b6105106107ff565b600960009054906101000a900460ff16156105915761052d610a0d565b600a8190555042600b819055506105506001600c54610b3190919063ffffffff16565b600c8190555061057f6064610571600a600854610b4790919063ffffffff16565b6107d390919063ffffffff16565b600a54116105905761058f610b5d565b5b5b565b6000600554905090565b6000600960019054906101000a900460ff16905090565b6000600960009054906101000a900460ff16905090565b6000600654905090565b600260009054906101000a900473ffffffffffffffffffffffffffffffffffffffff1681565b6000600454905090565b6000600b54905090565b610617610707565b73ffffffffffffffffffffffffffffffffffffffff16610635610390565b73ffffffffffffffffffffffffffffffffffffffff161461068b576040517f08c379a0000000000000000000000000000000000000000000000000000000008152600401610682906110d4565b60405180910390fd5b600073ffffffffffffffffffffffffffffffffffffffff168173ffffffffffffffffffffffffffffffffffffffff1614156106fb576040517f08c379a00000000000000000000000000000000000000000000000000000000081526004016106f290611094565b60405180910390fd5b6107048161070f565b50565b600033905090565b60008060009054906101000a900473ffffffffffffffffffffffffffffffffffffffff169050816000806101000a81548173ffffffffffffffffffffffffffffffffffffffff021916908373ffffffffffffffffffffffffffffffffffffffff1602179055508173ffffffffffffffffffffffffffffffffffffffff168173ffffffffffffffffffffffffffffffffffffffff167f8be0079c531659141344cd1fd0a4f28419497f9722a3daafe3b4186f6b6457e060405160405180910390a35050565b600081836107e191906111cd565b905092915050565b600081836107f79190611258565b905092915050565b42610817600554600454610b3190919063ffffffff16565b1015610a0b576002610835603c6005546107d390919063ffffffff16565b61083f9190611258565b600c54101561097f576000600260009054906101000a900473ffffffffffffffffffffffffffffffffffffffff1673ffffffffffffffffffffffffffffffffffffffff1663300752fc6040518163ffffffff1660e01b815260040160206040518083038186803b1580156108b257600080fd5b505afa1580156108c6573d6000803e3d6000fd5b505050506040513d601f19601f820116820180604052508101906108ea9190610e2f565b90508073ffffffffffffffffffffffffffffffffffffffff1663b48ae273600360009054906101000a900473ffffffffffffffffffffffffffffffffffffffff166007546040518363ffffffff1660e01b815260040161094b929190610fec565b600060405180830381600087803b15801561096557600080fd5b505af1158015610979573d6000803e3d6000fd5b50505050505b6000600960006101000a81548160ff021916908315150217905550600360009054906101000a900473ffffffffffffffffffffffffffffffffffffffff1673ffffffffffffffffffffffffffffffffffffffff167ff1c35e3933051ea28efca558462a55cac66003050f2c6f4e96833a696fa444e242604051610a029190611114565b60405180910390a25b565b600080600080600080600160009054906101000a900473ffffffffffffffffffffffffffffffffffffffff1673ffffffffffffffffffffffffffffffffffffffff1663bcfd032d73eeeeeeeeeeeeeeeeeeeeeeeeeeeeeeeeeeeeeeee6103486040518363ffffffff1660e01b8152600401610a89929190611015565b60a06040518083038186803b158015610aa157600080fd5b505afa158015610ab5573d6000803e3d6000fd5b505050506040513d601f19601f82011682018060405250810190610ad99190610e5c565b9450945094509450945060008211610b26576040517f08c379a0000000000000000000000000000000000000000000000000000000008152600401610b1d906110f4565b60405180910390fd5b839550505050505090565b60008183610b3f9190611177565b905092915050565b60008183610b5591906111fe565b905092915050565b60011515600960009054906101000a900460ff16151514610bb3576040517f08c379a0000000000000000000000000000000000000000000000000000000008152600401610baa906110b4565b60405180910390fd5b6000600260009054906101000a900473ffffffffffffffffffffffffffffffffffffffff1673ffffffffffffffffffffffffffffffffffffffff1663300752fc6040518163ffffffff1660e01b815260040160206040518083038186803b158015610c1d57600080fd5b505afa158015610c31573d6000803e3d6000fd5b505050506040513d601f19601f82011682018060405250810190610c559190610e2f565b90508073ffffffffffffffffffffffffffffffffffffffff1663b48ae273600360009054906101000a900473ffffffffffffffffffffffffffffffffffffffff166007546040518363ffffffff1660e01b8152600401610cb6929190610fec565b600060405180830381600087803b158015610cd057600080fd5b505af1158015610ce4573d6000803e3d6000fd5b50505050600360009054906101000a900473ffffffffffffffffffffffffffffffffffffffff1673ffffffffffffffffffffffffffffffffffffffff167f7ff8589a935e376dabc873be633a3fc8c5902e06a5d8cedcaa9ecacc095dbe1d42600754600a54604051610d589392919061112f565b60405180910390a26000600960006101000a81548160ff0219169083151502179055506001600960016101000a81548160ff02191690831515021790555050565b600081359050610da8816114f0565b92915050565b600081519050610dbd81611507565b92915050565b600081519050610dd28161151e565b92915050565b600081519050610de781611535565b92915050565b600081519050610dfc8161154c565b92915050565b600060208284031215610e1857610e176113ac565b5b6000610e2684828501610d99565b91505092915050565b600060208284031215610e4557610e446113ac565b5b6000610e5384828501610dae565b91505092915050565b600080600080600060a08688031215610e7857610e776113ac565b5b6000610e8688828901610ded565b9550506020610e9788828901610dc3565b9450506040610ea888828901610dd8565b9350506060610eb988828901610dd8565b9250506080610eca88828901610ded565b9150509295509295909350565b610ee08161129e565b82525050565b610eef8161128c565b82525050565b610efe816112b0565b82525050565b610f0d81611318565b82525050565b6000610f20602783611166565b9150610f2b826113b1565b604082019050919050565b6000610f43602683611166565b9150610f4e82611400565b604082019050919050565b6000610f66603183611166565b9150610f718261144f565b604082019050919050565b6000610f89602083611166565b9150610f948261149e565b602082019050919050565b6000610fac601283611166565b9150610fb7826114c7565b602082019050919050565b610fcb816112f8565b82525050565b6000602082019050610fe66000830184610ee6565b92915050565b60006040820190506110016000830185610ed7565b61100e6020830184610fc2565b9392505050565b600060408201905061102a6000830185610ee6565b6110376020830184610ee6565b9392505050565b60006020820190506110536000830184610ef5565b92915050565b600060208201905061106e6000830184610f04565b92915050565b6000602082019050818103600083015261108d81610f13565b9050919050565b600060208201905081810360008301526110ad81610f36565b9050919050565b600060208201905081810360008301526110cd81610f59565b9050919050565b600060208201905081810360008301526110ed81610f7c565b9050919050565b6000602082019050818103600083015261110d81610f9f565b9050919050565b60006020820190506111296000830184610fc2565b92915050565b60006060820190506111446000830186610fc2565b6111516020830185610fc2565b61115e6040830184610fc2565b949350505050565b600082825260208201905092915050565b6000611182826112f8565b915061118d836112f8565b9250827fffffffffffffffffffffffffffffffffffffffffffffffffffffffffffffffff038211156111c2576111c161134e565b5b828201905092915050565b60006111d8826112f8565b91506111e3836112f8565b9250826111f3576111f261137d565b5b828204905092915050565b6000611209826112f8565b9150611214836112f8565b9250817fffffffffffffffffffffffffffffffffffffffffffffffffffffffffffffffff048311821515161561124d5761124c61134e565b5b828202905092915050565b6000611263826112f8565b915061126e836112f8565b9250828210156112815761128061134e565b5b828203905092915050565b6000611297826112d8565b9050919050565b60006112a9826112d8565b9050919050565b60008115159050919050565b60006112c78261128c565b9050919050565b6000819050919050565b600073ffffffffffffffffffffffffffffffffffffffff82169050919050565b6000819050919050565b600069ffffffffffffffffffff82169050919050565b60006113238261132a565b9050919050565b60006113358261133c565b9050919050565b6000611347826112d8565b9050919050565b7f4e487b7100000000000000000000000000000000000000000000000000000000600052601160045260246000fd5b7f4e487b7100000000000000000000000000000000000000000000000000000000600052601260045260246000fd5b600080fd5b7f43616e206f6e6c7920636865636b20746f6b656e2076616c7565206f6e63652060008201527f7065722064617900000000000000000000000000000000000000000000000000602082015250565b7f4f776e61626c653a206e6577206f776e657220697320746865207a65726f206160008201527f6464726573730000000000000000000000000000000000000000000000000000602082015250565b7f436f6e74726163742068617320656e6465642c2063616e7420696e746572616360008201527f74207769746820697420616e796d6f7265000000000000000000000000000000602082015250565b7f4f776e61626c653a2063616c6c6572206973206e6f7420746865206f776e6572600082015250565b7f526f756e64206e6f7420636f6d706c6574650000000000000000000000000000600082015250565b6114f98161128c565b811461150457600080fd5b50565b611510816112bc565b811461151b57600080fd5b50565b611527816112ce565b811461153257600080fd5b50565b61153e816112f8565b811461154957600080fd5b50565b61155581611302565b811461156057600080fd5b5056fea2646970667358221220811befc4c98de1369ad78d8cedfe366256a3c189156e217569a7c7f98077f1a564736f6c63430008070033",
  "immutableReferences": {},
  "source": "// SPDX-License-Identifier: MIT\npragma solidity >=0.4.22 <0.9.0;\n\nimport \"@openzeppelin/contracts/access/Ownable.sol\";\nimport \"@openzeppelin/contracts/utils/math/SafeMath.sol\";\nimport \"@chainlink/contracts/src/v0.8/interfaces/FeedRegistryInterface.sol\";\nimport \"./Denominations.sol\";\nimport \"./InsuranceProvider.sol\";\nimport \"./Pool.sol\";\n\ncontract InsuranceContract is Ownable {\n  using SafeMath for uint;\n  FeedRegistryInterface internal registry;\n\n  uint public constant DAY_IN_SECONDS = 60; //Seconds in a day. 60 for testing, 86400 for Production\n\n  InsuranceProvider public insurer;\n  address payable client;\n  uint startDate;\n  uint duration;\n  uint premium;\n  uint payoutValue;\n  uint collateralValue;\n    \n  bool contractActive;\n  bool contractPaid = false;\n  uint currentValue = 0;\n  uint currentValueDateChecked = block.timestamp;\n  uint requestCount = 0;\n\n  modifier onContractEnded() {\n    if (startDate.add(duration) < block.timestamp) {\n      _;\n    }\n  }\n\n  modifier onContractActive() {\n    require(contractActive == true ,'Contract has ended, cant interact with it anymore');\n    _;\n  }\n\n  modifier callFrequencyOncePerDay() {\n    require(\n      block.timestamp.sub(currentValueDateChecked) > (DAY_IN_SECONDS.sub(DAY_IN_SECONDS.div(12))),\n      'Can only check token value once per day'\n    );\n    _;\n  }\n    \n  event contractCreated(address indexed _client, address _insurer, uint _duration, uint _premium, uint _totalCover);\n  event contractPaidOut(address indexed _client, uint _paidTime, uint _totalPaid, uint _finalCollateralValue);\n  event contractEnded(address indexed _client, uint _endTime);\n    \n  constructor(\n    address payable _client, \n    uint _duration, \n    uint _premium, \n    uint _payoutValue, \n    uint _collateralValue) \n  {\n    registry = FeedRegistryInterface(0x1363bdCE312532F864e84924D54c7dA5eDB5B1BC);\n        \n    insurer = InsuranceProvider(msg.sender);\n    client = _client;\n    startDate = block.timestamp;\n    duration = _duration;\n    premium = _premium;\n    payoutValue = _payoutValue;\n    contractActive = true;\n    collateralValue = _collateralValue;\n        \n    emit contractCreated(client, address(insurer), duration, premium, payoutValue);\n  }\n    \n  function updateContract() \n    public \n    onContractActive \n    onlyOwner \n    callFrequencyOncePerDay \n  {\n    checkEndContract();\n\n    if (contractActive) {\n      currentValue = uint(getLatestPrice());\n      currentValueDateChecked = block.timestamp;\n      requestCount = requestCount.add(1);\n      if(currentValue <= (collateralValue.mul(10)).div(100)) {\n        payOutContract();\n      }\n    }\n  }\n    \n  function payOutContract() private onContractActive {\n    Pool capitalPool = insurer.getCapitalPool();\n    capitalPool.claimContract(client, payoutValue);\n\n    emit contractPaidOut(client, block.timestamp, payoutValue, currentValue);\n\n    contractActive = false;\n    contractPaid = true;\n  }\n    \n  function checkEndContract() private onContractEnded {\n    if (!(requestCount >= (duration.div(DAY_IN_SECONDS) - 2))) {\n      Pool capitalPool = insurer.getCapitalPool();\n      capitalPool.claimContract(client, payoutValue);\n    }\n\n    contractActive = false;\n    emit contractEnded(client, block.timestamp);\n  }\n    \n  function getLatestPrice() internal view returns (int) {\n    (\n      uint80 roundID, \n      int price,\n      uint startedAt,\n      uint timeStamp,\n      uint80 answeredInRound\n    ) = registry.latestRoundData(Denominations.ETH, Denominations.USD);\n    require(timeStamp > 0, \"Round not complete\");\n        \n    return price;\n  }\n\n  function getClient() external view returns (address) {\n    return client;\n  }\n    \n  function getPayoutValue() external view returns (uint) {\n    return payoutValue;\n  }\n\n  function getPremium() external view returns (uint) {\n    return premium;\n  }\n\n  function getContractStatus() external view returns (bool) {\n    return contractActive;\n  }\n\n  function getContractPaid() external view returns (bool) {\n    return contractPaid;\n  }\n    \n  function getCurrentValue() external view returns (uint) {\n    return currentValue;\n  }\n\n  function getRequestCount() external view returns (uint) {\n    return requestCount;\n  }\n\n  function getCurrentValueDateChecked() external view returns (uint) {\n    return currentValueDateChecked;\n  }\n\n  function getDuration() external view returns (uint) {\n    return duration;\n  }\n\n  function getContractStartDate() external view returns (uint) {\n    return startDate;\n  }\n}",
  "sourcePath": "C:\\Users\\Chaitanya\\Documents\\Projects\\nervos-insure\\contracts\\InsuranceContract.sol",
  "compiler": {
    "name": "solc",
    "version": "0.8.7+commit.e28d00a7.Emscripten.clang"
  },
  "schemaVersion": "3.4.3",
  "updatedAt": "2021-10-06T08:04:15.110Z",
  "devdoc": {
    "kind": "dev",
    "methods": {
      "owner()": {
        "details": "Returns the address of the current owner."
      },
      "renounceOwnership()": {
        "details": "Leaves the contract without owner. It will not be possible to call `onlyOwner` functions anymore. Can only be called by the current owner. NOTE: Renouncing ownership will leave the contract without an owner, thereby removing any functionality that is only available to the owner."
      },
      "transferOwnership(address)": {
        "details": "Transfers ownership of the contract to a new account (`newOwner`). Can only be called by the current owner."
      }
    },
    "version": 1
  },
  "userdoc": {
    "kind": "user",
    "methods": {},
    "version": 1
  }
}