{
  "contractName": "InsuranceProvider",
  "abi": [
    {
      "inputs": [],
      "stateMutability": "nonpayable",
      "type": "constructor"
    },
    {
      "anonymous": false,
      "inputs": [
        {
          "indexed": true,
          "internalType": "address",
          "name": "previousOwner",
          "type": "address"
        },
        {
          "indexed": true,
          "internalType": "address",
          "name": "newOwner",
          "type": "address"
        }
      ],
      "name": "OwnershipTransferred",
      "type": "event"
    },
    {
      "anonymous": false,
      "inputs": [
        {
          "indexed": false,
          "internalType": "address",
          "name": "_insuranceContract",
          "type": "address"
        },
        {
          "indexed": false,
          "internalType": "uint256",
          "name": "_premium",
          "type": "uint256"
        },
        {
          "indexed": false,
          "internalType": "uint256",
          "name": "_totalCover",
          "type": "uint256"
        }
      ],
      "name": "contractCreated",
      "type": "event"
    },
    {
      "inputs": [],
      "name": "DAY_IN_SECONDS",
      "outputs": [
        {
          "internalType": "uint256",
          "name": "",
          "type": "uint256"
        }
      ],
      "stateMutability": "view",
      "type": "function",
      "constant": true
    },
    {
      "inputs": [],
      "name": "owner",
      "outputs": [
        {
          "internalType": "address",
          "name": "",
          "type": "address"
        }
      ],
      "stateMutability": "view",
      "type": "function",
      "constant": true
    },
    {
      "inputs": [],
      "name": "renounceOwnership",
      "outputs": [],
      "stateMutability": "nonpayable",
      "type": "function"
    },
    {
      "inputs": [
        {
          "internalType": "address",
          "name": "newOwner",
          "type": "address"
        }
      ],
      "name": "transferOwnership",
      "outputs": [],
      "stateMutability": "nonpayable",
      "type": "function"
    },
    {
      "inputs": [
        {
          "internalType": "uint256",
          "name": "_duration",
          "type": "uint256"
        },
        {
          "internalType": "uint256",
          "name": "_premium",
          "type": "uint256"
        },
        {
          "internalType": "uint256",
          "name": "_payoutValue",
          "type": "uint256"
        }
      ],
      "name": "newContract",
      "outputs": [
        {
          "internalType": "address",
          "name": "",
          "type": "address"
        }
      ],
      "stateMutability": "payable",
      "type": "function",
      "payable": true
    },
    {
      "inputs": [],
      "name": "getClientContracts",
      "outputs": [
        {
          "internalType": "address[]",
          "name": "",
          "type": "address[]"
        }
      ],
      "stateMutability": "view",
      "type": "function",
      "constant": true
    },
    {
      "inputs": [],
      "name": "getContractCount",
      "outputs": [
        {
          "components": [
            {
              "internalType": "uint256",
              "name": "_value",
              "type": "uint256"
            }
          ],
          "internalType": "struct Counters.Counter",
          "name": "",
          "type": "tuple"
        }
      ],
      "stateMutability": "view",
      "type": "function",
      "constant": true
    },
    {
      "inputs": [],
      "name": "getTotalContractValue",
      "outputs": [
        {
          "internalType": "uint256",
          "name": "",
          "type": "uint256"
        }
      ],
      "stateMutability": "view",
      "type": "function",
      "constant": true
    },
    {
      "inputs": [],
      "name": "getActiveContractCount",
      "outputs": [
        {
          "internalType": "uint256",
          "name": "",
          "type": "uint256"
        }
      ],
      "stateMutability": "view",
      "type": "function",
      "constant": true
    },
    {
      "inputs": [
        {
          "internalType": "address",
          "name": "_contract",
          "type": "address"
        }
      ],
      "name": "updateContract",
      "outputs": [],
      "stateMutability": "nonpayable",
      "type": "function"
    },
    {
      "inputs": [
        {
          "internalType": "address",
          "name": "_contract",
          "type": "address"
        }
      ],
      "name": "getContractCurrentValue",
      "outputs": [
        {
          "internalType": "uint256",
          "name": "",
          "type": "uint256"
        }
      ],
      "stateMutability": "view",
      "type": "function",
      "constant": true
    },
    {
      "inputs": [
        {
          "internalType": "address",
          "name": "_contract",
          "type": "address"
        }
      ],
      "name": "getContractRequestCount",
      "outputs": [
        {
          "internalType": "uint256",
          "name": "",
          "type": "uint256"
        }
      ],
      "stateMutability": "view",
      "type": "function",
      "constant": true
    },
    {
      "inputs": [],
      "name": "getInsurer",
      "outputs": [
        {
          "internalType": "address",
          "name": "",
          "type": "address"
        }
      ],
      "stateMutability": "view",
      "type": "function",
      "constant": true
    },
    {
      "inputs": [
        {
          "internalType": "address",
          "name": "_address",
          "type": "address"
        }
      ],
      "name": "getContractStatus",
      "outputs": [
        {
          "internalType": "bool",
          "name": "",
          "type": "bool"
        }
      ],
      "stateMutability": "view",
      "type": "function",
      "constant": true
    },
    {
      "inputs": [],
      "name": "getContractBalance",
      "outputs": [
        {
          "internalType": "uint256",
          "name": "",
          "type": "uint256"
        }
      ],
      "stateMutability": "view",
      "type": "function",
      "constant": true
    },
    {
      "inputs": [],
      "name": "endContractProvider",
      "outputs": [],
      "stateMutability": "nonpayable",
      "type": "function"
    }
  ],
  "bytecode": "0x608060405234801561001057600080fd5b5061002d61002261008760201b60201c565b61008f60201b60201c565b730fcbaeba1bd0ebf3cfed672c3e98b4aa76da9546600160006101000a81548173ffffffffffffffffffffffffffffffffffffffff021916908373ffffffffffffffffffffffffffffffffffffffff160217905550610153565b600033905090565b60008060009054906101000a900473ffffffffffffffffffffffffffffffffffffffff169050816000806101000a81548173ffffffffffffffffffffffffffffffffffffffff021916908373ffffffffffffffffffffffffffffffffffffffff1602179055508173ffffffffffffffffffffffffffffffffffffffff168173ffffffffffffffffffffffffffffffffffffffff167f8be0079c531659141344cd1fd0a4f28419497f9722a3daafe3b4186f6b6457e060405160405180910390a35050565b613363806101626000396000f3fe6080604052600436106200010a5760003560e01c80638da5cb5b1162000097578063c92ee4f61162000061578063c92ee4f6146200034b578063de8c89761462000381578063e3db17b814620003c5578063f2fde38b14620003f3576200010a565b80638da5cb5b14620002a15780639083b5ba14620002d15780639399869d1462000301578063a1219c421462000331576200010a565b80635fdc628111620000d95780635fdc628114620001e35780636896c87014620002135780636f9fb98a1462000257578063715018a61462000287576200010a565b8063125716d6146200010f578063417d5fd714620001535780635d0c147614620001835780635d14f29414620001b3575b600080fd5b3480156200011c57600080fd5b506200013b6004803603810190620001359190620011a4565b62000421565b6040516200014a919062001601565b60405180910390f35b3480156200016057600080fd5b506200016b620004b1565b6040516200017a919062001729565b60405180910390f35b3480156200019057600080fd5b506200019b620005c6565b604051620001aa919062001526565b60405180910390f35b348015620001c057600080fd5b50620001cb620005ce565b604051620001da9190620015dd565b60405180910390f35b348015620001f057600080fd5b50620001fb6200069b565b6040516200020a919062001729565b60405180910390f35b3480156200022057600080fd5b506200023f6004803603810190620002399190620011a4565b620006a0565b6040516200024e919062001729565b60405180910390f35b3480156200026457600080fd5b506200026f62000730565b6040516200027e919062001729565b60405180910390f35b3480156200029457600080fd5b506200029f62000738565b005b348015620002ae57600080fd5b50620002b9620007c9565b604051620002c8919062001526565b60405180910390f35b348015620002de57600080fd5b50620002e9620007f2565b604051620002f8919062001729565b60405180910390f35b3480156200030e57600080fd5b50620003196200090f565b6040516200032891906200170c565b60405180910390f35b3480156200033e57600080fd5b506200034962000935565b005b6200036960048036038101906200036391906200123a565b620009da565b60405162000378919062001526565b60405180910390f35b3480156200038e57600080fd5b50620003ad6004803603810190620003a79190620011a4565b62000cc8565b604051620003bc919062001729565b60405180910390f35b348015620003d257600080fd5b50620003f16004803603810190620003eb9190620011a4565b62000d58565b005b3480156200040057600080fd5b506200041f6004803603810190620004199190620011a4565b62000dc3565b005b6000808290508073ffffffffffffffffffffffffffffffffffffffff1663c032846b6040518163ffffffff1660e01b815260040160206040518083038186803b1580156200046e57600080fd5b505afa15801562000483573d6000803e3d6000fd5b505050506040513d601f19601f82011682018060405250810190620004a99190620011d6565b915050919050565b6000806000905060005b600380549050811015620005be57600060038281548110620004e257620004e16200199c565b5b9060005260206000200160009054906101000a900473ffffffffffffffffffffffffffffffffffffffff169050620005a58173ffffffffffffffffffffffffffffffffffffffff1663243d9a5d6040518163ffffffff1660e01b815260040160206040518083038186803b1580156200055a57600080fd5b505afa1580156200056f573d6000803e3d6000fd5b505050506040513d601f19601f8201168201806040525081019062000595919062001208565b8462000ec790919063ffffffff16565b9250508080620005b590620018b8565b915050620004bb565b508091505090565b600030905090565b6060600460003373ffffffffffffffffffffffffffffffffffffffff1673ffffffffffffffffffffffffffffffffffffffff1681526020019081526020016000208054806020026020016040519081016040528092919081815260200182805480156200069157602002820191906000526020600020905b8160009054906101000a900473ffffffffffffffffffffffffffffffffffffffff1673ffffffffffffffffffffffffffffffffffffffff168152602001906001019080831162000646575b5050505050905090565b603c81565b6000808290508073ffffffffffffffffffffffffffffffffffffffff16633fad18346040518163ffffffff1660e01b815260040160206040518083038186803b158015620006ed57600080fd5b505afa15801562000702573d6000803e3d6000fd5b505050506040513d601f19601f8201168201806040525081019062000728919062001208565b915050919050565b600047905090565b6200074262000edf565b73ffffffffffffffffffffffffffffffffffffffff1662000762620007c9565b73ffffffffffffffffffffffffffffffffffffffff1614620007bb576040517f08c379a0000000000000000000000000000000000000000000000000000000008152600401620007b290620016c8565b60405180910390fd5b620007c7600062000ee7565b565b60008060009054906101000a900473ffffffffffffffffffffffffffffffffffffffff16905090565b6000806000905060005b60038054905081101562000907576000600382815481106200082357620008226200199c565b5b9060005260206000200160009054906101000a900473ffffffffffffffffffffffffffffffffffffffff16905060008173ffffffffffffffffffffffffffffffffffffffff1663c032846b6040518163ffffffff1660e01b815260040160206040518083038186803b1580156200089957600080fd5b505afa158015620008ae573d6000803e3d6000fd5b505050506040513d601f19601f82011682018060405250810190620008d49190620011d6565b90508015620008ef57600184620008ec919062001790565b93505b50508080620008fe90620018b8565b915050620007fc565b508091505090565b62000919620010f9565b6002604051806020016040529081600082015481525050905090565b6200093f62000edf565b73ffffffffffffffffffffffffffffffffffffffff166200095f620007c9565b73ffffffffffffffffffffffffffffffffffffffff1614620009b8576040517f08c379a0000000000000000000000000000000000000000000000000000000008152600401620009af90620016c8565b60405180910390fd5b620009c2620007c9565b73ffffffffffffffffffffffffffffffffffffffff16ff5b60008062000a08620009f8601e603c62000fab90919063ffffffff16565b8662000fc390919063ffffffff16565b1462000a4b576040517f08c379a000000000000000000000000000000000000000000000000000000000815260040162000a429062001662565b60405180910390fd5b600082101562000a92576040517f08c379a000000000000000000000000000000000000000000000000000000000815260040162000a8990620016a6565b60405180910390fd5b6000831162000ad8576040517f08c379a000000000000000000000000000000000000000000000000000000000815260040162000acf9062001684565b60405180910390fd5b82341462000b1d576040517f08c379a000000000000000000000000000000000000000000000000000000000815260040162000b149062001640565b60405180910390fd5b600062000b2962000fdb565b90506000338686868560405162000b40906200110c565b62000b5095949392919062001580565b604051809103906000f08015801562000b6d573d6000803e3d6000fd5b50905062000b7c6002620010e3565b6003819080600181540180825580915050600190039060005260206000200160009091909190916101000a81548173ffffffffffffffffffffffffffffffffffffffff021916908373ffffffffffffffffffffffffffffffffffffffff160217905550600460003373ffffffffffffffffffffffffffffffffffffffff1673ffffffffffffffffffffffffffffffffffffffff168152602001908152602001600020819080600181540180825580915050600190039060005260206000200160009091909190916101000a81548173ffffffffffffffffffffffffffffffffffffffff021916908373ffffffffffffffffffffffffffffffffffffffff1602179055507fa44aa7756c3391a11525eeee40213754bf3aee2a051d2597433fb40572a47d7681348660405162000cb49392919062001543565b60405180910390a180925050509392505050565b6000808290508073ffffffffffffffffffffffffffffffffffffffff16630f76c1146040518163ffffffff1660e01b815260040160206040518083038186803b15801562000d1557600080fd5b505afa15801562000d2a573d6000803e3d6000fd5b505050506040513d601f19601f8201168201806040525081019062000d50919062001208565b915050919050565b60008190508073ffffffffffffffffffffffffffffffffffffffff1663a241c0896040518163ffffffff1660e01b8152600401600060405180830381600087803b15801562000da657600080fd5b505af115801562000dbb573d6000803e3d6000fd5b505050505050565b62000dcd62000edf565b73ffffffffffffffffffffffffffffffffffffffff1662000ded620007c9565b73ffffffffffffffffffffffffffffffffffffffff161462000e46576040517f08c379a000000000000000000000000000000000000000000000000000000000815260040162000e3d90620016c8565b60405180910390fd5b600073ffffffffffffffffffffffffffffffffffffffff168173ffffffffffffffffffffffffffffffffffffffff16141562000eb9576040517f08c379a000000000000000000000000000000000000000000000000000000000815260040162000eb0906200161e565b60405180910390fd5b62000ec48162000ee7565b50565b6000818362000ed7919062001790565b905092915050565b600033905090565b60008060009054906101000a900473ffffffffffffffffffffffffffffffffffffffff169050816000806101000a81548173ffffffffffffffffffffffffffffffffffffffff021916908373ffffffffffffffffffffffffffffffffffffffff1602179055508173ffffffffffffffffffffffffffffffffffffffff168173ffffffffffffffffffffffffffffffffffffffff167f8be0079c531659141344cd1fd0a4f28419497f9722a3daafe3b4186f6b6457e060405160405180910390a35050565b6000818362000fbb9190620017ed565b905092915050565b6000818362000fd3919062001906565b905092915050565b600080600080600080600160009054906101000a900473ffffffffffffffffffffffffffffffffffffffff1673ffffffffffffffffffffffffffffffffffffffff1663feaf968c6040518163ffffffff1660e01b815260040160a06040518083038186803b1580156200104d57600080fd5b505afa15801562001062573d6000803e3d6000fd5b505050506040513d601f19601f8201168201806040525081019062001088919062001296565b9450945094509450945060008211620010d8576040517f08c379a0000000000000000000000000000000000000000000000000000000008152600401620010cf90620016ea565b60405180910390fd5b839550505050505090565b6001816000016000828254019250508190555050565b6040518060200160405280600081525090565b6117248062001c0a83390190565b6000813590506200112b8162001b87565b92915050565b600081519050620011428162001ba1565b92915050565b600081519050620011598162001bbb565b92915050565b600081359050620011708162001bd5565b92915050565b600081519050620011878162001bd5565b92915050565b6000815190506200119e8162001bef565b92915050565b600060208284031215620011bd57620011bc620019cb565b5b6000620011cd848285016200111a565b91505092915050565b600060208284031215620011ef57620011ee620019cb565b5b6000620011ff8482850162001131565b91505092915050565b600060208284031215620012215762001220620019cb565b5b6000620012318482850162001176565b91505092915050565b600080600060608486031215620012565762001255620019cb565b5b600062001266868287016200115f565b935050602062001279868287016200115f565b92505060406200128c868287016200115f565b9150509250925092565b600080600080600060a08688031215620012b557620012b4620019cb565b5b6000620012c5888289016200118d565b9550506020620012d88882890162001148565b9450506040620012eb8882890162001176565b9350506060620012fe8882890162001176565b925050608062001311888289016200118d565b9150509295509295909350565b60006200132c838362001338565b60208301905092915050565b62001343816200184e565b82525050565b62001354816200184e565b82525050565b6000620013678262001756565b6200137381856200176e565b9350620013808362001746565b8060005b83811015620013b75781516200139b88826200131e565b9750620013a88362001761565b92505060018101905062001384565b5085935050505092915050565b620013cf8162001862565b82525050565b6000620013e46026836200177f565b9150620013f182620019d0565b604082019050919050565b60006200140b6035836200177f565b9150620014188262001a1f565b604082019050919050565b600062001432602c836200177f565b91506200143f8262001a6e565b604082019050919050565b600062001459601e836200177f565b9150620014668262001abd565b602082019050919050565b6000620014806023836200177f565b91506200148d8262001ae6565b604082019050919050565b6000620014a76020836200177f565b9150620014b48262001b35565b602082019050919050565b6000620014ce6012836200177f565b9150620014db8262001b5e565b602082019050919050565b602082016000820151620014fe600085018262001504565b50505050565b6200150f8162001898565b82525050565b620015208162001898565b82525050565b60006020820190506200153d600083018462001349565b92915050565b60006060820190506200155a600083018662001349565b62001569602083018562001515565b62001578604083018462001515565b949350505050565b600060a08201905062001597600083018862001349565b620015a6602083018762001515565b620015b5604083018662001515565b620015c4606083018562001515565b620015d3608083018462001515565b9695505050505050565b60006020820190508181036000830152620015f981846200135a565b905092915050565b6000602082019050620016186000830184620013c4565b92915050565b600060208201905081810360008301526200163981620013d5565b9050919050565b600060208201905081810360008301526200165b81620013fc565b9050919050565b600060208201905081810360008301526200167d8162001423565b9050919050565b600060208201905081810360008301526200169f816200144a565b9050919050565b60006020820190508181036000830152620016c18162001471565b9050919050565b60006020820190508181036000830152620016e38162001498565b9050919050565b600060208201905081810360008301526200170581620014bf565b9050919050565b6000602082019050620017236000830184620014e6565b92915050565b600060208201905062001740600083018462001515565b92915050565b6000819050602082019050919050565b600081519050919050565b6000602082019050919050565b600082825260208201905092915050565b600082825260208201905092915050565b60006200179d8262001898565b9150620017aa8362001898565b9250827fffffffffffffffffffffffffffffffffffffffffffffffffffffffffffffffff03821115620017e257620017e16200193e565b5b828201905092915050565b6000620017fa8262001898565b9150620018078362001898565b9250817fffffffffffffffffffffffffffffffffffffffffffffffffffffffffffffffff04831182151516156200184357620018426200193e565b5b828202905092915050565b60006200185b8262001878565b9050919050565b60008115159050919050565b6000819050919050565b600073ffffffffffffffffffffffffffffffffffffffff82169050919050565b6000819050919050565b600069ffffffffffffffffffff82169050919050565b6000620018c58262001898565b91507fffffffffffffffffffffffffffffffffffffffffffffffffffffffffffffffff821415620018fb57620018fa6200193e565b5b600182019050919050565b6000620019138262001898565b9150620019208362001898565b9250826200193357620019326200196d565b5b828206905092915050565b7f4e487b7100000000000000000000000000000000000000000000000000000000600052601160045260246000fd5b7f4e487b7100000000000000000000000000000000000000000000000000000000600052601260045260246000fd5b7f4e487b7100000000000000000000000000000000000000000000000000000000600052603260045260246000fd5b600080fd5b7f4f776e61626c653a206e6577206f776e657220697320746865207a65726f206160008201527f6464726573730000000000000000000000000000000000000000000000000000602082015250565b7f5072656d69756d206d7573742062652070616964206174207468652074696d6560008201527f206f6620636f6e7472616374206372656174696f6e0000000000000000000000602082015250565b7f436f766572206475726174696f6e206d75737420626520696e206d756c69706c60008201527f65206f6620333020646179730000000000000000000000000000000000000000602082015250565b7f5072656d69756d206d7573742062652067726561746572207468616e20300000600082015250565b7f5061796f75742076616c7565206d75737420626520677265617465722074686160008201527f6e20300000000000000000000000000000000000000000000000000000000000602082015250565b7f4f776e61626c653a2063616c6c6572206973206e6f7420746865206f776e6572600082015250565b7f526f756e64206e6f7420636f6d706c6574650000000000000000000000000000600082015250565b62001b92816200184e565b811462001b9e57600080fd5b50565b62001bac8162001862565b811462001bb857600080fd5b50565b62001bc6816200186e565b811462001bd257600080fd5b50565b62001be08162001898565b811462001bec57600080fd5b50565b62001bfa81620018a2565b811462001c0657600080fd5b5056fe60806040526000600960016101000a81548160ff0219169083151502179055506000600a5542600b556000600c553480156200003a57600080fd5b506040516200172438038062001724833981810160405281019062000060919062000325565b62000080620000746200022b60201b60201c565b6200023360201b60201c565b730fcbaeba1bd0ebf3cfed672c3e98b4aa76da9546600160006101000a81548173ffffffffffffffffffffffffffffffffffffffff021916908373ffffffffffffffffffffffffffffffffffffffff16021790555033600260006101000a81548173ffffffffffffffffffffffffffffffffffffffff021916908373ffffffffffffffffffffffffffffffffffffffff16021790555084600360006101000a81548173ffffffffffffffffffffffffffffffffffffffff021916908373ffffffffffffffffffffffffffffffffffffffff160217905550426004819055508360058190555082600681905550816007819055506001600960006101000a81548160ff021916908315150217905550806008819055507f0203790cae2ea31823a6382172bd46011fcfbab29b22bb78b4b2f266febf6072600260009054906101000a900473ffffffffffffffffffffffffffffffffffffffff16600360009054906101000a900473ffffffffffffffffffffffffffffffffffffffff1660055460065460075460405162000218959493929190620003cf565b60405180910390a15050505050620004a3565b600033905090565b60008060009054906101000a900473ffffffffffffffffffffffffffffffffffffffff169050816000806101000a81548173ffffffffffffffffffffffffffffffffffffffff021916908373ffffffffffffffffffffffffffffffffffffffff1602179055508173ffffffffffffffffffffffffffffffffffffffff168173ffffffffffffffffffffffffffffffffffffffff167f8be0079c531659141344cd1fd0a4f28419497f9722a3daafe3b4186f6b6457e060405160405180910390a35050565b60008151905062000308816200046f565b92915050565b6000815190506200031f8162000489565b92915050565b600080600080600060a086880312156200034457620003436200046a565b5b60006200035488828901620002f7565b955050602062000367888289016200030e565b94505060406200037a888289016200030e565b93505060606200038d888289016200030e565b9250506080620003a0888289016200030e565b9150509295509295909350565b620003b8816200042c565b82525050565b620003c98162000460565b82525050565b600060a082019050620003e66000830188620003ad565b620003f56020830187620003ad565b620004046040830186620003be565b620004136060830185620003be565b620004226080830184620003be565b9695505050505050565b6000620004398262000440565b9050919050565b600073ffffffffffffffffffffffffffffffffffffffff82169050919050565b6000819050919050565b600080fd5b6200047a816200042c565b81146200048657600080fd5b50565b620004948162000460565b8114620004a057600080fd5b50565b61127180620004b36000396000f3fe608060405234801561001057600080fd5b50600436106101005760003560e01c8063ad2e8c9b11610097578063dbc837c511610066578063dbc837c514610245578063dcbacd1114610263578063e3ea4ef214610281578063f2fde38b1461029f57610100565b8063ad2e8c9b146101cd578063b0b30fee146101eb578063c032846b14610209578063c97440291461022757610100565b80635fdc6281116100d35780635fdc62811461017d578063715018a61461019b5780638da5cb5b146101a5578063a241c089146101c357610100565b80630f76c11414610105578063243d9a5d146101235780633fad18341461014157806359dc735c1461015f575b600080fd5b61010d6102bb565b60405161011a9190610e83565b60405180910390f35b61012b6102c5565b6040516101389190610e83565b60405180910390f35b6101496102cf565b6040516101569190610e83565b60405180910390f35b6101676102d9565b6040516101749190610dcd565b60405180910390f35b610185610303565b6040516101929190610e83565b60405180910390f35b6101a3610308565b005b6101ad610390565b6040516101ba9190610dcd565b60405180910390f35b6101cb6103b9565b005b6101d5610514565b6040516101e29190610e83565b60405180910390f35b6101f361051e565b6040516102009190610de8565b60405180910390f35b610211610535565b60405161021e9190610de8565b60405180910390f35b61022f61054c565b60405161023c9190610e83565b60405180910390f35b61024d610556565b60405161025a9190610dcd565b60405180910390f35b61026b61057c565b6040516102789190610e83565b60405180910390f35b610289610586565b6040516102969190610e83565b60405180910390f35b6102b960048036038101906102b49190610c6c565b610590565b005b6000600a54905090565b6000600754905090565b6000600c54905090565b6000600360009054906101000a900473ffffffffffffffffffffffffffffffffffffffff16905090565b603c81565b610310610688565b73ffffffffffffffffffffffffffffffffffffffff1661032e610390565b73ffffffffffffffffffffffffffffffffffffffff1614610384576040517f08c379a000000000000000000000000000000000000000000000000000000000815260040161037b90610e43565b60405180910390fd5b61038e6000610690565b565b60008060009054906101000a900473ffffffffffffffffffffffffffffffffffffffff16905090565b60011515600960009054906101000a900460ff1615151461040f576040517f08c379a000000000000000000000000000000000000000000000000000000000815260040161040690610e23565b60405180910390fd5b610417610688565b73ffffffffffffffffffffffffffffffffffffffff16610435610390565b73ffffffffffffffffffffffffffffffffffffffff161461048b576040517f08c379a000000000000000000000000000000000000000000000000000000000815260040161048290610e43565b60405180910390fd5b610493610754565b600960009054906101000a900460ff1615610512576104b061094a565b600a8190555042600b819055506001600c60008282546104d09190610f0f565b9250508190555061050060646104f2600a600854610a4b90919063ffffffff16565b610a6190919063ffffffff16565b600a541161051157610510610a77565b5b5b565b6000600554905090565b6000600960019054906101000a900460ff16905090565b6000600960009054906101000a900460ff16905090565b6000600654905090565b600260009054906101000a900473ffffffffffffffffffffffffffffffffffffffff1681565b6000600454905090565b6000600b54905090565b610598610688565b73ffffffffffffffffffffffffffffffffffffffff166105b6610390565b73ffffffffffffffffffffffffffffffffffffffff161461060c576040517f08c379a000000000000000000000000000000000000000000000000000000000815260040161060390610e43565b60405180910390fd5b600073ffffffffffffffffffffffffffffffffffffffff168173ffffffffffffffffffffffffffffffffffffffff16141561067c576040517f08c379a000000000000000000000000000000000000000000000000000000000815260040161067390610e03565b60405180910390fd5b61068581610690565b50565b600033905090565b60008060009054906101000a900473ffffffffffffffffffffffffffffffffffffffff169050816000806101000a81548173ffffffffffffffffffffffffffffffffffffffff021916908373ffffffffffffffffffffffffffffffffffffffff1602179055508173ffffffffffffffffffffffffffffffffffffffff168173ffffffffffffffffffffffffffffffffffffffff167f8be0079c531659141344cd1fd0a4f28419497f9722a3daafe3b4186f6b6457e060405160405180910390a35050565b426005546004546107659190610f0f565b1015610948576002610783603c600554610a6190919063ffffffff16565b61078d9190610ff0565b600c541061080357600260009054906101000a900473ffffffffffffffffffffffffffffffffffffffff1673ffffffffffffffffffffffffffffffffffffffff166108fc479081150290604051600060405180830381858888f193505050501580156107fd573d6000803e3d6000fd5b506108f3565b600360009054906101000a900473ffffffffffffffffffffffffffffffffffffffff1673ffffffffffffffffffffffffffffffffffffffff166108fc6006549081150290604051600060405180830381858888f1935050505015801561086d573d6000803e3d6000fd5b50600260009054906101000a900473ffffffffffffffffffffffffffffffffffffffff1673ffffffffffffffffffffffffffffffffffffffff166108fc479081150290604051600060405180830381858888f193505050501580156108d6573d6000803e3d6000fd5b506001600960016101000a81548160ff0219169083151502179055505b6000600960006101000a81548160ff0219169083151502179055507f71d9f146944417dd66115a997376d9878c3618f396c331a6c3aa82ce653eae14424760405161093f929190610e9e565b60405180910390a15b565b600080600080600080600160009054906101000a900473ffffffffffffffffffffffffffffffffffffffff1673ffffffffffffffffffffffffffffffffffffffff1663feaf968c6040518163ffffffff1660e01b815260040160a06040518083038186803b1580156109bb57600080fd5b505afa1580156109cf573d6000803e3d6000fd5b505050506040513d601f19601f820116820180604052508101906109f39190610c99565b9450945094509450945060008211610a40576040517f08c379a0000000000000000000000000000000000000000000000000000000008152600401610a3790610e63565b60405180910390fd5b839550505050505090565b60008183610a599190610f96565b905092915050565b60008183610a6f9190610f65565b905092915050565b60011515600960009054906101000a900460ff16151514610acd576040517f08c379a0000000000000000000000000000000000000000000000000000000008152600401610ac490610e23565b60405180910390fd5b600360009054906101000a900473ffffffffffffffffffffffffffffffffffffffff1673ffffffffffffffffffffffffffffffffffffffff166108fc6006549081150290604051600060405180830381858888f19350505050158015610b37573d6000803e3d6000fd5b50600260009054906101000a900473ffffffffffffffffffffffffffffffffffffffff1673ffffffffffffffffffffffffffffffffffffffff166108fc479081150290604051600060405180830381858888f19350505050158015610ba0573d6000803e3d6000fd5b507fd8874104029b491ba57b1b4875bd4ba8d4a98bf0261e1fdfac96db44022f95f842600754600a54604051610bd893929190610ec7565b60405180910390a16000600960006101000a81548160ff0219169083151502179055506001600960016101000a81548160ff021916908315150217905550565b600081359050610c27816111df565b92915050565b600081519050610c3c816111f6565b92915050565b600081519050610c518161120d565b92915050565b600081519050610c6681611224565b92915050565b600060208284031215610c8257610c816110ea565b5b6000610c9084828501610c18565b91505092915050565b600080600080600060a08688031215610cb557610cb46110ea565b5b6000610cc388828901610c57565b9550506020610cd488828901610c2d565b9450506040610ce588828901610c42565b9350506060610cf688828901610c42565b9250506080610d0788828901610c57565b9150509295509295909350565b610d1d81611024565b82525050565b610d2c81611036565b82525050565b6000610d3f602683610efe565b9150610d4a826110ef565b604082019050919050565b6000610d62603183610efe565b9150610d6d8261113e565b604082019050919050565b6000610d85602083610efe565b9150610d908261118d565b602082019050919050565b6000610da8601283610efe565b9150610db3826111b6565b602082019050919050565b610dc78161106c565b82525050565b6000602082019050610de26000830184610d14565b92915050565b6000602082019050610dfd6000830184610d23565b92915050565b60006020820190508181036000830152610e1c81610d32565b9050919050565b60006020820190508181036000830152610e3c81610d55565b9050919050565b60006020820190508181036000830152610e5c81610d78565b9050919050565b60006020820190508181036000830152610e7c81610d9b565b9050919050565b6000602082019050610e986000830184610dbe565b92915050565b6000604082019050610eb36000830185610dbe565b610ec06020830184610dbe565b9392505050565b6000606082019050610edc6000830186610dbe565b610ee96020830185610dbe565b610ef66040830184610dbe565b949350505050565b600082825260208201905092915050565b6000610f1a8261106c565b9150610f258361106c565b9250827fffffffffffffffffffffffffffffffffffffffffffffffffffffffffffffffff03821115610f5a57610f5961108c565b5b828201905092915050565b6000610f708261106c565b9150610f7b8361106c565b925082610f8b57610f8a6110bb565b5b828204905092915050565b6000610fa18261106c565b9150610fac8361106c565b9250817fffffffffffffffffffffffffffffffffffffffffffffffffffffffffffffffff0483118215151615610fe557610fe461108c565b5b828202905092915050565b6000610ffb8261106c565b91506110068361106c565b9250828210156110195761101861108c565b5b828203905092915050565b600061102f8261104c565b9050919050565b60008115159050919050565b6000819050919050565b600073ffffffffffffffffffffffffffffffffffffffff82169050919050565b6000819050919050565b600069ffffffffffffffffffff82169050919050565b7f4e487b7100000000000000000000000000000000000000000000000000000000600052601160045260246000fd5b7f4e487b7100000000000000000000000000000000000000000000000000000000600052601260045260246000fd5b600080fd5b7f4f776e61626c653a206e6577206f776e657220697320746865207a65726f206160008201527f6464726573730000000000000000000000000000000000000000000000000000602082015250565b7f436f6e74726163742068617320656e6465642c2063616e7420696e746572616360008201527f74207769746820697420616e796d6f7265000000000000000000000000000000602082015250565b7f4f776e61626c653a2063616c6c6572206973206e6f7420746865206f776e6572600082015250565b7f526f756e64206e6f7420636f6d706c6574650000000000000000000000000000600082015250565b6111e881611024565b81146111f357600080fd5b50565b6111ff81611042565b811461120a57600080fd5b50565b6112168161106c565b811461122157600080fd5b50565b61122d81611076565b811461123857600080fd5b5056fea2646970667358221220e99a665d7b6d30efee76c2007cc05ca2fe3d25ceaf6948eb162fa657de8cb5dc64736f6c63430008070033a2646970667358221220cef45c9e786af2e4460d5a1199840cf706179e03b58c725d9fb1b09eb5c21e6764736f6c63430008070033",
  "immutableReferences": {},
  "source": "// SPDX-License-Identifier: MIT\npragma solidity ^0.8.7;\n\nimport \"@openzeppelin/contracts/access/Ownable.sol\";\nimport \"@openzeppelin/contracts/utils/math/SafeMath.sol\";\nimport \"@chainlink/contracts/src/v0.8/interfaces/AggregatorInterface.sol\";\nimport \"@chainlink/contracts/src/v0.8/interfaces/AggregatorV3Interface.sol\";\nimport \"@openzeppelin/contracts/utils/Counters.sol\";\nimport \"./InsuranceContract.sol\";\n\ncontract InsuranceProvider is Ownable {\n  using SafeMath for uint;\n  using Counters for Counters.Counter;\n  \n  AggregatorV3Interface internal priceFeed;\n  \n  uint public constant DAY_IN_SECONDS = 60; //Seconds in a day. 60 for testing, 86400 for Production\n  \n  Counters.Counter private _contractCount;\n  address[] contracts;\n\n  mapping(address => address[]) clientContract;\n\n  constructor() {\n    priceFeed = AggregatorV3Interface(0x0FcBAebA1BD0EbF3cFed672C3e98B4aa76DA9546);\n  }\n    \n  event contractCreated(address _insuranceContract, uint _premium, uint _totalCover);\n    \n  function newContract(uint _duration, uint _premium, uint _payoutValue) public payable returns(address) {\n    require(_duration.mod(DAY_IN_SECONDS.mul(30)) == 0, 'Cover duration must be in muliple of 30 days');\n    require(_payoutValue >= 0, 'Payout value must be greater than 0');\n    require(_premium > 0, 'Premium must be greater than 0');\n    require(msg.value == _premium, 'Premium must be paid at the time of contract creation');\n        \n    uint _collateralValue = uint(getLatestPrice()); //Calculate collateral value based on current price;\n        \n    address contractAddr = address(new InsuranceContract(msg.sender, _duration, _premium, _payoutValue, _collateralValue));\n\n    _contractCount.increment();\n    contracts.push(contractAddr);\n    clientContract[msg.sender].push(contractAddr);\n\n    emit contractCreated(contractAddr, msg.value, _payoutValue);\n\n    return contractAddr;\n  }\n    \n  function getClientContracts() external view returns (address[] memory) {\n    return clientContract[msg.sender];\n  }\n\n  function getContractCount() external view returns(Counters.Counter memory) {\n    return _contractCount;\n  }\n\n  function getTotalContractValue() external view returns(uint) {\n    uint totalContractValue = 0;\n    for (uint256 i = 0; i < contracts.length; i++) {\n      InsuranceContract insuranceContract = InsuranceContract(contracts[i]);\n      totalContractValue = totalContractValue.add(insuranceContract.getPayoutValue());\n    }\n\n    return totalContractValue;\n  }\n\n  function getActiveContractCount() external view returns(uint) {\n    uint activeContractCount = 0;\n    for (uint256 i = 0; i < contracts.length; i++) {\n      InsuranceContract insuranceContract = InsuranceContract(contracts[i]);\n      bool isActive = insuranceContract.getContractStatus();\n\n      if(isActive) {\n        activeContractCount += 1;\n      }\n    }\n\n    return activeContractCount;\n  }\n\n  function updateContract(address _contract) external {\n    InsuranceContract insuranceContract = InsuranceContract(_contract);\n    insuranceContract.updateContract();\n  }\n\n  function getContractCurrentValue(address _contract) external view returns(uint) {\n    InsuranceContract insuranceContract = InsuranceContract(_contract);\n    return insuranceContract.getCurrentValue();\n  }\n\n  function getContractRequestCount(address _contract) external view returns(uint) {\n    InsuranceContract insuranceContract = InsuranceContract(_contract);\n    return insuranceContract.getRequestCount();\n  }\n\n  function getInsurer() external view returns (address) {\n    return address(this);\n  }\n\n  function getContractStatus(address _address) external view returns (bool) {\n    InsuranceContract insuranceContract = InsuranceContract(_address);\n    return insuranceContract.getContractStatus();\n  }\n\n  function getContractBalance() external view returns (uint) {\n    return address(this).balance;\n  }\n\n  function endContractProvider() external onlyOwner() {\n    selfdestruct(payable(owner()));\n  }\n\n  function getLatestPrice() internal view returns (int) {\n    (\n      uint80 roundID,\n      int price,\n      uint startedAt,\n      uint timeStamp,\n      uint80 answeredInRound\n    ) = priceFeed.latestRoundData();\n    require(timeStamp > 0, \"Round not complete\");\n\n    return price;\n  }\n}",
  "sourcePath": "C:\\Users\\Chaitanya\\Documents\\Projects\\nervos-insure\\contracts\\InsuranceProvider.sol",
  "compiler": {
    "name": "solc",
    "version": "0.8.7+commit.e28d00a7.Emscripten.clang"
  },
  "schemaVersion": "3.4.3",
  "updatedAt": "2021-10-03T05:42:54.316Z",
  "networkType": "ethereum",
  "devdoc": {
    "kind": "dev",
    "methods": {
      "owner()": {
        "details": "Returns the address of the current owner."
      },
      "renounceOwnership()": {
        "details": "Leaves the contract without owner. It will not be possible to call `onlyOwner` functions anymore. Can only be called by the current owner. NOTE: Renouncing ownership will leave the contract without an owner, thereby removing any functionality that is only available to the owner."
      },
      "transferOwnership(address)": {
        "details": "Transfers ownership of the contract to a new account (`newOwner`). Can only be called by the current owner."
      }
    },
    "version": 1
  },
  "userdoc": {
    "kind": "user",
    "methods": {},
    "version": 1
  }
}