{
  "contractName": "InsuranceProvider",
  "abi": [
    {
      "inputs": [],
      "stateMutability": "nonpayable",
      "type": "constructor"
    },
    {
      "anonymous": false,
      "inputs": [
        {
          "indexed": true,
          "internalType": "address",
          "name": "previousOwner",
          "type": "address"
        },
        {
          "indexed": true,
          "internalType": "address",
          "name": "newOwner",
          "type": "address"
        }
      ],
      "name": "OwnershipTransferred",
      "type": "event"
    },
    {
      "anonymous": false,
      "inputs": [
        {
          "indexed": false,
          "internalType": "address",
          "name": "_insuranceContract",
          "type": "address"
        },
        {
          "indexed": false,
          "internalType": "uint256",
          "name": "_premium",
          "type": "uint256"
        },
        {
          "indexed": false,
          "internalType": "uint256",
          "name": "_totalCover",
          "type": "uint256"
        }
      ],
      "name": "contractCreated",
      "type": "event"
    },
    {
      "inputs": [],
      "name": "DAY_IN_SECONDS",
      "outputs": [
        {
          "internalType": "uint256",
          "name": "",
          "type": "uint256"
        }
      ],
      "stateMutability": "view",
      "type": "function",
      "constant": true
    },
    {
      "inputs": [],
      "name": "insurer",
      "outputs": [
        {
          "internalType": "address",
          "name": "",
          "type": "address"
        }
      ],
      "stateMutability": "view",
      "type": "function",
      "constant": true
    },
    {
      "inputs": [],
      "name": "owner",
      "outputs": [
        {
          "internalType": "address",
          "name": "",
          "type": "address"
        }
      ],
      "stateMutability": "view",
      "type": "function",
      "constant": true
    },
    {
      "inputs": [],
      "name": "renounceOwnership",
      "outputs": [],
      "stateMutability": "nonpayable",
      "type": "function"
    },
    {
      "inputs": [
        {
          "internalType": "address",
          "name": "newOwner",
          "type": "address"
        }
      ],
      "name": "transferOwnership",
      "outputs": [],
      "stateMutability": "nonpayable",
      "type": "function"
    },
    {
      "inputs": [
        {
          "internalType": "uint256",
          "name": "_duration",
          "type": "uint256"
        },
        {
          "internalType": "uint256",
          "name": "_premium",
          "type": "uint256"
        },
        {
          "internalType": "uint256",
          "name": "_payoutValue",
          "type": "uint256"
        }
      ],
      "name": "newContract",
      "outputs": [
        {
          "internalType": "address",
          "name": "",
          "type": "address"
        }
      ],
      "stateMutability": "payable",
      "type": "function",
      "payable": true
    },
    {
      "inputs": [],
      "name": "getClientContract",
      "outputs": [
        {
          "internalType": "address",
          "name": "",
          "type": "address"
        }
      ],
      "stateMutability": "view",
      "type": "function",
      "constant": true
    },
    {
      "inputs": [
        {
          "internalType": "address",
          "name": "_contract",
          "type": "address"
        }
      ],
      "name": "updateContract",
      "outputs": [],
      "stateMutability": "nonpayable",
      "type": "function"
    },
    {
      "inputs": [
        {
          "internalType": "address",
          "name": "_contract",
          "type": "address"
        }
      ],
      "name": "getContractCurrentValue",
      "outputs": [
        {
          "internalType": "uint256",
          "name": "",
          "type": "uint256"
        }
      ],
      "stateMutability": "view",
      "type": "function",
      "constant": true
    },
    {
      "inputs": [
        {
          "internalType": "address",
          "name": "_contract",
          "type": "address"
        }
      ],
      "name": "getContractRequestCount",
      "outputs": [
        {
          "internalType": "uint256",
          "name": "",
          "type": "uint256"
        }
      ],
      "stateMutability": "view",
      "type": "function",
      "constant": true
    },
    {
      "inputs": [],
      "name": "getInsurer",
      "outputs": [
        {
          "internalType": "address",
          "name": "",
          "type": "address"
        }
      ],
      "stateMutability": "view",
      "type": "function",
      "constant": true
    },
    {
      "inputs": [
        {
          "internalType": "address",
          "name": "_address",
          "type": "address"
        }
      ],
      "name": "getContractStatus",
      "outputs": [
        {
          "internalType": "bool",
          "name": "",
          "type": "bool"
        }
      ],
      "stateMutability": "view",
      "type": "function",
      "constant": true
    },
    {
      "inputs": [],
      "name": "getContractBalance",
      "outputs": [
        {
          "internalType": "uint256",
          "name": "",
          "type": "uint256"
        }
      ],
      "stateMutability": "view",
      "type": "function",
      "constant": true
    },
    {
      "inputs": [],
      "name": "endContractProvider",
      "outputs": [],
      "stateMutability": "nonpayable",
      "type": "function"
    }
  ],
  "bytecode": "0x608060405234801561001057600080fd5b5061002d6100226100c860201b60201c565b6100d060201b60201c565b33600160006101000a81548173ffffffffffffffffffffffffffffffffffffffff021916908373ffffffffffffffffffffffffffffffffffffffff160217905550730fcbaeba1bd0ebf3cfed672c3e98b4aa76da9546600260006101000a81548173ffffffffffffffffffffffffffffffffffffffff021916908373ffffffffffffffffffffffffffffffffffffffff160217905550610194565b600033905090565b60008060009054906101000a900473ffffffffffffffffffffffffffffffffffffffff169050816000806101000a81548173ffffffffffffffffffffffffffffffffffffffff021916908373ffffffffffffffffffffffffffffffffffffffff1602179055508173ffffffffffffffffffffffffffffffffffffffff168173ffffffffffffffffffffffffffffffffffffffff167f8be0079c531659141344cd1fd0a4f28419497f9722a3daafe3b4186f6b6457e060405160405180910390a35050565b612b1e806101a36000396000f3fe608060405260043610620000f25760003560e01c80638da5cb5b116200008b578063dbc837c51162000061578063dbc837c514620002d9578063de8c89761462000309578063e3db17b8146200034d578063f2fde38b146200037b57620000f2565b80638da5cb5b1462000259578063a1219c421462000289578063c92ee4f614620002a357620000f2565b80635fdc628111620000cd5780635fdc6281146200019b5780636896c87014620001cb5780636f9fb98a146200020f578063715018a6146200023f57620000f2565b80630ceb943914620000f7578063125716d614620001275780635d0c1476146200016b575b600080fd5b3480156200010457600080fd5b506200010f620003a9565b6040516200011e919062000fb8565b60405180910390f35b3480156200013457600080fd5b506200015360048036038101906200014d919062000d96565b62000410565b6040516200016291906200106f565b60405180910390f35b3480156200017857600080fd5b5062000183620004a0565b60405162000192919062000fb8565b60405180910390f35b348015620001a857600080fd5b50620001b3620004ca565b604051620001c29190620010f2565b60405180910390f35b348015620001d857600080fd5b50620001f76004803603810190620001f1919062000d96565b620004cf565b604051620002069190620010f2565b60405180910390f35b3480156200021c57600080fd5b50620002276200055f565b604051620002369190620010f2565b60405180910390f35b3480156200024c57600080fd5b506200025762000567565b005b3480156200026657600080fd5b5062000271620005f8565b60405162000280919062000fb8565b60405180910390f35b3480156200029657600080fd5b50620002a162000621565b005b620002c16004803603810190620002bb919062000e2c565b620006df565b604051620002d0919062000fb8565b60405180910390f35b348015620002e657600080fd5b50620002f1620008ef565b60405162000300919062000fb8565b60405180910390f35b3480156200031657600080fd5b506200033560048036038101906200032f919062000d96565b62000915565b604051620003449190620010f2565b60405180910390f35b3480156200035a57600080fd5b5062000379600480360381019062000373919062000d96565b620009a5565b005b3480156200038857600080fd5b50620003a76004803603810190620003a1919062000d96565b62000a10565b005b6000600560003373ffffffffffffffffffffffffffffffffffffffff1673ffffffffffffffffffffffffffffffffffffffff16815260200190815260200160002060009054906101000a900473ffffffffffffffffffffffffffffffffffffffff16905090565b6000808290508073ffffffffffffffffffffffffffffffffffffffff1663c032846b6040518163ffffffff1660e01b815260040160206040518083038186803b1580156200045d57600080fd5b505afa15801562000472573d6000803e3d6000fd5b505050506040513d601f19601f8201168201806040525081019062000498919062000dc8565b915050919050565b6000600160009054906101000a900473ffffffffffffffffffffffffffffffffffffffff16905090565b603c81565b6000808290508073ffffffffffffffffffffffffffffffffffffffff16633fad18346040518163ffffffff1660e01b815260040160206040518083038186803b1580156200051c57600080fd5b505afa15801562000531573d6000803e3d6000fd5b505050506040513d601f19601f8201168201806040525081019062000557919062000dfa565b915050919050565b600047905090565b6200057162000b14565b73ffffffffffffffffffffffffffffffffffffffff1662000591620005f8565b73ffffffffffffffffffffffffffffffffffffffff1614620005ea576040517f08c379a0000000000000000000000000000000000000000000000000000000008152600401620005e190620010ae565b60405180910390fd5b620005f6600062000b1c565b565b60008060009054906101000a900473ffffffffffffffffffffffffffffffffffffffff16905090565b6200062b62000b14565b73ffffffffffffffffffffffffffffffffffffffff166200064b620005f8565b73ffffffffffffffffffffffffffffffffffffffff1614620006a4576040517f08c379a00000000000000000000000000000000000000000000000000000000081526004016200069b90620010ae565b60405180910390fd5b600160009054906101000a900473ffffffffffffffffffffffffffffffffffffffff1673ffffffffffffffffffffffffffffffffffffffff16ff5b6000620006eb62000b14565b73ffffffffffffffffffffffffffffffffffffffff166200070b620005f8565b73ffffffffffffffffffffffffffffffffffffffff161462000764576040517f08c379a00000000000000000000000000000000000000000000000000000000081526004016200075b90620010ae565b60405180910390fd5b60006200077062000be0565b90506000833387878786604051620007889062000cfe565b6200079895949392919062001012565b6040518091039082f0905080158015620007b6573d6000803e3d6000fd5b509050620007c5600362000ce8565b6004819080600181540180825580915050600190039060005260206000200160009091909190916101000a81548173ffffffffffffffffffffffffffffffffffffffff021916908373ffffffffffffffffffffffffffffffffffffffff16021790555080600560003373ffffffffffffffffffffffffffffffffffffffff1673ffffffffffffffffffffffffffffffffffffffff16815260200190815260200160002060006101000a81548173ffffffffffffffffffffffffffffffffffffffff021916908373ffffffffffffffffffffffffffffffffffffffff1602179055507fa44aa7756c3391a11525eeee40213754bf3aee2a051d2597433fb40572a47d76813486604051620008db9392919062000fd5565b60405180910390a180925050509392505050565b600160009054906101000a900473ffffffffffffffffffffffffffffffffffffffff1681565b6000808290508073ffffffffffffffffffffffffffffffffffffffff16630f76c1146040518163ffffffff1660e01b815260040160206040518083038186803b1580156200096257600080fd5b505afa15801562000977573d6000803e3d6000fd5b505050506040513d601f19601f820116820180604052508101906200099d919062000dfa565b915050919050565b60008190508073ffffffffffffffffffffffffffffffffffffffff1663a241c0896040518163ffffffff1660e01b8152600401600060405180830381600087803b158015620009f357600080fd5b505af115801562000a08573d6000803e3d6000fd5b505050505050565b62000a1a62000b14565b73ffffffffffffffffffffffffffffffffffffffff1662000a3a620005f8565b73ffffffffffffffffffffffffffffffffffffffff161462000a93576040517f08c379a000000000000000000000000000000000000000000000000000000000815260040162000a8a90620010ae565b60405180910390fd5b600073ffffffffffffffffffffffffffffffffffffffff168173ffffffffffffffffffffffffffffffffffffffff16141562000b06576040517f08c379a000000000000000000000000000000000000000000000000000000000815260040162000afd906200108c565b60405180910390fd5b62000b118162000b1c565b50565b600033905090565b60008060009054906101000a900473ffffffffffffffffffffffffffffffffffffffff169050816000806101000a81548173ffffffffffffffffffffffffffffffffffffffff021916908373ffffffffffffffffffffffffffffffffffffffff1602179055508173ffffffffffffffffffffffffffffffffffffffff168173ffffffffffffffffffffffffffffffffffffffff167f8be0079c531659141344cd1fd0a4f28419497f9722a3daafe3b4186f6b6457e060405160405180910390a35050565b600080600080600080600260009054906101000a900473ffffffffffffffffffffffffffffffffffffffff1673ffffffffffffffffffffffffffffffffffffffff1663feaf968c6040518163ffffffff1660e01b815260040160a06040518083038186803b15801562000c5257600080fd5b505afa15801562000c67573d6000803e3d6000fd5b505050506040513d601f19601f8201168201806040525081019062000c8d919062000e88565b945094509450945094506000821162000cdd576040517f08c379a000000000000000000000000000000000000000000000000000000000815260040162000cd490620010d0565b60405180910390fd5b839550505050505090565b6001816000016000828254019250508190555050565b61183680620012b383390190565b60008135905062000d1d8162001230565b92915050565b60008151905062000d34816200124a565b92915050565b60008151905062000d4b8162001264565b92915050565b60008135905062000d62816200127e565b92915050565b60008151905062000d79816200127e565b92915050565b60008151905062000d908162001298565b92915050565b60006020828403121562000daf5762000dae6200118a565b5b600062000dbf8482850162000d0c565b91505092915050565b60006020828403121562000de15762000de06200118a565b5b600062000df18482850162000d23565b91505092915050565b60006020828403121562000e135762000e126200118a565b5b600062000e238482850162000d68565b91505092915050565b60008060006060848603121562000e485762000e476200118a565b5b600062000e588682870162000d51565b935050602062000e6b8682870162000d51565b925050604062000e7e8682870162000d51565b9150509250925092565b600080600080600060a0868803121562000ea75762000ea66200118a565b5b600062000eb78882890162000d7f565b955050602062000eca8882890162000d3a565b945050604062000edd8882890162000d68565b935050606062000ef08882890162000d68565b925050608062000f038882890162000d7f565b9150509295509295909350565b62000f1b8162001120565b82525050565b62000f2c8162001134565b82525050565b600062000f416026836200110f565b915062000f4e826200118f565b604082019050919050565b600062000f686020836200110f565b915062000f7582620011de565b602082019050919050565b600062000f8f6012836200110f565b915062000f9c8262001207565b602082019050919050565b62000fb2816200116a565b82525050565b600060208201905062000fcf600083018462000f10565b92915050565b600060608201905062000fec600083018662000f10565b62000ffb602083018562000fa7565b6200100a604083018462000fa7565b949350505050565b600060a08201905062001029600083018862000f10565b62001038602083018762000fa7565b62001047604083018662000fa7565b62001056606083018562000fa7565b62001065608083018462000fa7565b9695505050505050565b600060208201905062001086600083018462000f21565b92915050565b60006020820190508181036000830152620010a78162000f32565b9050919050565b60006020820190508181036000830152620010c98162000f59565b9050919050565b60006020820190508181036000830152620010eb8162000f80565b9050919050565b600060208201905062001109600083018462000fa7565b92915050565b600082825260208201905092915050565b60006200112d826200114a565b9050919050565b60008115159050919050565b6000819050919050565b600073ffffffffffffffffffffffffffffffffffffffff82169050919050565b6000819050919050565b600069ffffffffffffffffffff82169050919050565b600080fd5b7f4f776e61626c653a206e6577206f776e657220697320746865207a65726f206160008201527f6464726573730000000000000000000000000000000000000000000000000000602082015250565b7f4f776e61626c653a2063616c6c6572206973206e6f7420746865206f776e6572600082015250565b7f526f756e64206e6f7420636f6d706c6574650000000000000000000000000000600082015250565b6200123b8162001120565b81146200124757600080fd5b50565b620012558162001134565b81146200126157600080fd5b50565b6200126f8162001140565b81146200127b57600080fd5b50565b62001289816200116a565b81146200129557600080fd5b50565b620012a38162001174565b8114620012af57600080fd5b5056fe60806040526000600960016101000a81548160ff0219169083151502179055506000600a5542600b556000600c55604051620018363803806200183683398181016040528101906200005291906200035d565b62000072620000666200026360201b60201c565b6200026b60201b60201c565b730fcbaeba1bd0ebf3cfed672c3e98b4aa76da9546600160006101000a81548173ffffffffffffffffffffffffffffffffffffffff021916908373ffffffffffffffffffffffffffffffffffffffff160217905550813410156200010d576040517f08c379a000000000000000000000000000000000000000000000000000000000815260040162000104906200048b565b60405180910390fd5b33600260006101000a81548173ffffffffffffffffffffffffffffffffffffffff021916908373ffffffffffffffffffffffffffffffffffffffff16021790555084600360006101000a81548173ffffffffffffffffffffffffffffffffffffffff021916908373ffffffffffffffffffffffffffffffffffffffff160217905550426004819055508360058190555082600681905550816007819055506001600960006101000a81548160ff021916908315150217905550806008819055507f0203790cae2ea31823a6382172bd46011fcfbab29b22bb78b4b2f266febf6072600260009054906101000a900473ffffffffffffffffffffffffffffffffffffffff16600360009054906101000a900473ffffffffffffffffffffffffffffffffffffffff16600554600654600754604051620002509594939291906200042e565b60405180910390a1505050505062000584565b600033905090565b60008060009054906101000a900473ffffffffffffffffffffffffffffffffffffffff169050816000806101000a81548173ffffffffffffffffffffffffffffffffffffffff021916908373ffffffffffffffffffffffffffffffffffffffff1602179055508173ffffffffffffffffffffffffffffffffffffffff168173ffffffffffffffffffffffffffffffffffffffff167f8be0079c531659141344cd1fd0a4f28419497f9722a3daafe3b4186f6b6457e060405160405180910390a35050565b600081519050620003408162000550565b92915050565b60008151905062000357816200056a565b92915050565b600080600080600060a086880312156200037c576200037b620004fc565b5b60006200038c888289016200032f565b95505060206200039f8882890162000346565b9450506040620003b28882890162000346565b9350506060620003c58882890162000346565b9250506080620003d88882890162000346565b9150509295509295909350565b620003f081620004be565b82525050565b600062000405602183620004ad565b9150620004128262000501565b604082019050919050565b6200042881620004f2565b82525050565b600060a082019050620004456000830188620003e5565b620004546020830187620003e5565b6200046360408301866200041d565b6200047260608301856200041d565b6200048160808301846200041d565b9695505050505050565b60006020820190508181036000830152620004a681620003f6565b9050919050565b600082825260208201905092915050565b6000620004cb82620004d2565b9050919050565b600073ffffffffffffffffffffffffffffffffffffffff82169050919050565b6000819050919050565b600080fd5b7f4e6f7420656e6f7567682066756e64732073656e7420746f20636f6e7472616360008201527f7400000000000000000000000000000000000000000000000000000000000000602082015250565b6200055b81620004be565b81146200056757600080fd5b50565b6200057581620004f2565b81146200058157600080fd5b50565b6112a280620005946000396000f3fe608060405234801561001057600080fd5b506004361061010b5760003560e01c8063a241c089116100a2578063c974402911610071578063c974402914610250578063dbc837c51461026e578063dcbacd111461028c578063e3ea4ef2146102aa578063f2fde38b146102c85761010b565b8063a241c089146101ec578063ad2e8c9b146101f6578063b0b30fee14610214578063c032846b146102325761010b565b80635fdc6281116100de5780635fdc6281146101885780636f9fb98a146101a6578063715018a6146101c45780638da5cb5b146101ce5761010b565b80630f76c11414610110578063243d9a5d1461012e5780633fad18341461014c57806359dc735c1461016a575b600080fd5b6101186102e4565b6040516101259190610eb4565b60405180910390f35b6101366102ee565b6040516101439190610eb4565b60405180910390f35b6101546102f8565b6040516101619190610eb4565b60405180910390f35b610172610302565b60405161017f9190610dfe565b60405180910390f35b61019061032c565b60405161019d9190610eb4565b60405180910390f35b6101ae610331565b6040516101bb9190610eb4565b60405180910390f35b6101cc610339565b005b6101d66103c1565b6040516101e39190610dfe565b60405180910390f35b6101f46103ea565b005b6101fe610545565b60405161020b9190610eb4565b60405180910390f35b61021c61054f565b6040516102299190610e19565b60405180910390f35b61023a610566565b6040516102479190610e19565b60405180910390f35b61025861057d565b6040516102659190610eb4565b60405180910390f35b610276610587565b6040516102839190610dfe565b60405180910390f35b6102946105ad565b6040516102a19190610eb4565b60405180910390f35b6102b26105b7565b6040516102bf9190610eb4565b60405180910390f35b6102e260048036038101906102dd9190610c9d565b6105c1565b005b6000600a54905090565b6000600754905090565b6000600c54905090565b6000600360009054906101000a900473ffffffffffffffffffffffffffffffffffffffff16905090565b603c81565b600047905090565b6103416106b9565b73ffffffffffffffffffffffffffffffffffffffff1661035f6103c1565b73ffffffffffffffffffffffffffffffffffffffff16146103b5576040517f08c379a00000000000000000000000000000000000000000000000000000000081526004016103ac90610e74565b60405180910390fd5b6103bf60006106c1565b565b60008060009054906101000a900473ffffffffffffffffffffffffffffffffffffffff16905090565b60011515600960009054906101000a900460ff16151514610440576040517f08c379a000000000000000000000000000000000000000000000000000000000815260040161043790610e54565b60405180910390fd5b6104486106b9565b73ffffffffffffffffffffffffffffffffffffffff166104666103c1565b73ffffffffffffffffffffffffffffffffffffffff16146104bc576040517f08c379a00000000000000000000000000000000000000000000000000000000081526004016104b390610e74565b60405180910390fd5b6104c4610785565b600960009054906101000a900460ff1615610543576104e161097b565b600a8190555042600b819055506001600c60008282546105019190610f40565b925050819055506105316064610523600a600854610a7c90919063ffffffff16565b610a9290919063ffffffff16565b600a541161054257610541610aa8565b5b5b565b6000600554905090565b6000600960019054906101000a900460ff16905090565b6000600960009054906101000a900460ff16905090565b6000600654905090565b600260009054906101000a900473ffffffffffffffffffffffffffffffffffffffff1681565b6000600454905090565b6000600b54905090565b6105c96106b9565b73ffffffffffffffffffffffffffffffffffffffff166105e76103c1565b73ffffffffffffffffffffffffffffffffffffffff161461063d576040517f08c379a000000000000000000000000000000000000000000000000000000000815260040161063490610e74565b60405180910390fd5b600073ffffffffffffffffffffffffffffffffffffffff168173ffffffffffffffffffffffffffffffffffffffff1614156106ad576040517f08c379a00000000000000000000000000000000000000000000000000000000081526004016106a490610e34565b60405180910390fd5b6106b6816106c1565b50565b600033905090565b60008060009054906101000a900473ffffffffffffffffffffffffffffffffffffffff169050816000806101000a81548173ffffffffffffffffffffffffffffffffffffffff021916908373ffffffffffffffffffffffffffffffffffffffff1602179055508173ffffffffffffffffffffffffffffffffffffffff168173ffffffffffffffffffffffffffffffffffffffff167f8be0079c531659141344cd1fd0a4f28419497f9722a3daafe3b4186f6b6457e060405160405180910390a35050565b426005546004546107969190610f40565b10156109795760026107b4603c600554610a9290919063ffffffff16565b6107be9190611021565b600c541061083457600260009054906101000a900473ffffffffffffffffffffffffffffffffffffffff1673ffffffffffffffffffffffffffffffffffffffff166108fc479081150290604051600060405180830381858888f1935050505015801561082e573d6000803e3d6000fd5b50610924565b600360009054906101000a900473ffffffffffffffffffffffffffffffffffffffff1673ffffffffffffffffffffffffffffffffffffffff166108fc6006549081150290604051600060405180830381858888f1935050505015801561089e573d6000803e3d6000fd5b50600260009054906101000a900473ffffffffffffffffffffffffffffffffffffffff1673ffffffffffffffffffffffffffffffffffffffff166108fc479081150290604051600060405180830381858888f19350505050158015610907573d6000803e3d6000fd5b506001600960016101000a81548160ff0219169083151502179055505b6000600960006101000a81548160ff0219169083151502179055507f71d9f146944417dd66115a997376d9878c3618f396c331a6c3aa82ce653eae144247604051610970929190610ecf565b60405180910390a15b565b600080600080600080600160009054906101000a900473ffffffffffffffffffffffffffffffffffffffff1673ffffffffffffffffffffffffffffffffffffffff1663feaf968c6040518163ffffffff1660e01b815260040160a06040518083038186803b1580156109ec57600080fd5b505afa158015610a00573d6000803e3d6000fd5b505050506040513d601f19601f82011682018060405250810190610a249190610cca565b9450945094509450945060008211610a71576040517f08c379a0000000000000000000000000000000000000000000000000000000008152600401610a6890610e94565b60405180910390fd5b839550505050505090565b60008183610a8a9190610fc7565b905092915050565b60008183610aa09190610f96565b905092915050565b60011515600960009054906101000a900460ff16151514610afe576040517f08c379a0000000000000000000000000000000000000000000000000000000008152600401610af590610e54565b60405180910390fd5b600360009054906101000a900473ffffffffffffffffffffffffffffffffffffffff1673ffffffffffffffffffffffffffffffffffffffff166108fc6006549081150290604051600060405180830381858888f19350505050158015610b68573d6000803e3d6000fd5b50600260009054906101000a900473ffffffffffffffffffffffffffffffffffffffff1673ffffffffffffffffffffffffffffffffffffffff166108fc479081150290604051600060405180830381858888f19350505050158015610bd1573d6000803e3d6000fd5b507fd8874104029b491ba57b1b4875bd4ba8d4a98bf0261e1fdfac96db44022f95f842600754600a54604051610c0993929190610ef8565b60405180910390a16000600960006101000a81548160ff0219169083151502179055506001600960016101000a81548160ff021916908315150217905550565b600081359050610c5881611210565b92915050565b600081519050610c6d81611227565b92915050565b600081519050610c828161123e565b92915050565b600081519050610c9781611255565b92915050565b600060208284031215610cb357610cb261111b565b5b6000610cc184828501610c49565b91505092915050565b600080600080600060a08688031215610ce657610ce561111b565b5b6000610cf488828901610c88565b9550506020610d0588828901610c5e565b9450506040610d1688828901610c73565b9350506060610d2788828901610c73565b9250506080610d3888828901610c88565b9150509295509295909350565b610d4e81611055565b82525050565b610d5d81611067565b82525050565b6000610d70602683610f2f565b9150610d7b82611120565b604082019050919050565b6000610d93603183610f2f565b9150610d9e8261116f565b604082019050919050565b6000610db6602083610f2f565b9150610dc1826111be565b602082019050919050565b6000610dd9601283610f2f565b9150610de4826111e7565b602082019050919050565b610df88161109d565b82525050565b6000602082019050610e136000830184610d45565b92915050565b6000602082019050610e2e6000830184610d54565b92915050565b60006020820190508181036000830152610e4d81610d63565b9050919050565b60006020820190508181036000830152610e6d81610d86565b9050919050565b60006020820190508181036000830152610e8d81610da9565b9050919050565b60006020820190508181036000830152610ead81610dcc565b9050919050565b6000602082019050610ec96000830184610def565b92915050565b6000604082019050610ee46000830185610def565b610ef16020830184610def565b9392505050565b6000606082019050610f0d6000830186610def565b610f1a6020830185610def565b610f276040830184610def565b949350505050565b600082825260208201905092915050565b6000610f4b8261109d565b9150610f568361109d565b9250827fffffffffffffffffffffffffffffffffffffffffffffffffffffffffffffffff03821115610f8b57610f8a6110bd565b5b828201905092915050565b6000610fa18261109d565b9150610fac8361109d565b925082610fbc57610fbb6110ec565b5b828204905092915050565b6000610fd28261109d565b9150610fdd8361109d565b9250817fffffffffffffffffffffffffffffffffffffffffffffffffffffffffffffffff0483118215151615611016576110156110bd565b5b828202905092915050565b600061102c8261109d565b91506110378361109d565b92508282101561104a576110496110bd565b5b828203905092915050565b60006110608261107d565b9050919050565b60008115159050919050565b6000819050919050565b600073ffffffffffffffffffffffffffffffffffffffff82169050919050565b6000819050919050565b600069ffffffffffffffffffff82169050919050565b7f4e487b7100000000000000000000000000000000000000000000000000000000600052601160045260246000fd5b7f4e487b7100000000000000000000000000000000000000000000000000000000600052601260045260246000fd5b600080fd5b7f4f776e61626c653a206e6577206f776e657220697320746865207a65726f206160008201527f6464726573730000000000000000000000000000000000000000000000000000602082015250565b7f436f6e74726163742068617320656e6465642c2063616e7420696e746572616360008201527f74207769746820697420616e796d6f7265000000000000000000000000000000602082015250565b7f4f776e61626c653a2063616c6c6572206973206e6f7420746865206f776e6572600082015250565b7f526f756e64206e6f7420636f6d706c6574650000000000000000000000000000600082015250565b61121981611055565b811461122457600080fd5b50565b61123081611073565b811461123b57600080fd5b50565b6112478161109d565b811461125257600080fd5b50565b61125e816110a7565b811461126957600080fd5b5056fea26469706673582212202d1ed21dab4ceabd657f9397f6f05f073f4fd2d336426eb96b0501d9e47d733b64736f6c63430008070033a2646970667358221220503d483e3b372c575f3d3a0c0b926552057e0f935eadcd338c14e526dcba18b664736f6c63430008070033",
  "immutableReferences": {},
  "source": "// SPDX-License-Identifier: MIT\npragma solidity ^0.8.7;\n\nimport \"@openzeppelin/contracts/access/Ownable.sol\";\nimport \"@openzeppelin/contracts/utils/math/SafeMath.sol\";\nimport \"@chainlink/contracts/src/v0.8/interfaces/AggregatorInterface.sol\";\nimport \"@chainlink/contracts/src/v0.8/interfaces/AggregatorV3Interface.sol\";\nimport \"@openzeppelin/contracts/utils/Counters.sol\";\nimport \"./InsuranceContract.sol\";\n\ncontract InsuranceProvider is Ownable {\n    using SafeMath for uint;\n    using Counters for Counters.Counter;\n    \n    address public insurer;\n    AggregatorV3Interface internal priceFeed;\n    \n    uint public constant DAY_IN_SECONDS = 60; //Seconds in a day. 60 for testing, 86400 for Production\n    \n    Counters.Counter private _contractCount;\n    address[] contracts;\n\n    mapping(address => address) clientContract;\n\n    constructor() {\n        insurer = payable(msg.sender);\n        priceFeed = AggregatorV3Interface(0x0FcBAebA1BD0EbF3cFed672C3e98B4aa76DA9546);\n    }\n    \n    event contractCreated(address _insuranceContract, uint _premium, uint _totalCover);\n    \n    function newContract(uint _duration, uint _premium, uint _payoutValue) public payable onlyOwner() returns(address) {\n        // require(_duration >= DAY_IN_SECONDS * 30, 'Cover duration must be atleast 30 days');\n        // require(_payoutValue >= 0, 'Payout value must be greater than 0');\n        // require(_premium > 0, 'Premium must be greater than 0');\n        // require(msg.value == _premium, 'Premium must be paid at the time of contract creation');\n        \n        uint _collateralValue = uint(getLatestPrice()); //Calculate collateral value based on current price;\n        \n        address contractAddr = address((new InsuranceContract){value: _payoutValue}(msg.sender, _duration, _premium, _payoutValue, _collateralValue));\n\n        _contractCount.increment();\n        contracts.push(contractAddr);\n        clientContract[msg.sender] = contractAddr;\n\n        emit contractCreated(contractAddr, msg.value, _payoutValue);\n\n        return contractAddr;\n    }\n    \n    function getClientContract() external view returns (address) {\n        return clientContract[msg.sender];\n    }\n\n    function updateContract(address _contract) external {\n        InsuranceContract i = InsuranceContract(_contract);\n        i.updateContract();\n    }\n\n    function getContractCurrentValue(address _contract) external view returns(uint) {\n        InsuranceContract i = InsuranceContract(_contract);\n        return i.getCurrentValue();\n    }\n\n    function getContractRequestCount(address _contract) external view returns(uint) {\n        InsuranceContract i = InsuranceContract(_contract);\n        return i.getRequestCount();\n    }\n\n    function getInsurer() external view returns (address) {\n        return insurer;\n    }\n\n    function getContractStatus(address _address) external view returns (bool) {\n        InsuranceContract i = InsuranceContract(_address);\n        return i.getContractStatus();\n    }\n\n    function getContractBalance() external view returns (uint) {\n        return address(this).balance;\n    }\n\n    function endContractProvider() external onlyOwner() {\n        selfdestruct(payable(insurer));\n    }\n\n    function getLatestPrice() internal view returns (int) {\n        (\n            uint80 roundID,\n            int price,\n            uint startedAt,\n            uint timeStamp,\n            uint80 answeredInRound\n        ) = priceFeed.latestRoundData();\n        require(timeStamp > 0, \"Round not complete\");\n\n        return price;\n    }\n}",
  "sourcePath": "C:\\Users\\Chaitanya\\Documents\\Projects\\nervos-insure\\contracts\\InsuranceProvider.sol",
  "compiler": {
    "name": "solc",
    "version": "0.8.7+commit.e28d00a7.Emscripten.clang"
  },
  "schemaVersion": "3.4.3",
  "updatedAt": "2021-09-28T15:53:18.994Z",
  "networkType": "ethereum",
  "devdoc": {
    "kind": "dev",
    "methods": {
      "owner()": {
        "details": "Returns the address of the current owner."
      },
      "renounceOwnership()": {
        "details": "Leaves the contract without owner. It will not be possible to call `onlyOwner` functions anymore. Can only be called by the current owner. NOTE: Renouncing ownership will leave the contract without an owner, thereby removing any functionality that is only available to the owner."
      },
      "transferOwnership(address)": {
        "details": "Transfers ownership of the contract to a new account (`newOwner`). Can only be called by the current owner."
      }
    },
    "version": 1
  },
  "userdoc": {
    "kind": "user",
    "methods": {},
    "version": 1
  }
}