{
  "contractName": "InsuranceProvider",
  "abi": [
    {
      "inputs": [],
      "stateMutability": "nonpayable",
      "type": "constructor"
    },
    {
      "anonymous": false,
      "inputs": [
        {
          "indexed": true,
          "internalType": "address",
          "name": "previousOwner",
          "type": "address"
        },
        {
          "indexed": true,
          "internalType": "address",
          "name": "newOwner",
          "type": "address"
        }
      ],
      "name": "OwnershipTransferred",
      "type": "event"
    },
    {
      "anonymous": false,
      "inputs": [
        {
          "indexed": false,
          "internalType": "address",
          "name": "_insuranceContract",
          "type": "address"
        },
        {
          "indexed": false,
          "internalType": "uint256",
          "name": "_premium",
          "type": "uint256"
        },
        {
          "indexed": false,
          "internalType": "uint256",
          "name": "_totalCover",
          "type": "uint256"
        }
      ],
      "name": "contractCreated",
      "type": "event"
    },
    {
      "inputs": [],
      "name": "DAY_IN_SECONDS",
      "outputs": [
        {
          "internalType": "uint256",
          "name": "",
          "type": "uint256"
        }
      ],
      "stateMutability": "view",
      "type": "function",
      "constant": true
    },
    {
      "inputs": [],
      "name": "owner",
      "outputs": [
        {
          "internalType": "address",
          "name": "",
          "type": "address"
        }
      ],
      "stateMutability": "view",
      "type": "function",
      "constant": true
    },
    {
      "inputs": [],
      "name": "renounceOwnership",
      "outputs": [],
      "stateMutability": "nonpayable",
      "type": "function"
    },
    {
      "inputs": [
        {
          "internalType": "address",
          "name": "newOwner",
          "type": "address"
        }
      ],
      "name": "transferOwnership",
      "outputs": [],
      "stateMutability": "nonpayable",
      "type": "function"
    },
    {
      "inputs": [
        {
          "internalType": "uint256",
          "name": "_duration",
          "type": "uint256"
        },
        {
          "internalType": "uint256",
          "name": "_premium",
          "type": "uint256"
        },
        {
          "internalType": "uint256",
          "name": "_payoutValue",
          "type": "uint256"
        }
      ],
      "name": "newContract",
      "outputs": [
        {
          "internalType": "address",
          "name": "",
          "type": "address"
        }
      ],
      "stateMutability": "payable",
      "type": "function",
      "payable": true
    },
    {
      "inputs": [
        {
          "internalType": "address",
          "name": "_pool",
          "type": "address"
        }
      ],
      "name": "setCapitalPool",
      "outputs": [],
      "stateMutability": "nonpayable",
      "type": "function"
    },
    {
      "inputs": [],
      "name": "getCapitalPool",
      "outputs": [
        {
          "internalType": "contract Pool",
          "name": "",
          "type": "address"
        }
      ],
      "stateMutability": "view",
      "type": "function",
      "constant": true
    },
    {
      "inputs": [
        {
          "internalType": "address",
          "name": "_client",
          "type": "address"
        }
      ],
      "name": "getClientContracts",
      "outputs": [
        {
          "internalType": "address[]",
          "name": "",
          "type": "address[]"
        }
      ],
      "stateMutability": "view",
      "type": "function",
      "constant": true
    },
    {
      "inputs": [],
      "name": "getContractCount",
      "outputs": [
        {
          "components": [
            {
              "internalType": "uint256",
              "name": "_value",
              "type": "uint256"
            }
          ],
          "internalType": "struct Counters.Counter",
          "name": "",
          "type": "tuple"
        }
      ],
      "stateMutability": "view",
      "type": "function",
      "constant": true
    },
    {
      "inputs": [],
      "name": "getTotalContractValue",
      "outputs": [
        {
          "internalType": "uint256",
          "name": "",
          "type": "uint256"
        }
      ],
      "stateMutability": "view",
      "type": "function",
      "constant": true
    },
    {
      "inputs": [],
      "name": "getActiveContractCount",
      "outputs": [
        {
          "internalType": "uint256",
          "name": "",
          "type": "uint256"
        }
      ],
      "stateMutability": "view",
      "type": "function",
      "constant": true
    },
    {
      "inputs": [
        {
          "internalType": "address",
          "name": "_contract",
          "type": "address"
        }
      ],
      "name": "updateContract",
      "outputs": [],
      "stateMutability": "nonpayable",
      "type": "function"
    },
    {
      "inputs": [
        {
          "internalType": "address",
          "name": "_contract",
          "type": "address"
        }
      ],
      "name": "getContractCurrentValue",
      "outputs": [
        {
          "internalType": "uint256",
          "name": "",
          "type": "uint256"
        }
      ],
      "stateMutability": "view",
      "type": "function",
      "constant": true
    },
    {
      "inputs": [
        {
          "internalType": "address",
          "name": "_contract",
          "type": "address"
        }
      ],
      "name": "getContractRequestCount",
      "outputs": [
        {
          "internalType": "uint256",
          "name": "",
          "type": "uint256"
        }
      ],
      "stateMutability": "view",
      "type": "function",
      "constant": true
    },
    {
      "inputs": [],
      "name": "getInsurer",
      "outputs": [
        {
          "internalType": "address",
          "name": "",
          "type": "address"
        }
      ],
      "stateMutability": "view",
      "type": "function",
      "constant": true
    },
    {
      "inputs": [
        {
          "internalType": "address",
          "name": "_contract",
          "type": "address"
        }
      ],
      "name": "getContractStatus",
      "outputs": [
        {
          "internalType": "bool",
          "name": "",
          "type": "bool"
        }
      ],
      "stateMutability": "view",
      "type": "function",
      "constant": true
    },
    {
      "inputs": [],
      "name": "endContractProvider",
      "outputs": [],
      "stateMutability": "nonpayable",
      "type": "function"
    }
  ],
  "bytecode": "0x608060405234801561001057600080fd5b5061002d61002261008760201b60201c565b61008f60201b60201c565b731363bdce312532f864e84924d54c7da5edb5b1bc600160006101000a81548173ffffffffffffffffffffffffffffffffffffffff021916908373ffffffffffffffffffffffffffffffffffffffff160217905550610153565b600033905090565b60008060009054906101000a900473ffffffffffffffffffffffffffffffffffffffff169050816000806101000a81548173ffffffffffffffffffffffffffffffffffffffff021916908373ffffffffffffffffffffffffffffffffffffffff1602179055508173ffffffffffffffffffffffffffffffffffffffff168173ffffffffffffffffffffffffffffffffffffffff167f8be0079c531659141344cd1fd0a4f28419497f9722a3daafe3b4186f6b6457e060405160405180910390a35050565b6138c580620001636000396000f3fe608060405260043610620001165760003560e01c80639083b5ba11620000a3578063de8c8976116200006d578063de8c8976146200035d578063e3db17b814620003a1578063e7c14c6814620003cf578063f134a75a14620003fd578063f2fde38b14620004415762000116565b80639083b5ba14620002ad5780639399869d14620002dd578063a1219c42146200030d578063c92ee4f614620003275762000116565b80635fdc628111620000e55780635fdc628114620001ef5780636896c870146200021f578063715018a614620002635780638da5cb5b146200027d5762000116565b8063125716d6146200011b578063300752fc146200015f578063417d5fd7146200018f5780635d0c147614620001bf575b600080fd5b3480156200012857600080fd5b5062000147600480360381019062000141919062001309565b6200046f565b604051620001569190620017b5565b60405180910390f35b3480156200016c57600080fd5b5062000177620004ff565b604051620001869190620017d2565b60405180910390f35b3480156200019c57600080fd5b50620001a762000529565b604051620001b69190620018fa565b60405180910390f35b348015620001cc57600080fd5b50620001d76200063e565b604051620001e69190620016ad565b60405180910390f35b348015620001fc57600080fd5b506200020762000646565b604051620002169190620018fa565b60405180910390f35b3480156200022c57600080fd5b506200024b600480360381019062000245919062001309565b6200064b565b6040516200025a9190620018fa565b60405180910390f35b3480156200027057600080fd5b506200027b620006db565b005b3480156200028a57600080fd5b50620002956200076c565b604051620002a49190620016ad565b60405180910390f35b348015620002ba57600080fd5b50620002c562000795565b604051620002d49190620018fa565b60405180910390f35b348015620002ea57600080fd5b50620002f5620008b9565b604051620003049190620018dd565b60405180910390f35b3480156200031a57600080fd5b5062000325620008df565b005b6200034560048036038101906200033f91906200139f565b62000984565b604051620003549190620016ad565b60405180910390f35b3480156200036a57600080fd5b5062000389600480360381019062000383919062001309565b62000c72565b604051620003989190620018fa565b60405180910390f35b348015620003ae57600080fd5b50620003cd6004803603810190620003c7919062001309565b62000d02565b005b348015620003dc57600080fd5b50620003fb6004803603810190620003f5919062001309565b62000d6d565b005b3480156200040a57600080fd5b5062000429600480360381019062000423919062001309565b62000e34565b60405162000438919062001791565b60405180910390f35b3480156200044e57600080fd5b506200046d600480360381019062000467919062001309565b62000f03565b005b6000808290508073ffffffffffffffffffffffffffffffffffffffff1663c032846b6040518163ffffffff1660e01b815260040160206040518083038186803b158015620004bc57600080fd5b505afa158015620004d1573d6000803e3d6000fd5b505050506040513d601f19601f82011682018060405250810190620004f791906200133b565b915050919050565b6000600260009054906101000a900473ffffffffffffffffffffffffffffffffffffffff16905090565b6000806000905060005b60048054905081101562000636576000600482815481106200055a576200055962001bbd565b5b9060005260206000200160009054906101000a900473ffffffffffffffffffffffffffffffffffffffff1690506200061d8173ffffffffffffffffffffffffffffffffffffffff1663243d9a5d6040518163ffffffff1660e01b815260040160206040518083038186803b158015620005d257600080fd5b505afa158015620005e7573d6000803e3d6000fd5b505050506040513d601f19601f820116820180604052508101906200060d91906200136d565b846200100790919063ffffffff16565b92505080806200062d9062001ad9565b91505062000533565b508091505090565b600030905090565b603c81565b6000808290508073ffffffffffffffffffffffffffffffffffffffff16633fad18346040518163ffffffff1660e01b815260040160206040518083038186803b1580156200069857600080fd5b505afa158015620006ad573d6000803e3d6000fd5b505050506040513d601f19601f82011682018060405250810190620006d391906200136d565b915050919050565b620006e56200101f565b73ffffffffffffffffffffffffffffffffffffffff16620007056200076c565b73ffffffffffffffffffffffffffffffffffffffff16146200075e576040517f08c379a0000000000000000000000000000000000000000000000000000000008152600401620007559062001899565b60405180910390fd5b6200076a600062001027565b565b60008060009054906101000a900473ffffffffffffffffffffffffffffffffffffffff16905090565b6000806000905060005b600480549050811015620008b157600060048281548110620007c657620007c562001bbd565b5b9060005260206000200160009054906101000a900473ffffffffffffffffffffffffffffffffffffffff16905060008173ffffffffffffffffffffffffffffffffffffffff1663c032846b6040518163ffffffff1660e01b815260040160206040518083038186803b1580156200083c57600080fd5b505afa15801562000851573d6000803e3d6000fd5b505050506040513d601f19601f820116820180604052508101906200087791906200133b565b905080156200089957620008966001856200100790919063ffffffff16565b93505b50508080620008a89062001ad9565b9150506200079f565b508091505090565b620008c36200125e565b6003604051806020016040529081600082015481525050905090565b620008e96200101f565b73ffffffffffffffffffffffffffffffffffffffff16620009096200076c565b73ffffffffffffffffffffffffffffffffffffffff161462000962576040517f08c379a0000000000000000000000000000000000000000000000000000000008152600401620009599062001899565b60405180910390fd5b6200096c6200076c565b73ffffffffffffffffffffffffffffffffffffffff16ff5b600080620009b2620009a2601e603c620010eb90919063ffffffff16565b866200110390919063ffffffff16565b14620009f5576040517f08c379a0000000000000000000000000000000000000000000000000000000008152600401620009ec9062001833565b60405180910390fd5b600082101562000a3c576040517f08c379a000000000000000000000000000000000000000000000000000000000815260040162000a339062001877565b60405180910390fd5b6000831162000a82576040517f08c379a000000000000000000000000000000000000000000000000000000000815260040162000a799062001855565b60405180910390fd5b82341462000ac7576040517f08c379a000000000000000000000000000000000000000000000000000000000815260040162000abe9062001811565b60405180910390fd5b600062000ad36200111b565b90506000338686868560405162000aea9062001271565b62000afa959493929190620016ca565b604051809103906000f08015801562000b17573d6000803e3d6000fd5b50905062000b26600362001248565b6004819080600181540180825580915050600190039060005260206000200160009091909190916101000a81548173ffffffffffffffffffffffffffffffffffffffff021916908373ffffffffffffffffffffffffffffffffffffffff160217905550600560003373ffffffffffffffffffffffffffffffffffffffff1673ffffffffffffffffffffffffffffffffffffffff168152602001908152602001600020819080600181540180825580915050600190039060005260206000200160009091909190916101000a81548173ffffffffffffffffffffffffffffffffffffffff021916908373ffffffffffffffffffffffffffffffffffffffff1602179055507fa44aa7756c3391a11525eeee40213754bf3aee2a051d2597433fb40572a47d7681868660405162000c5e9392919062001754565b60405180910390a180925050509392505050565b6000808290508073ffffffffffffffffffffffffffffffffffffffff16630f76c1146040518163ffffffff1660e01b815260040160206040518083038186803b15801562000cbf57600080fd5b505afa15801562000cd4573d6000803e3d6000fd5b505050506040513d601f19601f8201168201806040525081019062000cfa91906200136d565b915050919050565b60008190508073ffffffffffffffffffffffffffffffffffffffff1663a241c0896040518163ffffffff1660e01b8152600401600060405180830381600087803b15801562000d5057600080fd5b505af115801562000d65573d6000803e3d6000fd5b505050505050565b62000d776200101f565b73ffffffffffffffffffffffffffffffffffffffff1662000d976200076c565b73ffffffffffffffffffffffffffffffffffffffff161462000df0576040517f08c379a000000000000000000000000000000000000000000000000000000000815260040162000de79062001899565b60405180910390fd5b80600260006101000a81548173ffffffffffffffffffffffffffffffffffffffff021916908373ffffffffffffffffffffffffffffffffffffffff16021790555050565b6060600560008373ffffffffffffffffffffffffffffffffffffffff1673ffffffffffffffffffffffffffffffffffffffff16815260200190815260200160002080548060200260200160405190810160405280929190818152602001828054801562000ef757602002820191906000526020600020905b8160009054906101000a900473ffffffffffffffffffffffffffffffffffffffff1673ffffffffffffffffffffffffffffffffffffffff168152602001906001019080831162000eac575b50505050509050919050565b62000f0d6200101f565b73ffffffffffffffffffffffffffffffffffffffff1662000f2d6200076c565b73ffffffffffffffffffffffffffffffffffffffff161462000f86576040517f08c379a000000000000000000000000000000000000000000000000000000000815260040162000f7d9062001899565b60405180910390fd5b600073ffffffffffffffffffffffffffffffffffffffff168173ffffffffffffffffffffffffffffffffffffffff16141562000ff9576040517f08c379a000000000000000000000000000000000000000000000000000000000815260040162000ff090620017ef565b60405180910390fd5b620010048162001027565b50565b6000818362001017919062001961565b905092915050565b600033905090565b60008060009054906101000a900473ffffffffffffffffffffffffffffffffffffffff169050816000806101000a81548173ffffffffffffffffffffffffffffffffffffffff021916908373ffffffffffffffffffffffffffffffffffffffff1602179055508173ffffffffffffffffffffffffffffffffffffffff168173ffffffffffffffffffffffffffffffffffffffff167f8be0079c531659141344cd1fd0a4f28419497f9722a3daafe3b4186f6b6457e060405160405180910390a35050565b60008183620010fb9190620019be565b905092915050565b6000818362001113919062001b27565b905092915050565b600080600080600080600160009054906101000a900473ffffffffffffffffffffffffffffffffffffffff1673ffffffffffffffffffffffffffffffffffffffff1663bcfd032d73eeeeeeeeeeeeeeeeeeeeeeeeeeeeeeeeeeeeeeee6103486040518363ffffffff1660e01b81526004016200119992919062001727565b60a06040518083038186803b158015620011b257600080fd5b505afa158015620011c7573d6000803e3d6000fd5b505050506040513d601f19601f82011682018060405250810190620011ed9190620013fb565b94509450945094509450600082116200123d576040517f08c379a00000000000000000000000000000000000000000000000000000000081526004016200123490620018bb565b60405180910390fd5b839550505050505090565b6001816000016000828254019250508190555050565b6040518060200160405280600081525090565b611a658062001e2b83390190565b600081359050620012908162001da8565b92915050565b600081519050620012a78162001dc2565b92915050565b600081519050620012be8162001ddc565b92915050565b600081359050620012d58162001df6565b92915050565b600081519050620012ec8162001df6565b92915050565b600081519050620013038162001e10565b92915050565b60006020828403121562001322576200132162001bec565b5b600062001332848285016200127f565b91505092915050565b60006020828403121562001354576200135362001bec565b5b6000620013648482850162001296565b91505092915050565b60006020828403121562001386576200138562001bec565b5b60006200139684828501620012db565b91505092915050565b600080600060608486031215620013bb57620013ba62001bec565b5b6000620013cb86828701620012c4565b9350506020620013de86828701620012c4565b9250506040620013f186828701620012c4565b9150509250925092565b600080600080600060a086880312156200141a576200141962001bec565b5b60006200142a88828901620012f2565b95505060206200143d88828901620012ad565b94505060406200145088828901620012db565b93505060606200146388828901620012db565b92505060806200147688828901620012f2565b9150509295509295909350565b6000620014918383620014ae565b60208301905092915050565b620014a88162001a33565b82525050565b620014b98162001a1f565b82525050565b620014ca8162001a1f565b82525050565b6000620014dd8262001927565b620014e981856200193f565b9350620014f68362001917565b8060005b838110156200152d57815162001511888262001483565b97506200151e8362001932565b925050600181019050620014fa565b5085935050505092915050565b620015458162001a47565b82525050565b620015568162001a9d565b82525050565b60006200156b60268362001950565b9150620015788262001bf1565b604082019050919050565b60006200159260358362001950565b91506200159f8262001c40565b604082019050919050565b6000620015b9602c8362001950565b9150620015c68262001c8f565b604082019050919050565b6000620015e0601e8362001950565b9150620015ed8262001cde565b602082019050919050565b60006200160760238362001950565b9150620016148262001d07565b604082019050919050565b60006200162e60208362001950565b91506200163b8262001d56565b602082019050919050565b60006200165560128362001950565b9150620016628262001d7f565b602082019050919050565b6020820160008201516200168560008501826200168b565b50505050565b620016968162001a7d565b82525050565b620016a78162001a7d565b82525050565b6000602082019050620016c46000830184620014bf565b92915050565b600060a082019050620016e160008301886200149d565b620016f060208301876200169c565b620016ff60408301866200169c565b6200170e60608301856200169c565b6200171d60808301846200169c565b9695505050505050565b60006040820190506200173e6000830185620014bf565b6200174d6020830184620014bf565b9392505050565b60006060820190506200176b6000830186620014bf565b6200177a60208301856200169c565b6200178960408301846200169c565b949350505050565b60006020820190508181036000830152620017ad8184620014d0565b905092915050565b6000602082019050620017cc60008301846200153a565b92915050565b6000602082019050620017e960008301846200154b565b92915050565b600060208201905081810360008301526200180a816200155c565b9050919050565b600060208201905081810360008301526200182c8162001583565b9050919050565b600060208201905081810360008301526200184e81620015aa565b9050919050565b600060208201905081810360008301526200187081620015d1565b9050919050565b600060208201905081810360008301526200189281620015f8565b9050919050565b60006020820190508181036000830152620018b4816200161f565b9050919050565b60006020820190508181036000830152620018d68162001646565b9050919050565b6000602082019050620018f460008301846200166d565b92915050565b60006020820190506200191160008301846200169c565b92915050565b6000819050602082019050919050565b600081519050919050565b6000602082019050919050565b600082825260208201905092915050565b600082825260208201905092915050565b60006200196e8262001a7d565b91506200197b8362001a7d565b9250827fffffffffffffffffffffffffffffffffffffffffffffffffffffffffffffffff03821115620019b357620019b262001b5f565b5b828201905092915050565b6000620019cb8262001a7d565b9150620019d88362001a7d565b9250817fffffffffffffffffffffffffffffffffffffffffffffffffffffffffffffffff048311821515161562001a145762001a1362001b5f565b5b828202905092915050565b600062001a2c8262001a5d565b9050919050565b600062001a408262001a5d565b9050919050565b60008115159050919050565b6000819050919050565b600073ffffffffffffffffffffffffffffffffffffffff82169050919050565b6000819050919050565b600069ffffffffffffffffffff82169050919050565b600062001aaa8262001ab1565b9050919050565b600062001abe8262001ac5565b9050919050565b600062001ad28262001a5d565b9050919050565b600062001ae68262001a7d565b91507fffffffffffffffffffffffffffffffffffffffffffffffffffffffffffffffff82141562001b1c5762001b1b62001b5f565b5b600182019050919050565b600062001b348262001a7d565b915062001b418362001a7d565b92508262001b545762001b5362001b8e565b5b828206905092915050565b7f4e487b7100000000000000000000000000000000000000000000000000000000600052601160045260246000fd5b7f4e487b7100000000000000000000000000000000000000000000000000000000600052601260045260246000fd5b7f4e487b7100000000000000000000000000000000000000000000000000000000600052603260045260246000fd5b600080fd5b7f4f776e61626c653a206e6577206f776e657220697320746865207a65726f206160008201527f6464726573730000000000000000000000000000000000000000000000000000602082015250565b7f5072656d69756d206d7573742062652070616964206174207468652074696d6560008201527f206f6620636f6e7472616374206372656174696f6e0000000000000000000000602082015250565b7f436f766572206475726174696f6e206d75737420626520696e206d756c69706c60008201527f65206f6620333020646179730000000000000000000000000000000000000000602082015250565b7f5072656d69756d206d7573742062652067726561746572207468616e20300000600082015250565b7f5061796f75742076616c7565206d75737420626520677265617465722074686160008201527f6e20300000000000000000000000000000000000000000000000000000000000602082015250565b7f4f776e61626c653a2063616c6c6572206973206e6f7420746865206f776e6572600082015250565b7f526f756e64206e6f7420636f6d706c6574650000000000000000000000000000600082015250565b62001db38162001a1f565b811462001dbf57600080fd5b50565b62001dcd8162001a47565b811462001dd957600080fd5b50565b62001de78162001a53565b811462001df357600080fd5b50565b62001e018162001a7d565b811462001e0d57600080fd5b50565b62001e1b8162001a87565b811462001e2757600080fd5b5056fe60806040526000600960016101000a81548160ff0219169083151502179055506000600a5542600b556000600c553480156200003a57600080fd5b5060405162001a6538038062001a6583398181016040528101906200006091906200033a565b62000080620000746200024060201b60201c565b6200024860201b60201c565b731363bdce312532f864e84924d54c7da5edb5b1bc600160006101000a81548173ffffffffffffffffffffffffffffffffffffffff021916908373ffffffffffffffffffffffffffffffffffffffff16021790555033600260006101000a81548173ffffffffffffffffffffffffffffffffffffffff021916908373ffffffffffffffffffffffffffffffffffffffff16021790555084600360006101000a81548173ffffffffffffffffffffffffffffffffffffffff021916908373ffffffffffffffffffffffffffffffffffffffff160217905550426004819055508360058190555082600681905550816007819055506001600960006101000a81548160ff02191690831515021790555080600881905550600360009054906101000a900473ffffffffffffffffffffffffffffffffffffffff1673ffffffffffffffffffffffffffffffffffffffff167f0203790cae2ea31823a6382172bd46011fcfbab29b22bb78b4b2f266febf6072600260009054906101000a900473ffffffffffffffffffffffffffffffffffffffff166005546006546007546040516200022d9493929190620003e4565b60405180910390a25050505050620004bc565b600033905090565b60008060009054906101000a900473ffffffffffffffffffffffffffffffffffffffff169050816000806101000a81548173ffffffffffffffffffffffffffffffffffffffff021916908373ffffffffffffffffffffffffffffffffffffffff1602179055508173ffffffffffffffffffffffffffffffffffffffff168173ffffffffffffffffffffffffffffffffffffffff167f8be0079c531659141344cd1fd0a4f28419497f9722a3daafe3b4186f6b6457e060405160405180910390a35050565b6000815190506200031d8162000488565b92915050565b6000815190506200033481620004a2565b92915050565b600080600080600060a0868803121562000359576200035862000483565b5b600062000369888289016200030c565b95505060206200037c8882890162000323565b94505060406200038f8882890162000323565b9350506060620003a28882890162000323565b9250506080620003b58882890162000323565b9150509295509295909350565b620003cd8162000431565b82525050565b620003de8162000479565b82525050565b6000608082019050620003fb6000830187620003c2565b6200040a6020830186620003d3565b620004196040830185620003d3565b620004286060830184620003d3565b95945050505050565b60006200043e8262000459565b9050919050565b6000620004528262000459565b9050919050565b600073ffffffffffffffffffffffffffffffffffffffff82169050919050565b6000819050919050565b600080fd5b620004938162000445565b81146200049f57600080fd5b50565b620004ad8162000479565b8114620004b957600080fd5b50565b61159980620004cc6000396000f3fe608060405234801561001057600080fd5b50600436106101005760003560e01c8063ad2e8c9b11610097578063dbc837c511610066578063dbc837c514610245578063dcbacd1114610263578063e3ea4ef214610281578063f2fde38b1461029f57610100565b8063ad2e8c9b146101cd578063b0b30fee146101eb578063c032846b14610209578063c97440291461022757610100565b80635fdc6281116100d35780635fdc62811461017d578063715018a61461019b5780638da5cb5b146101a5578063a241c089146101c357610100565b80630f76c11414610105578063243d9a5d146101235780633fad18341461014157806359dc735c1461015f575b600080fd5b61010d6102bb565b60405161011a9190611114565b60405180910390f35b61012b6102c5565b6040516101389190611114565b60405180910390f35b6101496102cf565b6040516101569190611114565b60405180910390f35b6101676102d9565b6040516101749190610fd1565b60405180910390f35b610185610303565b6040516101929190611114565b60405180910390f35b6101a3610308565b005b6101ad610390565b6040516101ba9190610fd1565b60405180910390f35b6101cb6103b9565b005b6101d5610593565b6040516101e29190611114565b60405180910390f35b6101f361059d565b604051610200919061103e565b60405180910390f35b6102116105b4565b60405161021e919061103e565b60405180910390f35b61022f6105cb565b60405161023c9190611114565b60405180910390f35b61024d6105d5565b60405161025a9190611059565b60405180910390f35b61026b6105fb565b6040516102789190611114565b60405180910390f35b610289610605565b6040516102969190611114565b60405180910390f35b6102b960048036038101906102b49190610e02565b61060f565b005b6000600a54905090565b6000600754905090565b6000600c54905090565b6000600360009054906101000a900473ffffffffffffffffffffffffffffffffffffffff16905090565b603c81565b610310610707565b73ffffffffffffffffffffffffffffffffffffffff1661032e610390565b73ffffffffffffffffffffffffffffffffffffffff1614610384576040517f08c379a000000000000000000000000000000000000000000000000000000000815260040161037b906110d4565b60405180910390fd5b61038e600061070f565b565b60008060009054906101000a900473ffffffffffffffffffffffffffffffffffffffff16905090565b60011515600960009054906101000a900460ff1615151461040f576040517f08c379a0000000000000000000000000000000000000000000000000000000008152600401610406906110b4565b60405180910390fd5b610417610707565b73ffffffffffffffffffffffffffffffffffffffff16610435610390565b73ffffffffffffffffffffffffffffffffffffffff161461048b576040517f08c379a0000000000000000000000000000000000000000000000000000000008152600401610482906110d4565b60405180910390fd5b6104b36104a3600c603c6107d390919063ffffffff16565b603c6107e990919063ffffffff16565b6104c8600b54426107e990919063ffffffff16565b11610508576040517f08c379a00000000000000000000000000000000000000000000000000000000081526004016104ff90611074565b60405180910390fd5b6105106107ff565b600960009054906101000a900460ff16156105915761052d610a0d565b600a8190555042600b819055506105506001600c54610b3190919063ffffffff16565b600c8190555061057f6064610571600a600854610b4790919063ffffffff16565b6107d390919063ffffffff16565b600a54116105905761058f610b5d565b5b5b565b6000600554905090565b6000600960019054906101000a900460ff16905090565b6000600960009054906101000a900460ff16905090565b6000600654905090565b600260009054906101000a900473ffffffffffffffffffffffffffffffffffffffff1681565b6000600454905090565b6000600b54905090565b610617610707565b73ffffffffffffffffffffffffffffffffffffffff16610635610390565b73ffffffffffffffffffffffffffffffffffffffff161461068b576040517f08c379a0000000000000000000000000000000000000000000000000000000008152600401610682906110d4565b60405180910390fd5b600073ffffffffffffffffffffffffffffffffffffffff168173ffffffffffffffffffffffffffffffffffffffff1614156106fb576040517f08c379a00000000000000000000000000000000000000000000000000000000081526004016106f290611094565b60405180910390fd5b6107048161070f565b50565b600033905090565b60008060009054906101000a900473ffffffffffffffffffffffffffffffffffffffff169050816000806101000a81548173ffffffffffffffffffffffffffffffffffffffff021916908373ffffffffffffffffffffffffffffffffffffffff1602179055508173ffffffffffffffffffffffffffffffffffffffff168173ffffffffffffffffffffffffffffffffffffffff167f8be0079c531659141344cd1fd0a4f28419497f9722a3daafe3b4186f6b6457e060405160405180910390a35050565b600081836107e191906111cd565b905092915050565b600081836107f79190611258565b905092915050565b42610817600554600454610b3190919063ffffffff16565b1015610a0b576002610835603c6005546107d390919063ffffffff16565b61083f9190611258565b600c54101561097f576000600260009054906101000a900473ffffffffffffffffffffffffffffffffffffffff1673ffffffffffffffffffffffffffffffffffffffff1663300752fc6040518163ffffffff1660e01b815260040160206040518083038186803b1580156108b257600080fd5b505afa1580156108c6573d6000803e3d6000fd5b505050506040513d601f19601f820116820180604052508101906108ea9190610e2f565b90508073ffffffffffffffffffffffffffffffffffffffff1663b48ae273600360009054906101000a900473ffffffffffffffffffffffffffffffffffffffff166007546040518363ffffffff1660e01b815260040161094b929190610fec565b600060405180830381600087803b15801561096557600080fd5b505af1158015610979573d6000803e3d6000fd5b50505050505b6000600960006101000a81548160ff021916908315150217905550600360009054906101000a900473ffffffffffffffffffffffffffffffffffffffff1673ffffffffffffffffffffffffffffffffffffffff167ff1c35e3933051ea28efca558462a55cac66003050f2c6f4e96833a696fa444e242604051610a029190611114565b60405180910390a25b565b600080600080600080600160009054906101000a900473ffffffffffffffffffffffffffffffffffffffff1673ffffffffffffffffffffffffffffffffffffffff1663bcfd032d73eeeeeeeeeeeeeeeeeeeeeeeeeeeeeeeeeeeeeeee6103486040518363ffffffff1660e01b8152600401610a89929190611015565b60a06040518083038186803b158015610aa157600080fd5b505afa158015610ab5573d6000803e3d6000fd5b505050506040513d601f19601f82011682018060405250810190610ad99190610e5c565b9450945094509450945060008211610b26576040517f08c379a0000000000000000000000000000000000000000000000000000000008152600401610b1d906110f4565b60405180910390fd5b839550505050505090565b60008183610b3f9190611177565b905092915050565b60008183610b5591906111fe565b905092915050565b60011515600960009054906101000a900460ff16151514610bb3576040517f08c379a0000000000000000000000000000000000000000000000000000000008152600401610baa906110b4565b60405180910390fd5b6000600260009054906101000a900473ffffffffffffffffffffffffffffffffffffffff1673ffffffffffffffffffffffffffffffffffffffff1663300752fc6040518163ffffffff1660e01b815260040160206040518083038186803b158015610c1d57600080fd5b505afa158015610c31573d6000803e3d6000fd5b505050506040513d601f19601f82011682018060405250810190610c559190610e2f565b90508073ffffffffffffffffffffffffffffffffffffffff1663b48ae273600360009054906101000a900473ffffffffffffffffffffffffffffffffffffffff166007546040518363ffffffff1660e01b8152600401610cb6929190610fec565b600060405180830381600087803b158015610cd057600080fd5b505af1158015610ce4573d6000803e3d6000fd5b50505050600360009054906101000a900473ffffffffffffffffffffffffffffffffffffffff1673ffffffffffffffffffffffffffffffffffffffff167f7ff8589a935e376dabc873be633a3fc8c5902e06a5d8cedcaa9ecacc095dbe1d42600754600a54604051610d589392919061112f565b60405180910390a26000600960006101000a81548160ff0219169083151502179055506001600960016101000a81548160ff02191690831515021790555050565b600081359050610da8816114f0565b92915050565b600081519050610dbd81611507565b92915050565b600081519050610dd28161151e565b92915050565b600081519050610de781611535565b92915050565b600081519050610dfc8161154c565b92915050565b600060208284031215610e1857610e176113ac565b5b6000610e2684828501610d99565b91505092915050565b600060208284031215610e4557610e446113ac565b5b6000610e5384828501610dae565b91505092915050565b600080600080600060a08688031215610e7857610e776113ac565b5b6000610e8688828901610ded565b9550506020610e9788828901610dc3565b9450506040610ea888828901610dd8565b9350506060610eb988828901610dd8565b9250506080610eca88828901610ded565b9150509295509295909350565b610ee08161129e565b82525050565b610eef8161128c565b82525050565b610efe816112b0565b82525050565b610f0d81611318565b82525050565b6000610f20602783611166565b9150610f2b826113b1565b604082019050919050565b6000610f43602683611166565b9150610f4e82611400565b604082019050919050565b6000610f66603183611166565b9150610f718261144f565b604082019050919050565b6000610f89602083611166565b9150610f948261149e565b602082019050919050565b6000610fac601283611166565b9150610fb7826114c7565b602082019050919050565b610fcb816112f8565b82525050565b6000602082019050610fe66000830184610ee6565b92915050565b60006040820190506110016000830185610ed7565b61100e6020830184610fc2565b9392505050565b600060408201905061102a6000830185610ee6565b6110376020830184610ee6565b9392505050565b60006020820190506110536000830184610ef5565b92915050565b600060208201905061106e6000830184610f04565b92915050565b6000602082019050818103600083015261108d81610f13565b9050919050565b600060208201905081810360008301526110ad81610f36565b9050919050565b600060208201905081810360008301526110cd81610f59565b9050919050565b600060208201905081810360008301526110ed81610f7c565b9050919050565b6000602082019050818103600083015261110d81610f9f565b9050919050565b60006020820190506111296000830184610fc2565b92915050565b60006060820190506111446000830186610fc2565b6111516020830185610fc2565b61115e6040830184610fc2565b949350505050565b600082825260208201905092915050565b6000611182826112f8565b915061118d836112f8565b9250827fffffffffffffffffffffffffffffffffffffffffffffffffffffffffffffffff038211156111c2576111c161134e565b5b828201905092915050565b60006111d8826112f8565b91506111e3836112f8565b9250826111f3576111f261137d565b5b828204905092915050565b6000611209826112f8565b9150611214836112f8565b9250817fffffffffffffffffffffffffffffffffffffffffffffffffffffffffffffffff048311821515161561124d5761124c61134e565b5b828202905092915050565b6000611263826112f8565b915061126e836112f8565b9250828210156112815761128061134e565b5b828203905092915050565b6000611297826112d8565b9050919050565b60006112a9826112d8565b9050919050565b60008115159050919050565b60006112c78261128c565b9050919050565b6000819050919050565b600073ffffffffffffffffffffffffffffffffffffffff82169050919050565b6000819050919050565b600069ffffffffffffffffffff82169050919050565b60006113238261132a565b9050919050565b60006113358261133c565b9050919050565b6000611347826112d8565b9050919050565b7f4e487b7100000000000000000000000000000000000000000000000000000000600052601160045260246000fd5b7f4e487b7100000000000000000000000000000000000000000000000000000000600052601260045260246000fd5b600080fd5b7f43616e206f6e6c7920636865636b20746f6b656e2076616c7565206f6e63652060008201527f7065722064617900000000000000000000000000000000000000000000000000602082015250565b7f4f776e61626c653a206e6577206f776e657220697320746865207a65726f206160008201527f6464726573730000000000000000000000000000000000000000000000000000602082015250565b7f436f6e74726163742068617320656e6465642c2063616e7420696e746572616360008201527f74207769746820697420616e796d6f7265000000000000000000000000000000602082015250565b7f4f776e61626c653a2063616c6c6572206973206e6f7420746865206f776e6572600082015250565b7f526f756e64206e6f7420636f6d706c6574650000000000000000000000000000600082015250565b6114f98161128c565b811461150457600080fd5b50565b611510816112bc565b811461151b57600080fd5b50565b611527816112ce565b811461153257600080fd5b50565b61153e816112f8565b811461154957600080fd5b50565b61155581611302565b811461156057600080fd5b5056fea2646970667358221220f30d9fb6af6f7bb7f3ab93d02e1dea3764dad905ddfb1e2de645b45a1aed0a7764736f6c63430008070033a2646970667358221220b530c9c56c901e0164b67b2067361edcdb6dfd36bb0ac1b603c5ba917d165b5b64736f6c63430008070033",
  "immutableReferences": {},
  "source": "// SPDX-License-Identifier: MIT\npragma solidity >=0.4.22 <0.9.0;\n\nimport \"@openzeppelin/contracts/access/Ownable.sol\";\nimport \"@openzeppelin/contracts/utils/math/SafeMath.sol\";\nimport \"@chainlink/contracts/src/v0.8/interfaces/FeedRegistryInterface.sol\";\nimport \"@openzeppelin/contracts/utils/Counters.sol\";\nimport \"./Denominations.sol\";\nimport \"./InsuranceContract.sol\";\nimport \"./Pool.sol\";\n\ncontract InsuranceProvider is Ownable {\n  using SafeMath for uint;\n  using Counters for Counters.Counter;\n  \n  FeedRegistryInterface internal registry;\n  Pool private capitalPool;\n  \n  uint public constant DAY_IN_SECONDS = 60; //Seconds in a day. 60 for testing, 86400 for Production\n  \n  Counters.Counter private _contractCount;\n  address[] contracts;\n\n  mapping(address => address[]) clientContract;\n\n  constructor() {\n    registry = FeedRegistryInterface(0x1363bdCE312532F864e84924D54c7dA5eDB5B1BC);\n  }\n    \n  event contractCreated(address _insuranceContract, uint _premium, uint _totalCover);\n    \n  function newContract(uint _duration, uint _premium, uint _payoutValue) public payable returns(address) {\n    require(_duration.mod(DAY_IN_SECONDS.mul(30)) == 0, 'Cover duration must be in muliple of 30 days');\n    require(_payoutValue >= 0, 'Payout value must be greater than 0');\n    require(_premium > 0, 'Premium must be greater than 0');\n    require(msg.value == _premium, 'Premium must be paid at the time of contract creation');\n        \n    uint _collateralValue = uint(getLatestPrice()); //Calculate collateral value based on current price;\n        \n    address contractAddr = address(new InsuranceContract(payable(msg.sender), _duration, _premium, _payoutValue, _collateralValue));\n\n    _contractCount.increment();\n    contracts.push(contractAddr);\n    clientContract[msg.sender].push(contractAddr);\n\n    emit contractCreated(contractAddr, _premium, _payoutValue);\n\n    return contractAddr;\n  }\n\n  function setCapitalPool(address _pool) external onlyOwner {\n    capitalPool = Pool(_pool);\n  }\n\n  function getCapitalPool() external view returns (Pool) {\n    return capitalPool;\n  }\n    \n  /// @notice Explain to an end user what this does\n  /// @dev Explain to a developer any extra details\n  /// @param _client polyjuice address of client\n  /// @return all contracts of client\n  function getClientContracts(address _client) external view returns (address[] memory) {\n    return clientContract[_client];\n  }\n\n  function getContractCount() external view returns(Counters.Counter memory) {\n    return _contractCount;\n  }\n\n  function getTotalContractValue() external view returns(uint) {\n    uint totalContractValue = 0;\n    for (uint256 i = 0; i < contracts.length; i++) {\n      InsuranceContract insuranceContract = InsuranceContract(contracts[i]);\n      totalContractValue = totalContractValue.add(insuranceContract.getPayoutValue());\n    }\n\n    return totalContractValue;\n  }\n\n  function getActiveContractCount() external view returns(uint) {\n    uint activeContractCount = 0;\n    for (uint256 i = 0; i < contracts.length; i++) {\n      InsuranceContract insuranceContract = InsuranceContract(contracts[i]);\n      bool isActive = insuranceContract.getContractStatus();\n\n      if(isActive) {\n        activeContractCount = activeContractCount.add(1);\n      }\n    }\n\n    return activeContractCount;\n  }\n\n  function updateContract(address _contract) external {\n    InsuranceContract insuranceContract = InsuranceContract(_contract);\n    insuranceContract.updateContract();\n  }\n\n  function getContractCurrentValue(address _contract) external view returns(uint) {\n    InsuranceContract insuranceContract = InsuranceContract(_contract);\n    return insuranceContract.getCurrentValue();\n  }\n\n  function getContractRequestCount(address _contract) external view returns(uint) {\n    InsuranceContract insuranceContract = InsuranceContract(_contract);\n    return insuranceContract.getRequestCount();\n  }\n\n  function getInsurer() external view returns (address) {\n    return address(this);\n  }\n\n  function getContractStatus(address _contract) external view returns (bool) {\n    InsuranceContract insuranceContract = InsuranceContract(_contract);\n    return insuranceContract.getContractStatus();\n  }\n\n  function endContractProvider() external onlyOwner() {\n    selfdestruct(payable(owner()));\n  }\n\n  function getLatestPrice() internal view returns (int) {\n    (\n      uint80 roundID, \n      int price,\n      uint startedAt,\n      uint timeStamp,\n      uint80 answeredInRound\n    ) = registry.latestRoundData(Denominations.ETH, Denominations.USD);\n    require(timeStamp > 0, \"Round not complete\");\n        \n    return price;\n  }\n}",
  "sourcePath": "C:\\Users\\Chaitanya\\Documents\\Projects\\nervos-insure\\contracts\\InsuranceProvider.sol",
  "compiler": {
    "name": "solc",
    "version": "0.8.7+commit.e28d00a7.Emscripten.clang"
  },
  "schemaVersion": "3.4.3",
  "updatedAt": "2021-10-05T09:31:44.104Z",
  "networkType": "ethereum",
  "devdoc": {
    "kind": "dev",
    "methods": {
      "getClientContracts(address)": {
        "details": "Explain to a developer any extra details",
        "params": {
          "_client": "polyjuice address of client"
        },
        "returns": {
          "_0": "all contracts of client"
        }
      },
      "owner()": {
        "details": "Returns the address of the current owner."
      },
      "renounceOwnership()": {
        "details": "Leaves the contract without owner. It will not be possible to call `onlyOwner` functions anymore. Can only be called by the current owner. NOTE: Renouncing ownership will leave the contract without an owner, thereby removing any functionality that is only available to the owner."
      },
      "transferOwnership(address)": {
        "details": "Transfers ownership of the contract to a new account (`newOwner`). Can only be called by the current owner."
      }
    },
    "version": 1
  },
  "userdoc": {
    "kind": "user",
    "methods": {
      "getClientContracts(address)": {
        "notice": "Explain to an end user what this does"
      }
    },
    "version": 1
  }
}