{
  "contractName": "InsuranceProvider",
  "abi": [
    {
      "inputs": [],
      "stateMutability": "nonpayable",
      "type": "constructor"
    },
    {
      "anonymous": false,
      "inputs": [
        {
          "indexed": true,
          "internalType": "address",
          "name": "previousOwner",
          "type": "address"
        },
        {
          "indexed": true,
          "internalType": "address",
          "name": "newOwner",
          "type": "address"
        }
      ],
      "name": "OwnershipTransferred",
      "type": "event"
    },
    {
      "anonymous": false,
      "inputs": [
        {
          "indexed": false,
          "internalType": "address",
          "name": "_insuranceContract",
          "type": "address"
        },
        {
          "indexed": false,
          "internalType": "uint256",
          "name": "_premium",
          "type": "uint256"
        },
        {
          "indexed": false,
          "internalType": "uint256",
          "name": "_totalCover",
          "type": "uint256"
        }
      ],
      "name": "contractCreated",
      "type": "event"
    },
    {
      "inputs": [],
      "name": "DAY_IN_SECONDS",
      "outputs": [
        {
          "internalType": "uint256",
          "name": "",
          "type": "uint256"
        }
      ],
      "stateMutability": "view",
      "type": "function",
      "constant": true
    },
    {
      "inputs": [],
      "name": "owner",
      "outputs": [
        {
          "internalType": "address",
          "name": "",
          "type": "address"
        }
      ],
      "stateMutability": "view",
      "type": "function",
      "constant": true
    },
    {
      "inputs": [],
      "name": "renounceOwnership",
      "outputs": [],
      "stateMutability": "nonpayable",
      "type": "function"
    },
    {
      "inputs": [
        {
          "internalType": "address",
          "name": "newOwner",
          "type": "address"
        }
      ],
      "name": "transferOwnership",
      "outputs": [],
      "stateMutability": "nonpayable",
      "type": "function"
    },
    {
      "inputs": [
        {
          "internalType": "uint256",
          "name": "_duration",
          "type": "uint256"
        },
        {
          "internalType": "uint256",
          "name": "_premium",
          "type": "uint256"
        },
        {
          "internalType": "uint256",
          "name": "_payoutValue",
          "type": "uint256"
        }
      ],
      "name": "newContract",
      "outputs": [
        {
          "internalType": "address",
          "name": "",
          "type": "address"
        }
      ],
      "stateMutability": "payable",
      "type": "function",
      "payable": true
    },
    {
      "inputs": [
        {
          "internalType": "address",
          "name": "_pool",
          "type": "address"
        }
      ],
      "name": "setCapitalPool",
      "outputs": [],
      "stateMutability": "nonpayable",
      "type": "function"
    },
    {
      "inputs": [],
      "name": "getCapitalPool",
      "outputs": [
        {
          "internalType": "contract Pool",
          "name": "",
          "type": "address"
        }
      ],
      "stateMutability": "view",
      "type": "function",
      "constant": true
    },
    {
      "inputs": [
        {
          "internalType": "address",
          "name": "_client",
          "type": "address"
        }
      ],
      "name": "getClientContracts",
      "outputs": [
        {
          "internalType": "address[]",
          "name": "",
          "type": "address[]"
        }
      ],
      "stateMutability": "view",
      "type": "function",
      "constant": true
    },
    {
      "inputs": [],
      "name": "getContractCount",
      "outputs": [
        {
          "components": [
            {
              "internalType": "uint256",
              "name": "_value",
              "type": "uint256"
            }
          ],
          "internalType": "struct Counters.Counter",
          "name": "",
          "type": "tuple"
        }
      ],
      "stateMutability": "view",
      "type": "function",
      "constant": true
    },
    {
      "inputs": [],
      "name": "getTotalContractValue",
      "outputs": [
        {
          "internalType": "uint256",
          "name": "",
          "type": "uint256"
        }
      ],
      "stateMutability": "view",
      "type": "function",
      "constant": true
    },
    {
      "inputs": [],
      "name": "getActiveContractCount",
      "outputs": [
        {
          "internalType": "uint256",
          "name": "",
          "type": "uint256"
        }
      ],
      "stateMutability": "view",
      "type": "function",
      "constant": true
    },
    {
      "inputs": [
        {
          "internalType": "address",
          "name": "_contract",
          "type": "address"
        }
      ],
      "name": "updateContract",
      "outputs": [],
      "stateMutability": "nonpayable",
      "type": "function"
    },
    {
      "inputs": [
        {
          "internalType": "address",
          "name": "_contract",
          "type": "address"
        }
      ],
      "name": "getContractCurrentValue",
      "outputs": [
        {
          "internalType": "uint256",
          "name": "",
          "type": "uint256"
        }
      ],
      "stateMutability": "view",
      "type": "function",
      "constant": true
    },
    {
      "inputs": [
        {
          "internalType": "address",
          "name": "_contract",
          "type": "address"
        }
      ],
      "name": "getContractRequestCount",
      "outputs": [
        {
          "internalType": "uint256",
          "name": "",
          "type": "uint256"
        }
      ],
      "stateMutability": "view",
      "type": "function",
      "constant": true
    },
    {
      "inputs": [],
      "name": "getInsurer",
      "outputs": [
        {
          "internalType": "address",
          "name": "",
          "type": "address"
        }
      ],
      "stateMutability": "view",
      "type": "function",
      "constant": true
    },
    {
      "inputs": [
        {
          "internalType": "address",
          "name": "_contract",
          "type": "address"
        }
      ],
      "name": "getContractStatus",
      "outputs": [
        {
          "internalType": "bool",
          "name": "",
          "type": "bool"
        }
      ],
      "stateMutability": "view",
      "type": "function",
      "constant": true
    },
    {
      "inputs": [],
      "name": "endContractProvider",
      "outputs": [],
      "stateMutability": "nonpayable",
      "type": "function"
    }
  ],
  "bytecode": "0x608060405234801561001057600080fd5b5061002d61002261008760201b60201c565b61008f60201b60201c565b731363bdce312532f864e84924d54c7da5edb5b1bc600160006101000a81548173ffffffffffffffffffffffffffffffffffffffff021916908373ffffffffffffffffffffffffffffffffffffffff160217905550610153565b600033905090565b60008060009054906101000a900473ffffffffffffffffffffffffffffffffffffffff169050816000806101000a81548173ffffffffffffffffffffffffffffffffffffffff021916908373ffffffffffffffffffffffffffffffffffffffff1602179055508173ffffffffffffffffffffffffffffffffffffffff168173ffffffffffffffffffffffffffffffffffffffff167f8be0079c531659141344cd1fd0a4f28419497f9722a3daafe3b4186f6b6457e060405160405180910390a35050565b6138d180620001636000396000f3fe608060405260043610620001165760003560e01c80639083b5ba11620000a3578063de8c8976116200006d578063de8c8976146200035d578063e3db17b814620003a1578063e7c14c6814620003cf578063f134a75a14620003fd578063f2fde38b14620004415762000116565b80639083b5ba14620002ad5780639399869d14620002dd578063a1219c42146200030d578063c92ee4f614620003275762000116565b80635fdc628111620000e55780635fdc628114620001ef5780636896c870146200021f578063715018a614620002635780638da5cb5b146200027d5762000116565b8063125716d6146200011b578063300752fc146200015f578063417d5fd7146200018f5780635d0c147614620001bf575b600080fd5b3480156200012857600080fd5b506200014760048036038101906200014191906200130d565b6200046f565b604051620001569190620017b9565b60405180910390f35b3480156200016c57600080fd5b5062000177620004ff565b604051620001869190620017d6565b60405180910390f35b3480156200019c57600080fd5b50620001a762000529565b604051620001b69190620018fe565b60405180910390f35b348015620001cc57600080fd5b50620001d76200063e565b604051620001e69190620016b1565b60405180910390f35b348015620001fc57600080fd5b506200020762000646565b604051620002169190620018fe565b60405180910390f35b3480156200022c57600080fd5b506200024b60048036038101906200024591906200130d565b6200064d565b6040516200025a9190620018fe565b60405180910390f35b3480156200027057600080fd5b506200027b620006dd565b005b3480156200028a57600080fd5b50620002956200076e565b604051620002a49190620016b1565b60405180910390f35b348015620002ba57600080fd5b50620002c562000797565b604051620002d49190620018fe565b60405180910390f35b348015620002ea57600080fd5b50620002f5620008bb565b604051620003049190620018e1565b60405180910390f35b3480156200031a57600080fd5b5062000325620008e1565b005b6200034560048036038101906200033f9190620013a3565b62000986565b604051620003549190620016b1565b60405180910390f35b3480156200036a57600080fd5b506200038960048036038101906200038391906200130d565b62000c76565b604051620003989190620018fe565b60405180910390f35b348015620003ae57600080fd5b50620003cd6004803603810190620003c791906200130d565b62000d06565b005b348015620003dc57600080fd5b50620003fb6004803603810190620003f591906200130d565b62000d71565b005b3480156200040a57600080fd5b506200042960048036038101906200042391906200130d565b62000e38565b60405162000438919062001795565b60405180910390f35b3480156200044e57600080fd5b506200046d60048036038101906200046791906200130d565b62000f07565b005b6000808290508073ffffffffffffffffffffffffffffffffffffffff1663c032846b6040518163ffffffff1660e01b815260040160206040518083038186803b158015620004bc57600080fd5b505afa158015620004d1573d6000803e3d6000fd5b505050506040513d601f19601f82011682018060405250810190620004f791906200133f565b915050919050565b6000600260009054906101000a900473ffffffffffffffffffffffffffffffffffffffff16905090565b6000806000905060005b60048054905081101562000636576000600482815481106200055a576200055962001bc1565b5b9060005260206000200160009054906101000a900473ffffffffffffffffffffffffffffffffffffffff1690506200061d8173ffffffffffffffffffffffffffffffffffffffff1663243d9a5d6040518163ffffffff1660e01b815260040160206040518083038186803b158015620005d257600080fd5b505afa158015620005e7573d6000803e3d6000fd5b505050506040513d601f19601f820116820180604052508101906200060d919062001371565b846200100b90919063ffffffff16565b92505080806200062d9062001add565b91505062000533565b508091505090565b600030905090565b6201518081565b6000808290508073ffffffffffffffffffffffffffffffffffffffff16633fad18346040518163ffffffff1660e01b815260040160206040518083038186803b1580156200069a57600080fd5b505afa158015620006af573d6000803e3d6000fd5b505050506040513d601f19601f82011682018060405250810190620006d5919062001371565b915050919050565b620006e762001023565b73ffffffffffffffffffffffffffffffffffffffff16620007076200076e565b73ffffffffffffffffffffffffffffffffffffffff161462000760576040517f08c379a000000000000000000000000000000000000000000000000000000000815260040162000757906200189d565b60405180910390fd5b6200076c60006200102b565b565b60008060009054906101000a900473ffffffffffffffffffffffffffffffffffffffff16905090565b6000806000905060005b600480549050811015620008b357600060048281548110620007c857620007c762001bc1565b5b9060005260206000200160009054906101000a900473ffffffffffffffffffffffffffffffffffffffff16905060008173ffffffffffffffffffffffffffffffffffffffff1663c032846b6040518163ffffffff1660e01b815260040160206040518083038186803b1580156200083e57600080fd5b505afa15801562000853573d6000803e3d6000fd5b505050506040513d601f19601f820116820180604052508101906200087991906200133f565b905080156200089b57620008986001856200100b90919063ffffffff16565b93505b50508080620008aa9062001add565b915050620007a1565b508091505090565b620008c562001262565b6003604051806020016040529081600082015481525050905090565b620008eb62001023565b73ffffffffffffffffffffffffffffffffffffffff166200090b6200076e565b73ffffffffffffffffffffffffffffffffffffffff161462000964576040517f08c379a00000000000000000000000000000000000000000000000000000000081526004016200095b906200189d565b60405180910390fd5b6200096e6200076e565b73ffffffffffffffffffffffffffffffffffffffff16ff5b600080620009b6620009a6601e62015180620010ef90919063ffffffff16565b866200110790919063ffffffff16565b14620009f9576040517f08c379a0000000000000000000000000000000000000000000000000000000008152600401620009f09062001837565b60405180910390fd5b600082101562000a40576040517f08c379a000000000000000000000000000000000000000000000000000000000815260040162000a37906200187b565b60405180910390fd5b6000831162000a86576040517f08c379a000000000000000000000000000000000000000000000000000000000815260040162000a7d9062001859565b60405180910390fd5b82341462000acb576040517f08c379a000000000000000000000000000000000000000000000000000000000815260040162000ac29062001815565b60405180910390fd5b600062000ad76200111f565b90506000338686868560405162000aee9062001275565b62000afe959493929190620016ce565b604051809103906000f08015801562000b1b573d6000803e3d6000fd5b50905062000b2a60036200124c565b6004819080600181540180825580915050600190039060005260206000200160009091909190916101000a81548173ffffffffffffffffffffffffffffffffffffffff021916908373ffffffffffffffffffffffffffffffffffffffff160217905550600560003373ffffffffffffffffffffffffffffffffffffffff1673ffffffffffffffffffffffffffffffffffffffff168152602001908152602001600020819080600181540180825580915050600190039060005260206000200160009091909190916101000a81548173ffffffffffffffffffffffffffffffffffffffff021916908373ffffffffffffffffffffffffffffffffffffffff1602179055507fa44aa7756c3391a11525eeee40213754bf3aee2a051d2597433fb40572a47d7681868660405162000c629392919062001758565b60405180910390a180925050509392505050565b6000808290508073ffffffffffffffffffffffffffffffffffffffff16630f76c1146040518163ffffffff1660e01b815260040160206040518083038186803b15801562000cc357600080fd5b505afa15801562000cd8573d6000803e3d6000fd5b505050506040513d601f19601f8201168201806040525081019062000cfe919062001371565b915050919050565b60008190508073ffffffffffffffffffffffffffffffffffffffff1663a241c0896040518163ffffffff1660e01b8152600401600060405180830381600087803b15801562000d5457600080fd5b505af115801562000d69573d6000803e3d6000fd5b505050505050565b62000d7b62001023565b73ffffffffffffffffffffffffffffffffffffffff1662000d9b6200076e565b73ffffffffffffffffffffffffffffffffffffffff161462000df4576040517f08c379a000000000000000000000000000000000000000000000000000000000815260040162000deb906200189d565b60405180910390fd5b80600260006101000a81548173ffffffffffffffffffffffffffffffffffffffff021916908373ffffffffffffffffffffffffffffffffffffffff16021790555050565b6060600560008373ffffffffffffffffffffffffffffffffffffffff1673ffffffffffffffffffffffffffffffffffffffff16815260200190815260200160002080548060200260200160405190810160405280929190818152602001828054801562000efb57602002820191906000526020600020905b8160009054906101000a900473ffffffffffffffffffffffffffffffffffffffff1673ffffffffffffffffffffffffffffffffffffffff168152602001906001019080831162000eb0575b50505050509050919050565b62000f1162001023565b73ffffffffffffffffffffffffffffffffffffffff1662000f316200076e565b73ffffffffffffffffffffffffffffffffffffffff161462000f8a576040517f08c379a000000000000000000000000000000000000000000000000000000000815260040162000f81906200189d565b60405180910390fd5b600073ffffffffffffffffffffffffffffffffffffffff168173ffffffffffffffffffffffffffffffffffffffff16141562000ffd576040517f08c379a000000000000000000000000000000000000000000000000000000000815260040162000ff490620017f3565b60405180910390fd5b62001008816200102b565b50565b600081836200101b919062001965565b905092915050565b600033905090565b60008060009054906101000a900473ffffffffffffffffffffffffffffffffffffffff169050816000806101000a81548173ffffffffffffffffffffffffffffffffffffffff021916908373ffffffffffffffffffffffffffffffffffffffff1602179055508173ffffffffffffffffffffffffffffffffffffffff168173ffffffffffffffffffffffffffffffffffffffff167f8be0079c531659141344cd1fd0a4f28419497f9722a3daafe3b4186f6b6457e060405160405180910390a35050565b60008183620010ff9190620019c2565b905092915050565b6000818362001117919062001b2b565b905092915050565b600080600080600080600160009054906101000a900473ffffffffffffffffffffffffffffffffffffffff1673ffffffffffffffffffffffffffffffffffffffff1663bcfd032d73eeeeeeeeeeeeeeeeeeeeeeeeeeeeeeeeeeeeeeee6103486040518363ffffffff1660e01b81526004016200119d9291906200172b565b60a06040518083038186803b158015620011b657600080fd5b505afa158015620011cb573d6000803e3d6000fd5b505050506040513d601f19601f82011682018060405250810190620011f19190620013ff565b945094509450945094506000821162001241576040517f08c379a00000000000000000000000000000000000000000000000000000000081526004016200123890620018bf565b60405180910390fd5b839550505050505090565b6001816000016000828254019250508190555050565b6040518060200160405280600081525090565b611a6d8062001e2f83390190565b600081359050620012948162001dac565b92915050565b600081519050620012ab8162001dc6565b92915050565b600081519050620012c28162001de0565b92915050565b600081359050620012d98162001dfa565b92915050565b600081519050620012f08162001dfa565b92915050565b600081519050620013078162001e14565b92915050565b60006020828403121562001326576200132562001bf0565b5b6000620013368482850162001283565b91505092915050565b60006020828403121562001358576200135762001bf0565b5b600062001368848285016200129a565b91505092915050565b6000602082840312156200138a576200138962001bf0565b5b60006200139a84828501620012df565b91505092915050565b600080600060608486031215620013bf57620013be62001bf0565b5b6000620013cf86828701620012c8565b9350506020620013e286828701620012c8565b9250506040620013f586828701620012c8565b9150509250925092565b600080600080600060a086880312156200141e576200141d62001bf0565b5b60006200142e88828901620012f6565b95505060206200144188828901620012b1565b94505060406200145488828901620012df565b93505060606200146788828901620012df565b92505060806200147a88828901620012f6565b9150509295509295909350565b6000620014958383620014b2565b60208301905092915050565b620014ac8162001a37565b82525050565b620014bd8162001a23565b82525050565b620014ce8162001a23565b82525050565b6000620014e1826200192b565b620014ed818562001943565b9350620014fa836200191b565b8060005b838110156200153157815162001515888262001487565b9750620015228362001936565b925050600181019050620014fe565b5085935050505092915050565b620015498162001a4b565b82525050565b6200155a8162001aa1565b82525050565b60006200156f60268362001954565b91506200157c8262001bf5565b604082019050919050565b60006200159660358362001954565b9150620015a38262001c44565b604082019050919050565b6000620015bd602c8362001954565b9150620015ca8262001c93565b604082019050919050565b6000620015e4601e8362001954565b9150620015f18262001ce2565b602082019050919050565b60006200160b60238362001954565b9150620016188262001d0b565b604082019050919050565b60006200163260208362001954565b91506200163f8262001d5a565b602082019050919050565b60006200165960128362001954565b9150620016668262001d83565b602082019050919050565b6020820160008201516200168960008501826200168f565b50505050565b6200169a8162001a81565b82525050565b620016ab8162001a81565b82525050565b6000602082019050620016c86000830184620014c3565b92915050565b600060a082019050620016e56000830188620014a1565b620016f46020830187620016a0565b620017036040830186620016a0565b620017126060830185620016a0565b620017216080830184620016a0565b9695505050505050565b6000604082019050620017426000830185620014c3565b620017516020830184620014c3565b9392505050565b60006060820190506200176f6000830186620014c3565b6200177e6020830185620016a0565b6200178d6040830184620016a0565b949350505050565b60006020820190508181036000830152620017b18184620014d4565b905092915050565b6000602082019050620017d060008301846200153e565b92915050565b6000602082019050620017ed60008301846200154f565b92915050565b600060208201905081810360008301526200180e8162001560565b9050919050565b60006020820190508181036000830152620018308162001587565b9050919050565b600060208201905081810360008301526200185281620015ae565b9050919050565b600060208201905081810360008301526200187481620015d5565b9050919050565b600060208201905081810360008301526200189681620015fc565b9050919050565b60006020820190508181036000830152620018b88162001623565b9050919050565b60006020820190508181036000830152620018da816200164a565b9050919050565b6000602082019050620018f8600083018462001671565b92915050565b6000602082019050620019156000830184620016a0565b92915050565b6000819050602082019050919050565b600081519050919050565b6000602082019050919050565b600082825260208201905092915050565b600082825260208201905092915050565b6000620019728262001a81565b91506200197f8362001a81565b9250827fffffffffffffffffffffffffffffffffffffffffffffffffffffffffffffffff03821115620019b757620019b662001b63565b5b828201905092915050565b6000620019cf8262001a81565b9150620019dc8362001a81565b9250817fffffffffffffffffffffffffffffffffffffffffffffffffffffffffffffffff048311821515161562001a185762001a1762001b63565b5b828202905092915050565b600062001a308262001a61565b9050919050565b600062001a448262001a61565b9050919050565b60008115159050919050565b6000819050919050565b600073ffffffffffffffffffffffffffffffffffffffff82169050919050565b6000819050919050565b600069ffffffffffffffffffff82169050919050565b600062001aae8262001ab5565b9050919050565b600062001ac28262001ac9565b9050919050565b600062001ad68262001a61565b9050919050565b600062001aea8262001a81565b91507fffffffffffffffffffffffffffffffffffffffffffffffffffffffffffffffff82141562001b205762001b1f62001b63565b5b600182019050919050565b600062001b388262001a81565b915062001b458362001a81565b92508262001b585762001b5762001b92565b5b828206905092915050565b7f4e487b7100000000000000000000000000000000000000000000000000000000600052601160045260246000fd5b7f4e487b7100000000000000000000000000000000000000000000000000000000600052601260045260246000fd5b7f4e487b7100000000000000000000000000000000000000000000000000000000600052603260045260246000fd5b600080fd5b7f4f776e61626c653a206e6577206f776e657220697320746865207a65726f206160008201527f6464726573730000000000000000000000000000000000000000000000000000602082015250565b7f5072656d69756d206d7573742062652070616964206174207468652074696d6560008201527f206f6620636f6e7472616374206372656174696f6e0000000000000000000000602082015250565b7f436f766572206475726174696f6e206d75737420626520696e206d756c69706c60008201527f65206f6620333020646179730000000000000000000000000000000000000000602082015250565b7f5072656d69756d206d7573742062652067726561746572207468616e20300000600082015250565b7f5061796f75742076616c7565206d75737420626520677265617465722074686160008201527f6e20300000000000000000000000000000000000000000000000000000000000602082015250565b7f4f776e61626c653a2063616c6c6572206973206e6f7420746865206f776e6572600082015250565b7f526f756e64206e6f7420636f6d706c6574650000000000000000000000000000600082015250565b62001db78162001a23565b811462001dc357600080fd5b50565b62001dd18162001a4b565b811462001ddd57600080fd5b50565b62001deb8162001a57565b811462001df757600080fd5b50565b62001e058162001a81565b811462001e1157600080fd5b50565b62001e1f8162001a8b565b811462001e2b57600080fd5b5056fe60806040526000600960016101000a81548160ff0219169083151502179055506000600a5542600b556000600c553480156200003a57600080fd5b5060405162001a6d38038062001a6d83398181016040528101906200006091906200033a565b62000080620000746200024060201b60201c565b6200024860201b60201c565b731363bdce312532f864e84924d54c7da5edb5b1bc600160006101000a81548173ffffffffffffffffffffffffffffffffffffffff021916908373ffffffffffffffffffffffffffffffffffffffff16021790555033600260006101000a81548173ffffffffffffffffffffffffffffffffffffffff021916908373ffffffffffffffffffffffffffffffffffffffff16021790555084600360006101000a81548173ffffffffffffffffffffffffffffffffffffffff021916908373ffffffffffffffffffffffffffffffffffffffff160217905550426004819055508360058190555082600681905550816007819055506001600960006101000a81548160ff02191690831515021790555080600881905550600360009054906101000a900473ffffffffffffffffffffffffffffffffffffffff1673ffffffffffffffffffffffffffffffffffffffff167f0203790cae2ea31823a6382172bd46011fcfbab29b22bb78b4b2f266febf6072600260009054906101000a900473ffffffffffffffffffffffffffffffffffffffff166005546006546007546040516200022d9493929190620003e4565b60405180910390a25050505050620004bc565b600033905090565b60008060009054906101000a900473ffffffffffffffffffffffffffffffffffffffff169050816000806101000a81548173ffffffffffffffffffffffffffffffffffffffff021916908373ffffffffffffffffffffffffffffffffffffffff1602179055508173ffffffffffffffffffffffffffffffffffffffff168173ffffffffffffffffffffffffffffffffffffffff167f8be0079c531659141344cd1fd0a4f28419497f9722a3daafe3b4186f6b6457e060405160405180910390a35050565b6000815190506200031d8162000488565b92915050565b6000815190506200033481620004a2565b92915050565b600080600080600060a0868803121562000359576200035862000483565b5b600062000369888289016200030c565b95505060206200037c8882890162000323565b94505060406200038f8882890162000323565b9350506060620003a28882890162000323565b9250506080620003b58882890162000323565b9150509295509295909350565b620003cd8162000431565b82525050565b620003de8162000479565b82525050565b6000608082019050620003fb6000830187620003c2565b6200040a6020830186620003d3565b620004196040830185620003d3565b620004286060830184620003d3565b95945050505050565b60006200043e8262000459565b9050919050565b6000620004528262000459565b9050919050565b600073ffffffffffffffffffffffffffffffffffffffff82169050919050565b6000819050919050565b600080fd5b620004938162000445565b81146200049f57600080fd5b50565b620004ad8162000479565b8114620004b957600080fd5b50565b6115a180620004cc6000396000f3fe608060405234801561001057600080fd5b50600436106101005760003560e01c8063ad2e8c9b11610097578063dbc837c511610066578063dbc837c514610245578063dcbacd1114610263578063e3ea4ef214610281578063f2fde38b1461029f57610100565b8063ad2e8c9b146101cd578063b0b30fee146101eb578063c032846b14610209578063c97440291461022757610100565b80635fdc6281116100d35780635fdc62811461017d578063715018a61461019b5780638da5cb5b146101a5578063a241c089146101c357610100565b80630f76c11414610105578063243d9a5d146101235780633fad18341461014157806359dc735c1461015f575b600080fd5b61010d6102bb565b60405161011a919061111c565b60405180910390f35b61012b6102c5565b604051610138919061111c565b60405180910390f35b6101496102cf565b604051610156919061111c565b60405180910390f35b6101676102d9565b6040516101749190610fd9565b60405180910390f35b610185610303565b604051610192919061111c565b60405180910390f35b6101a361030a565b005b6101ad610392565b6040516101ba9190610fd9565b60405180910390f35b6101cb6103bb565b005b6101d5610599565b6040516101e2919061111c565b60405180910390f35b6101f36105a3565b6040516102009190611046565b60405180910390f35b6102116105ba565b60405161021e9190611046565b60405180910390f35b61022f6105d1565b60405161023c919061111c565b60405180910390f35b61024d6105db565b60405161025a9190611061565b60405180910390f35b61026b610601565b604051610278919061111c565b60405180910390f35b61028961060b565b604051610296919061111c565b60405180910390f35b6102b960048036038101906102b49190610e0a565b610615565b005b6000600a54905090565b6000600754905090565b6000600c54905090565b6000600360009054906101000a900473ffffffffffffffffffffffffffffffffffffffff16905090565b6201518081565b61031261070d565b73ffffffffffffffffffffffffffffffffffffffff16610330610392565b73ffffffffffffffffffffffffffffffffffffffff1614610386576040517f08c379a000000000000000000000000000000000000000000000000000000000815260040161037d906110dc565b60405180910390fd5b6103906000610715565b565b60008060009054906101000a900473ffffffffffffffffffffffffffffffffffffffff16905090565b60011515600960009054906101000a900460ff16151514610411576040517f08c379a0000000000000000000000000000000000000000000000000000000008152600401610408906110bc565b60405180910390fd5b61041961070d565b73ffffffffffffffffffffffffffffffffffffffff16610437610392565b73ffffffffffffffffffffffffffffffffffffffff161461048d576040517f08c379a0000000000000000000000000000000000000000000000000000000008152600401610484906110dc565b60405180910390fd5b6104b96104a7600c620151806107d990919063ffffffff16565b620151806107ef90919063ffffffff16565b6104ce600b54426107ef90919063ffffffff16565b1161050e576040517f08c379a00000000000000000000000000000000000000000000000000000000081526004016105059061107c565b60405180910390fd5b610516610805565b600960009054906101000a900460ff161561059757610533610a15565b600a8190555042600b819055506105566001600c54610b3990919063ffffffff16565b600c819055506105856064610577600a600854610b4f90919063ffffffff16565b6107d990919063ffffffff16565b600a541161059657610595610b65565b5b5b565b6000600554905090565b6000600960019054906101000a900460ff16905090565b6000600960009054906101000a900460ff16905090565b6000600654905090565b600260009054906101000a900473ffffffffffffffffffffffffffffffffffffffff1681565b6000600454905090565b6000600b54905090565b61061d61070d565b73ffffffffffffffffffffffffffffffffffffffff1661063b610392565b73ffffffffffffffffffffffffffffffffffffffff1614610691576040517f08c379a0000000000000000000000000000000000000000000000000000000008152600401610688906110dc565b60405180910390fd5b600073ffffffffffffffffffffffffffffffffffffffff168173ffffffffffffffffffffffffffffffffffffffff161415610701576040517f08c379a00000000000000000000000000000000000000000000000000000000081526004016106f89061109c565b60405180910390fd5b61070a81610715565b50565b600033905090565b60008060009054906101000a900473ffffffffffffffffffffffffffffffffffffffff169050816000806101000a81548173ffffffffffffffffffffffffffffffffffffffff021916908373ffffffffffffffffffffffffffffffffffffffff1602179055508173ffffffffffffffffffffffffffffffffffffffff168173ffffffffffffffffffffffffffffffffffffffff167f8be0079c531659141344cd1fd0a4f28419497f9722a3daafe3b4186f6b6457e060405160405180910390a35050565b600081836107e791906111d5565b905092915050565b600081836107fd9190611260565b905092915050565b4261081d600554600454610b3990919063ffffffff16565b1015610a1357600261083d620151806005546107d990919063ffffffff16565b6108479190611260565b600c541015610987576000600260009054906101000a900473ffffffffffffffffffffffffffffffffffffffff1673ffffffffffffffffffffffffffffffffffffffff1663300752fc6040518163ffffffff1660e01b815260040160206040518083038186803b1580156108ba57600080fd5b505afa1580156108ce573d6000803e3d6000fd5b505050506040513d601f19601f820116820180604052508101906108f29190610e37565b90508073ffffffffffffffffffffffffffffffffffffffff1663b48ae273600360009054906101000a900473ffffffffffffffffffffffffffffffffffffffff166007546040518363ffffffff1660e01b8152600401610953929190610ff4565b600060405180830381600087803b15801561096d57600080fd5b505af1158015610981573d6000803e3d6000fd5b50505050505b6000600960006101000a81548160ff021916908315150217905550600360009054906101000a900473ffffffffffffffffffffffffffffffffffffffff1673ffffffffffffffffffffffffffffffffffffffff167ff1c35e3933051ea28efca558462a55cac66003050f2c6f4e96833a696fa444e242604051610a0a919061111c565b60405180910390a25b565b600080600080600080600160009054906101000a900473ffffffffffffffffffffffffffffffffffffffff1673ffffffffffffffffffffffffffffffffffffffff1663bcfd032d73eeeeeeeeeeeeeeeeeeeeeeeeeeeeeeeeeeeeeeee6103486040518363ffffffff1660e01b8152600401610a9192919061101d565b60a06040518083038186803b158015610aa957600080fd5b505afa158015610abd573d6000803e3d6000fd5b505050506040513d601f19601f82011682018060405250810190610ae19190610e64565b9450945094509450945060008211610b2e576040517f08c379a0000000000000000000000000000000000000000000000000000000008152600401610b25906110fc565b60405180910390fd5b839550505050505090565b60008183610b47919061117f565b905092915050565b60008183610b5d9190611206565b905092915050565b60011515600960009054906101000a900460ff16151514610bbb576040517f08c379a0000000000000000000000000000000000000000000000000000000008152600401610bb2906110bc565b60405180910390fd5b6000600260009054906101000a900473ffffffffffffffffffffffffffffffffffffffff1673ffffffffffffffffffffffffffffffffffffffff1663300752fc6040518163ffffffff1660e01b815260040160206040518083038186803b158015610c2557600080fd5b505afa158015610c39573d6000803e3d6000fd5b505050506040513d601f19601f82011682018060405250810190610c5d9190610e37565b90508073ffffffffffffffffffffffffffffffffffffffff1663b48ae273600360009054906101000a900473ffffffffffffffffffffffffffffffffffffffff166007546040518363ffffffff1660e01b8152600401610cbe929190610ff4565b600060405180830381600087803b158015610cd857600080fd5b505af1158015610cec573d6000803e3d6000fd5b50505050600360009054906101000a900473ffffffffffffffffffffffffffffffffffffffff1673ffffffffffffffffffffffffffffffffffffffff167f7ff8589a935e376dabc873be633a3fc8c5902e06a5d8cedcaa9ecacc095dbe1d42600754600a54604051610d6093929190611137565b60405180910390a26000600960006101000a81548160ff0219169083151502179055506001600960016101000a81548160ff02191690831515021790555050565b600081359050610db0816114f8565b92915050565b600081519050610dc58161150f565b92915050565b600081519050610dda81611526565b92915050565b600081519050610def8161153d565b92915050565b600081519050610e0481611554565b92915050565b600060208284031215610e2057610e1f6113b4565b5b6000610e2e84828501610da1565b91505092915050565b600060208284031215610e4d57610e4c6113b4565b5b6000610e5b84828501610db6565b91505092915050565b600080600080600060a08688031215610e8057610e7f6113b4565b5b6000610e8e88828901610df5565b9550506020610e9f88828901610dcb565b9450506040610eb088828901610de0565b9350506060610ec188828901610de0565b9250506080610ed288828901610df5565b9150509295509295909350565b610ee8816112a6565b82525050565b610ef781611294565b82525050565b610f06816112b8565b82525050565b610f1581611320565b82525050565b6000610f2860278361116e565b9150610f33826113b9565b604082019050919050565b6000610f4b60268361116e565b9150610f5682611408565b604082019050919050565b6000610f6e60318361116e565b9150610f7982611457565b604082019050919050565b6000610f9160208361116e565b9150610f9c826114a6565b602082019050919050565b6000610fb460128361116e565b9150610fbf826114cf565b602082019050919050565b610fd381611300565b82525050565b6000602082019050610fee6000830184610eee565b92915050565b60006040820190506110096000830185610edf565b6110166020830184610fca565b9392505050565b60006040820190506110326000830185610eee565b61103f6020830184610eee565b9392505050565b600060208201905061105b6000830184610efd565b92915050565b60006020820190506110766000830184610f0c565b92915050565b6000602082019050818103600083015261109581610f1b565b9050919050565b600060208201905081810360008301526110b581610f3e565b9050919050565b600060208201905081810360008301526110d581610f61565b9050919050565b600060208201905081810360008301526110f581610f84565b9050919050565b6000602082019050818103600083015261111581610fa7565b9050919050565b60006020820190506111316000830184610fca565b92915050565b600060608201905061114c6000830186610fca565b6111596020830185610fca565b6111666040830184610fca565b949350505050565b600082825260208201905092915050565b600061118a82611300565b915061119583611300565b9250827fffffffffffffffffffffffffffffffffffffffffffffffffffffffffffffffff038211156111ca576111c9611356565b5b828201905092915050565b60006111e082611300565b91506111eb83611300565b9250826111fb576111fa611385565b5b828204905092915050565b600061121182611300565b915061121c83611300565b9250817fffffffffffffffffffffffffffffffffffffffffffffffffffffffffffffffff048311821515161561125557611254611356565b5b828202905092915050565b600061126b82611300565b915061127683611300565b92508282101561128957611288611356565b5b828203905092915050565b600061129f826112e0565b9050919050565b60006112b1826112e0565b9050919050565b60008115159050919050565b60006112cf82611294565b9050919050565b6000819050919050565b600073ffffffffffffffffffffffffffffffffffffffff82169050919050565b6000819050919050565b600069ffffffffffffffffffff82169050919050565b600061132b82611332565b9050919050565b600061133d82611344565b9050919050565b600061134f826112e0565b9050919050565b7f4e487b7100000000000000000000000000000000000000000000000000000000600052601160045260246000fd5b7f4e487b7100000000000000000000000000000000000000000000000000000000600052601260045260246000fd5b600080fd5b7f43616e206f6e6c7920636865636b20746f6b656e2076616c7565206f6e63652060008201527f7065722064617900000000000000000000000000000000000000000000000000602082015250565b7f4f776e61626c653a206e6577206f776e657220697320746865207a65726f206160008201527f6464726573730000000000000000000000000000000000000000000000000000602082015250565b7f436f6e74726163742068617320656e6465642c2063616e7420696e746572616360008201527f74207769746820697420616e796d6f7265000000000000000000000000000000602082015250565b7f4f776e61626c653a2063616c6c6572206973206e6f7420746865206f776e6572600082015250565b7f526f756e64206e6f7420636f6d706c6574650000000000000000000000000000600082015250565b61150181611294565b811461150c57600080fd5b50565b611518816112c4565b811461152357600080fd5b50565b61152f816112d6565b811461153a57600080fd5b50565b61154681611300565b811461155157600080fd5b50565b61155d8161130a565b811461156857600080fd5b5056fea2646970667358221220497a9a40dbcc97ba0adccdd31b440eec0e5c5799ed9c877766b1212290e48b3d64736f6c63430008070033a264697066735822122050e79f59f4ef1ba6057a3d38e6d16fc059ff812c18bb596d22d6e5f958b5022164736f6c63430008070033",
  "immutableReferences": {},
  "source": "// SPDX-License-Identifier: MIT\r\npragma solidity >=0.4.22 <0.9.0;\r\n\r\nimport \"@openzeppelin/contracts/access/Ownable.sol\";\r\nimport \"@openzeppelin/contracts/utils/math/SafeMath.sol\";\r\nimport \"@chainlink/contracts/src/v0.8/interfaces/FeedRegistryInterface.sol\";\r\nimport \"@openzeppelin/contracts/utils/Counters.sol\";\r\nimport \"./Denominations.sol\";\r\nimport \"./InsuranceContract.sol\";\r\nimport \"./Pool.sol\";\r\n\r\ncontract InsuranceProvider is Ownable {\r\n  using SafeMath for uint;\r\n  using Counters for Counters.Counter;\r\n  \r\n  FeedRegistryInterface internal registry;\r\n  Pool private capitalPool;\r\n  \r\n  uint public constant DAY_IN_SECONDS = 86400; //Seconds in a day. 60 for testing, 86400 for Production\r\n  \r\n  Counters.Counter private _contractCount;\r\n  address[] contracts;\r\n\r\n  mapping(address => address[]) clientContract;\r\n\r\n  constructor() {\r\n    registry = FeedRegistryInterface(0x1363bdCE312532F864e84924D54c7dA5eDB5B1BC);\r\n  }\r\n    \r\n  event contractCreated(address _insuranceContract, uint _premium, uint _totalCover);\r\n    \r\n  function newContract(uint _duration, uint _premium, uint _payoutValue) public payable returns(address) {\r\n    require(_duration.mod(DAY_IN_SECONDS.mul(30)) == 0, 'Cover duration must be in muliple of 30 days');\r\n    require(_payoutValue >= 0, 'Payout value must be greater than 0');\r\n    require(_premium > 0, 'Premium must be greater than 0');\r\n    require(msg.value == _premium, 'Premium must be paid at the time of contract creation');\r\n        \r\n    uint _collateralValue = uint(getLatestPrice()); //Calculate collateral value based on current price;\r\n        \r\n    address contractAddr = address(new InsuranceContract(payable(msg.sender), _duration, _premium, _payoutValue, _collateralValue));\r\n\r\n    _contractCount.increment();\r\n    contracts.push(contractAddr);\r\n    clientContract[msg.sender].push(contractAddr);\r\n\r\n    emit contractCreated(contractAddr, _premium, _payoutValue);\r\n\r\n    return contractAddr;\r\n  }\r\n\r\n  function setCapitalPool(address _pool) external onlyOwner {\r\n    capitalPool = Pool(_pool);\r\n  }\r\n\r\n  function getCapitalPool() external view returns (Pool) {\r\n    return capitalPool;\r\n  }\r\n    \r\n  /// @notice Explain to an end user what this does\r\n  /// @dev Explain to a developer any extra details\r\n  /// @param _client polyjuice address of client\r\n  /// @return all contracts of client\r\n  function getClientContracts(address _client) external view returns (address[] memory) {\r\n    return clientContract[_client];\r\n  }\r\n\r\n  function getContractCount() external view returns(Counters.Counter memory) {\r\n    return _contractCount;\r\n  }\r\n\r\n  function getTotalContractValue() external view returns(uint) {\r\n    uint totalContractValue = 0;\r\n    for (uint256 i = 0; i < contracts.length; i++) {\r\n      InsuranceContract insuranceContract = InsuranceContract(contracts[i]);\r\n      totalContractValue = totalContractValue.add(insuranceContract.getPayoutValue());\r\n    }\r\n\r\n    return totalContractValue;\r\n  }\r\n\r\n  function getActiveContractCount() external view returns(uint) {\r\n    uint activeContractCount = 0;\r\n    for (uint256 i = 0; i < contracts.length; i++) {\r\n      InsuranceContract insuranceContract = InsuranceContract(contracts[i]);\r\n      bool isActive = insuranceContract.getContractStatus();\r\n\r\n      if(isActive) {\r\n        activeContractCount = activeContractCount.add(1);\r\n      }\r\n    }\r\n\r\n    return activeContractCount;\r\n  }\r\n\r\n  function updateContract(address _contract) external {\r\n    InsuranceContract insuranceContract = InsuranceContract(_contract);\r\n    insuranceContract.updateContract();\r\n  }\r\n\r\n  function getContractCurrentValue(address _contract) external view returns(uint) {\r\n    InsuranceContract insuranceContract = InsuranceContract(_contract);\r\n    return insuranceContract.getCurrentValue();\r\n  }\r\n\r\n  function getContractRequestCount(address _contract) external view returns(uint) {\r\n    InsuranceContract insuranceContract = InsuranceContract(_contract);\r\n    return insuranceContract.getRequestCount();\r\n  }\r\n\r\n  function getInsurer() external view returns (address) {\r\n    return address(this);\r\n  }\r\n\r\n  function getContractStatus(address _contract) external view returns (bool) {\r\n    InsuranceContract insuranceContract = InsuranceContract(_contract);\r\n    return insuranceContract.getContractStatus();\r\n  }\r\n\r\n  function endContractProvider() external onlyOwner() {\r\n    selfdestruct(payable(owner()));\r\n  }\r\n\r\n  function getLatestPrice() internal view returns (int) {\r\n    (\r\n      uint80 roundID, \r\n      int price,\r\n      uint startedAt,\r\n      uint timeStamp,\r\n      uint80 answeredInRound\r\n    ) = registry.latestRoundData(Denominations.ETH, Denominations.USD);\r\n    require(timeStamp > 0, \"Round not complete\");\r\n        \r\n    return price;\r\n  }\r\n}",
  "sourcePath": "C:\\Users\\Chaitanya\\Documents\\Projects\\nervos-insure\\contracts\\InsuranceProvider.sol",
  "compiler": {
    "name": "solc",
    "version": "0.8.7+commit.e28d00a7.Emscripten.clang"
  },
  "schemaVersion": "3.4.3",
  "updatedAt": "2021-10-06T15:45:15.659Z",
  "networkType": "ethereum",
  "devdoc": {
    "kind": "dev",
    "methods": {
      "getClientContracts(address)": {
        "details": "Explain to a developer any extra details",
        "params": {
          "_client": "polyjuice address of client"
        },
        "returns": {
          "_0": "all contracts of client"
        }
      },
      "owner()": {
        "details": "Returns the address of the current owner."
      },
      "renounceOwnership()": {
        "details": "Leaves the contract without owner. It will not be possible to call `onlyOwner` functions anymore. Can only be called by the current owner. NOTE: Renouncing ownership will leave the contract without an owner, thereby removing any functionality that is only available to the owner."
      },
      "transferOwnership(address)": {
        "details": "Transfers ownership of the contract to a new account (`newOwner`). Can only be called by the current owner."
      }
    },
    "version": 1
  },
  "userdoc": {
    "kind": "user",
    "methods": {
      "getClientContracts(address)": {
        "notice": "Explain to an end user what this does"
      }
    },
    "version": 1
  }
}