{
  "contractName": "InsuranceContract",
  "abi": [
    {
      "inputs": [
        {
          "internalType": "address",
          "name": "_client",
          "type": "address"
        },
        {
          "internalType": "uint256",
          "name": "_duration",
          "type": "uint256"
        },
        {
          "internalType": "uint256",
          "name": "_premium",
          "type": "uint256"
        },
        {
          "internalType": "uint256",
          "name": "_payoutValue",
          "type": "uint256"
        },
        {
          "internalType": "uint256",
          "name": "_collateralValue",
          "type": "uint256"
        }
      ],
      "stateMutability": "nonpayable",
      "type": "constructor"
    },
    {
      "anonymous": false,
      "inputs": [
        {
          "indexed": true,
          "internalType": "address",
          "name": "previousOwner",
          "type": "address"
        },
        {
          "indexed": true,
          "internalType": "address",
          "name": "newOwner",
          "type": "address"
        }
      ],
      "name": "OwnershipTransferred",
      "type": "event"
    },
    {
      "anonymous": false,
      "inputs": [
        {
          "indexed": false,
          "internalType": "address",
          "name": "_insurer",
          "type": "address"
        },
        {
          "indexed": false,
          "internalType": "address",
          "name": "_client",
          "type": "address"
        },
        {
          "indexed": false,
          "internalType": "uint256",
          "name": "_duration",
          "type": "uint256"
        },
        {
          "indexed": false,
          "internalType": "uint256",
          "name": "_premium",
          "type": "uint256"
        },
        {
          "indexed": false,
          "internalType": "uint256",
          "name": "_totalCover",
          "type": "uint256"
        }
      ],
      "name": "contractCreated",
      "type": "event"
    },
    {
      "anonymous": false,
      "inputs": [
        {
          "indexed": false,
          "internalType": "uint256",
          "name": "_endTime",
          "type": "uint256"
        },
        {
          "indexed": false,
          "internalType": "uint256",
          "name": "_totalReturned",
          "type": "uint256"
        }
      ],
      "name": "contractEnded",
      "type": "event"
    },
    {
      "anonymous": false,
      "inputs": [
        {
          "indexed": false,
          "internalType": "uint256",
          "name": "_paidTime",
          "type": "uint256"
        },
        {
          "indexed": false,
          "internalType": "uint256",
          "name": "_totalPaid",
          "type": "uint256"
        },
        {
          "indexed": false,
          "internalType": "uint256",
          "name": "_finalCollateralValue",
          "type": "uint256"
        }
      ],
      "name": "contractPaidOut",
      "type": "event"
    },
    {
      "inputs": [],
      "name": "DAY_IN_SECONDS",
      "outputs": [
        {
          "internalType": "uint256",
          "name": "",
          "type": "uint256"
        }
      ],
      "stateMutability": "view",
      "type": "function"
    },
    {
      "inputs": [],
      "name": "insurer",
      "outputs": [
        {
          "internalType": "address",
          "name": "",
          "type": "address"
        }
      ],
      "stateMutability": "view",
      "type": "function"
    },
    {
      "inputs": [],
      "name": "owner",
      "outputs": [
        {
          "internalType": "address",
          "name": "",
          "type": "address"
        }
      ],
      "stateMutability": "view",
      "type": "function"
    },
    {
      "inputs": [],
      "name": "renounceOwnership",
      "outputs": [],
      "stateMutability": "nonpayable",
      "type": "function"
    },
    {
      "inputs": [
        {
          "internalType": "address",
          "name": "newOwner",
          "type": "address"
        }
      ],
      "name": "transferOwnership",
      "outputs": [],
      "stateMutability": "nonpayable",
      "type": "function"
    },
    {
      "inputs": [],
      "name": "updateContract",
      "outputs": [],
      "stateMutability": "nonpayable",
      "type": "function"
    },
    {
      "inputs": [],
      "name": "getClient",
      "outputs": [
        {
          "internalType": "address",
          "name": "",
          "type": "address"
        }
      ],
      "stateMutability": "view",
      "type": "function"
    },
    {
      "inputs": [],
      "name": "getPayoutValue",
      "outputs": [
        {
          "internalType": "uint256",
          "name": "",
          "type": "uint256"
        }
      ],
      "stateMutability": "view",
      "type": "function"
    },
    {
      "inputs": [],
      "name": "getPremium",
      "outputs": [
        {
          "internalType": "uint256",
          "name": "",
          "type": "uint256"
        }
      ],
      "stateMutability": "view",
      "type": "function"
    },
    {
      "inputs": [],
      "name": "getContractStatus",
      "outputs": [
        {
          "internalType": "bool",
          "name": "",
          "type": "bool"
        }
      ],
      "stateMutability": "view",
      "type": "function"
    },
    {
      "inputs": [],
      "name": "getContractPaid",
      "outputs": [
        {
          "internalType": "bool",
          "name": "",
          "type": "bool"
        }
      ],
      "stateMutability": "view",
      "type": "function"
    },
    {
      "inputs": [],
      "name": "getCurrentValue",
      "outputs": [
        {
          "internalType": "uint256",
          "name": "",
          "type": "uint256"
        }
      ],
      "stateMutability": "view",
      "type": "function"
    },
    {
      "inputs": [],
      "name": "getRequestCount",
      "outputs": [
        {
          "internalType": "uint256",
          "name": "",
          "type": "uint256"
        }
      ],
      "stateMutability": "view",
      "type": "function"
    },
    {
      "inputs": [],
      "name": "getCurrentValueDateChecked",
      "outputs": [
        {
          "internalType": "uint256",
          "name": "",
          "type": "uint256"
        }
      ],
      "stateMutability": "view",
      "type": "function"
    },
    {
      "inputs": [],
      "name": "getDuration",
      "outputs": [
        {
          "internalType": "uint256",
          "name": "",
          "type": "uint256"
        }
      ],
      "stateMutability": "view",
      "type": "function"
    },
    {
      "inputs": [],
      "name": "getContractStartDate",
      "outputs": [
        {
          "internalType": "uint256",
          "name": "",
          "type": "uint256"
        }
      ],
      "stateMutability": "view",
      "type": "function"
    }
  ],
  "bytecode": "0x60806040526000600960016101000a81548160ff0219169083151502179055506000600a5542600b556000600c553480156200003a57600080fd5b506040516200172438038062001724833981810160405281019062000060919062000325565b62000080620000746200022b60201b60201c565b6200023360201b60201c565b730fcbaeba1bd0ebf3cfed672c3e98b4aa76da9546600160006101000a81548173ffffffffffffffffffffffffffffffffffffffff021916908373ffffffffffffffffffffffffffffffffffffffff16021790555033600260006101000a81548173ffffffffffffffffffffffffffffffffffffffff021916908373ffffffffffffffffffffffffffffffffffffffff16021790555084600360006101000a81548173ffffffffffffffffffffffffffffffffffffffff021916908373ffffffffffffffffffffffffffffffffffffffff160217905550426004819055508360058190555082600681905550816007819055506001600960006101000a81548160ff021916908315150217905550806008819055507f0203790cae2ea31823a6382172bd46011fcfbab29b22bb78b4b2f266febf6072600260009054906101000a900473ffffffffffffffffffffffffffffffffffffffff16600360009054906101000a900473ffffffffffffffffffffffffffffffffffffffff1660055460065460075460405162000218959493929190620003cf565b60405180910390a15050505050620004a3565b600033905090565b60008060009054906101000a900473ffffffffffffffffffffffffffffffffffffffff169050816000806101000a81548173ffffffffffffffffffffffffffffffffffffffff021916908373ffffffffffffffffffffffffffffffffffffffff1602179055508173ffffffffffffffffffffffffffffffffffffffff168173ffffffffffffffffffffffffffffffffffffffff167f8be0079c531659141344cd1fd0a4f28419497f9722a3daafe3b4186f6b6457e060405160405180910390a35050565b60008151905062000308816200046f565b92915050565b6000815190506200031f8162000489565b92915050565b600080600080600060a086880312156200034457620003436200046a565b5b60006200035488828901620002f7565b955050602062000367888289016200030e565b94505060406200037a888289016200030e565b93505060606200038d888289016200030e565b9250506080620003a0888289016200030e565b9150509295509295909350565b620003b8816200042c565b82525050565b620003c98162000460565b82525050565b600060a082019050620003e66000830188620003ad565b620003f56020830187620003ad565b620004046040830186620003be565b620004136060830185620003be565b620004226080830184620003be565b9695505050505050565b6000620004398262000440565b9050919050565b600073ffffffffffffffffffffffffffffffffffffffff82169050919050565b6000819050919050565b600080fd5b6200047a816200042c565b81146200048657600080fd5b50565b620004948162000460565b8114620004a057600080fd5b50565b61127180620004b36000396000f3fe608060405234801561001057600080fd5b50600436106101005760003560e01c8063ad2e8c9b11610097578063dbc837c511610066578063dbc837c514610245578063dcbacd1114610263578063e3ea4ef214610281578063f2fde38b1461029f57610100565b8063ad2e8c9b146101cd578063b0b30fee146101eb578063c032846b14610209578063c97440291461022757610100565b80635fdc6281116100d35780635fdc62811461017d578063715018a61461019b5780638da5cb5b146101a5578063a241c089146101c357610100565b80630f76c11414610105578063243d9a5d146101235780633fad18341461014157806359dc735c1461015f575b600080fd5b61010d6102bb565b60405161011a9190610e83565b60405180910390f35b61012b6102c5565b6040516101389190610e83565b60405180910390f35b6101496102cf565b6040516101569190610e83565b60405180910390f35b6101676102d9565b6040516101749190610dcd565b60405180910390f35b610185610303565b6040516101929190610e83565b60405180910390f35b6101a3610308565b005b6101ad610390565b6040516101ba9190610dcd565b60405180910390f35b6101cb6103b9565b005b6101d5610514565b6040516101e29190610e83565b60405180910390f35b6101f361051e565b6040516102009190610de8565b60405180910390f35b610211610535565b60405161021e9190610de8565b60405180910390f35b61022f61054c565b60405161023c9190610e83565b60405180910390f35b61024d610556565b60405161025a9190610dcd565b60405180910390f35b61026b61057c565b6040516102789190610e83565b60405180910390f35b610289610586565b6040516102969190610e83565b60405180910390f35b6102b960048036038101906102b49190610c6c565b610590565b005b6000600a54905090565b6000600754905090565b6000600c54905090565b6000600360009054906101000a900473ffffffffffffffffffffffffffffffffffffffff16905090565b603c81565b610310610688565b73ffffffffffffffffffffffffffffffffffffffff1661032e610390565b73ffffffffffffffffffffffffffffffffffffffff1614610384576040517f08c379a000000000000000000000000000000000000000000000000000000000815260040161037b90610e43565b60405180910390fd5b61038e6000610690565b565b60008060009054906101000a900473ffffffffffffffffffffffffffffffffffffffff16905090565b60011515600960009054906101000a900460ff1615151461040f576040517f08c379a000000000000000000000000000000000000000000000000000000000815260040161040690610e23565b60405180910390fd5b610417610688565b73ffffffffffffffffffffffffffffffffffffffff16610435610390565b73ffffffffffffffffffffffffffffffffffffffff161461048b576040517f08c379a000000000000000000000000000000000000000000000000000000000815260040161048290610e43565b60405180910390fd5b610493610754565b600960009054906101000a900460ff1615610512576104b061094a565b600a8190555042600b819055506001600c60008282546104d09190610f0f565b9250508190555061050060646104f2600a600854610a4b90919063ffffffff16565b610a6190919063ffffffff16565b600a541161051157610510610a77565b5b5b565b6000600554905090565b6000600960019054906101000a900460ff16905090565b6000600960009054906101000a900460ff16905090565b6000600654905090565b600260009054906101000a900473ffffffffffffffffffffffffffffffffffffffff1681565b6000600454905090565b6000600b54905090565b610598610688565b73ffffffffffffffffffffffffffffffffffffffff166105b6610390565b73ffffffffffffffffffffffffffffffffffffffff161461060c576040517f08c379a000000000000000000000000000000000000000000000000000000000815260040161060390610e43565b60405180910390fd5b600073ffffffffffffffffffffffffffffffffffffffff168173ffffffffffffffffffffffffffffffffffffffff16141561067c576040517f08c379a000000000000000000000000000000000000000000000000000000000815260040161067390610e03565b60405180910390fd5b61068581610690565b50565b600033905090565b60008060009054906101000a900473ffffffffffffffffffffffffffffffffffffffff169050816000806101000a81548173ffffffffffffffffffffffffffffffffffffffff021916908373ffffffffffffffffffffffffffffffffffffffff1602179055508173ffffffffffffffffffffffffffffffffffffffff168173ffffffffffffffffffffffffffffffffffffffff167f8be0079c531659141344cd1fd0a4f28419497f9722a3daafe3b4186f6b6457e060405160405180910390a35050565b426005546004546107659190610f0f565b1015610948576002610783603c600554610a6190919063ffffffff16565b61078d9190610ff0565b600c541061080357600260009054906101000a900473ffffffffffffffffffffffffffffffffffffffff1673ffffffffffffffffffffffffffffffffffffffff166108fc479081150290604051600060405180830381858888f193505050501580156107fd573d6000803e3d6000fd5b506108f3565b600360009054906101000a900473ffffffffffffffffffffffffffffffffffffffff1673ffffffffffffffffffffffffffffffffffffffff166108fc6006549081150290604051600060405180830381858888f1935050505015801561086d573d6000803e3d6000fd5b50600260009054906101000a900473ffffffffffffffffffffffffffffffffffffffff1673ffffffffffffffffffffffffffffffffffffffff166108fc479081150290604051600060405180830381858888f193505050501580156108d6573d6000803e3d6000fd5b506001600960016101000a81548160ff0219169083151502179055505b6000600960006101000a81548160ff0219169083151502179055507f71d9f146944417dd66115a997376d9878c3618f396c331a6c3aa82ce653eae14424760405161093f929190610e9e565b60405180910390a15b565b600080600080600080600160009054906101000a900473ffffffffffffffffffffffffffffffffffffffff1673ffffffffffffffffffffffffffffffffffffffff1663feaf968c6040518163ffffffff1660e01b815260040160a06040518083038186803b1580156109bb57600080fd5b505afa1580156109cf573d6000803e3d6000fd5b505050506040513d601f19601f820116820180604052508101906109f39190610c99565b9450945094509450945060008211610a40576040517f08c379a0000000000000000000000000000000000000000000000000000000008152600401610a3790610e63565b60405180910390fd5b839550505050505090565b60008183610a599190610f96565b905092915050565b60008183610a6f9190610f65565b905092915050565b60011515600960009054906101000a900460ff16151514610acd576040517f08c379a0000000000000000000000000000000000000000000000000000000008152600401610ac490610e23565b60405180910390fd5b600360009054906101000a900473ffffffffffffffffffffffffffffffffffffffff1673ffffffffffffffffffffffffffffffffffffffff166108fc6006549081150290604051600060405180830381858888f19350505050158015610b37573d6000803e3d6000fd5b50600260009054906101000a900473ffffffffffffffffffffffffffffffffffffffff1673ffffffffffffffffffffffffffffffffffffffff166108fc479081150290604051600060405180830381858888f19350505050158015610ba0573d6000803e3d6000fd5b507fd8874104029b491ba57b1b4875bd4ba8d4a98bf0261e1fdfac96db44022f95f842600754600a54604051610bd893929190610ec7565b60405180910390a16000600960006101000a81548160ff0219169083151502179055506001600960016101000a81548160ff021916908315150217905550565b600081359050610c27816111df565b92915050565b600081519050610c3c816111f6565b92915050565b600081519050610c518161120d565b92915050565b600081519050610c6681611224565b92915050565b600060208284031215610c8257610c816110ea565b5b6000610c9084828501610c18565b91505092915050565b600080600080600060a08688031215610cb557610cb46110ea565b5b6000610cc388828901610c57565b9550506020610cd488828901610c2d565b9450506040610ce588828901610c42565b9350506060610cf688828901610c42565b9250506080610d0788828901610c57565b9150509295509295909350565b610d1d81611024565b82525050565b610d2c81611036565b82525050565b6000610d3f602683610efe565b9150610d4a826110ef565b604082019050919050565b6000610d62603183610efe565b9150610d6d8261113e565b604082019050919050565b6000610d85602083610efe565b9150610d908261118d565b602082019050919050565b6000610da8601283610efe565b9150610db3826111b6565b602082019050919050565b610dc78161106c565b82525050565b6000602082019050610de26000830184610d14565b92915050565b6000602082019050610dfd6000830184610d23565b92915050565b60006020820190508181036000830152610e1c81610d32565b9050919050565b60006020820190508181036000830152610e3c81610d55565b9050919050565b60006020820190508181036000830152610e5c81610d78565b9050919050565b60006020820190508181036000830152610e7c81610d9b565b9050919050565b6000602082019050610e986000830184610dbe565b92915050565b6000604082019050610eb36000830185610dbe565b610ec06020830184610dbe565b9392505050565b6000606082019050610edc6000830186610dbe565b610ee96020830185610dbe565b610ef66040830184610dbe565b949350505050565b600082825260208201905092915050565b6000610f1a8261106c565b9150610f258361106c565b9250827fffffffffffffffffffffffffffffffffffffffffffffffffffffffffffffffff03821115610f5a57610f5961108c565b5b828201905092915050565b6000610f708261106c565b9150610f7b8361106c565b925082610f8b57610f8a6110bb565b5b828204905092915050565b6000610fa18261106c565b9150610fac8361106c565b9250817fffffffffffffffffffffffffffffffffffffffffffffffffffffffffffffffff0483118215151615610fe557610fe461108c565b5b828202905092915050565b6000610ffb8261106c565b91506110068361106c565b9250828210156110195761101861108c565b5b828203905092915050565b600061102f8261104c565b9050919050565b60008115159050919050565b6000819050919050565b600073ffffffffffffffffffffffffffffffffffffffff82169050919050565b6000819050919050565b600069ffffffffffffffffffff82169050919050565b7f4e487b7100000000000000000000000000000000000000000000000000000000600052601160045260246000fd5b7f4e487b7100000000000000000000000000000000000000000000000000000000600052601260045260246000fd5b600080fd5b7f4f776e61626c653a206e6577206f776e657220697320746865207a65726f206160008201527f6464726573730000000000000000000000000000000000000000000000000000602082015250565b7f436f6e74726163742068617320656e6465642c2063616e7420696e746572616360008201527f74207769746820697420616e796d6f7265000000000000000000000000000000602082015250565b7f4f776e61626c653a2063616c6c6572206973206e6f7420746865206f776e6572600082015250565b7f526f756e64206e6f7420636f6d706c6574650000000000000000000000000000600082015250565b6111e881611024565b81146111f357600080fd5b50565b6111ff81611042565b811461120a57600080fd5b50565b6112168161106c565b811461122157600080fd5b50565b61122d81611076565b811461123857600080fd5b5056fea2646970667358221220e99a665d7b6d30efee76c2007cc05ca2fe3d25ceaf6948eb162fa657de8cb5dc64736f6c63430008070033",
  "immutableReferences": {},
  "source": "// SPDX-License-Identifier: MIT\npragma solidity ^0.8.7;\n\nimport \"@openzeppelin/contracts/access/Ownable.sol\";\nimport \"@openzeppelin/contracts/utils/math/SafeMath.sol\";\nimport \"@chainlink/contracts/src/v0.8/interfaces/AggregatorInterface.sol\";\nimport \"@chainlink/contracts/src/v0.8/interfaces/AggregatorV3Interface.sol\";\n\ncontract InsuranceContract is Ownable {\n  using SafeMath for uint;\n  AggregatorV3Interface internal priceFeed;\n\n  uint public constant DAY_IN_SECONDS = 60; //Seconds in a day. 60 for testing, 86400 for Production\n\n  address public insurer;\n  address client;\n  uint startDate;\n  uint duration;\n  uint premium;\n  uint payoutValue;\n  uint collateralValue;\n    \n  bool contractActive;\n  bool contractPaid = false;\n  uint currentValue = 0;\n  uint currentValueDateChecked = block.timestamp;\n  uint requestCount = 0;\n\n  modifier onContractEnded() {\n    if (startDate + duration < block.timestamp) {\n      _;\n    }\n  }\n\n  modifier onContractActive() {\n    require(contractActive == true ,'Contract has ended, cant interact with it anymore');\n    _;\n  }\n\n  modifier callFrequencyOncePerDay() {\n    require(block.timestamp.sub(currentValueDateChecked) > (DAY_IN_SECONDS.sub(DAY_IN_SECONDS.div(12))),'Can only check token value once per day');\n    _;\n  }\n    \n  event contractCreated(address _insurer, address _client, uint _duration, uint _premium, uint _totalCover);\n  event contractPaidOut(uint _paidTime, uint _totalPaid, uint _finalCollateralValue);\n  event contractEnded(uint _endTime, uint _totalReturned);\n    \n  constructor(address _client, uint _duration, uint _premium, uint _payoutValue, uint _collateralValue) {\n    priceFeed = AggregatorV3Interface(0x0FcBAebA1BD0EbF3cFed672C3e98B4aa76DA9546);\n        \n    insurer = msg.sender;\n    client = _client;\n    startDate = block.timestamp;\n    duration = _duration;\n    premium = _premium;\n    payoutValue = _payoutValue;\n    contractActive = true;\n    collateralValue = _collateralValue;\n        \n    emit contractCreated(insurer, client, duration, premium, payoutValue);\n  }\n    \n  function updateContract() public onContractActive() onlyOwner() {\n    checkEndContract();\n\n    if (contractActive) {\n      currentValue = uint(getLatestPrice());\n      currentValueDateChecked = block.timestamp;\n      requestCount += 1;\n      if(currentValue <= (collateralValue.mul(10)).div(100)) {\n        payOutContract();\n      }\n    }\n        \n  }\n    \n  function payOutContract() private onContractActive() {\n    payable(client).transfer(premium);\n    payable(insurer).transfer(address(this).balance);\n\n    emit contractPaidOut(block.timestamp, payoutValue, currentValue);\n\n    contractActive = false;\n    contractPaid = true;\n        \n  }\n    \n  function checkEndContract() private onContractEnded() {\n    if (requestCount >= (duration.div(DAY_IN_SECONDS) - 2)) {\n      payable(insurer).transfer(address(this).balance);\n    } else {\n      //Insurer did not make required no of requests\n      payable(client).transfer(premium);\n      payable(insurer).transfer(address(this).balance);\n      contractPaid = true;\n    }\n\n    contractActive = false;\n    emit contractEnded(block.timestamp, address(this).balance);\n  }\n    \n  function getLatestPrice() internal view returns (int) {\n    (\n      uint80 roundID,\n      int price,\n      uint startedAt,\n      uint timeStamp,\n      uint80 answeredInRound\n    ) = priceFeed.latestRoundData();\n    require(timeStamp > 0, \"Round not complete\");\n        \n    return price;\n  }\n\n  function getClient() external view returns (address) {\n    return client;\n  }\n    \n  function getPayoutValue() external view returns (uint) {\n    return payoutValue;\n  }\n\n  function getPremium() external view returns (uint) {\n    return premium;\n  }\n\n  function getContractStatus() external view returns (bool) {\n    return contractActive;\n  }\n\n  function getContractPaid() external view returns (bool) {\n    return contractPaid;\n  }\n    \n  function getCurrentValue() external view returns (uint) {\n    return currentValue;\n  }\n\n  function getRequestCount() external view returns (uint) {\n    return requestCount;\n  }\n\n  function getCurrentValueDateChecked() external view returns (uint) {\n    return currentValueDateChecked;\n  }\n\n  function getDuration() external view returns (uint) {\n    return duration;\n  }\n\n  function getContractStartDate() external view returns (uint) {\n    return startDate;\n  }\n}",
  "sourcePath": "C:\\Users\\Chaitanya\\Documents\\Projects\\nervos-insure\\contracts\\InsuranceContract.sol",
  "compiler": {
    "name": "solc",
    "version": "0.8.7+commit.e28d00a7.Emscripten.clang"
  },
  "schemaVersion": "3.4.3",
  "updatedAt": "2021-10-03T05:42:01.871Z",
  "devdoc": {
    "kind": "dev",
    "methods": {
      "owner()": {
        "details": "Returns the address of the current owner."
      },
      "renounceOwnership()": {
        "details": "Leaves the contract without owner. It will not be possible to call `onlyOwner` functions anymore. Can only be called by the current owner. NOTE: Renouncing ownership will leave the contract without an owner, thereby removing any functionality that is only available to the owner."
      },
      "transferOwnership(address)": {
        "details": "Transfers ownership of the contract to a new account (`newOwner`). Can only be called by the current owner."
      }
    },
    "version": 1
  },
  "userdoc": {
    "kind": "user",
    "methods": {},
    "version": 1
  }
}