{
  "contractName": "InsuranceProvider",
  "abi": [
    {
      "inputs": [],
      "stateMutability": "nonpayable",
      "type": "constructor"
    },
    {
      "anonymous": false,
      "inputs": [
        {
          "indexed": true,
          "internalType": "address",
          "name": "previousOwner",
          "type": "address"
        },
        {
          "indexed": true,
          "internalType": "address",
          "name": "newOwner",
          "type": "address"
        }
      ],
      "name": "OwnershipTransferred",
      "type": "event"
    },
    {
      "anonymous": false,
      "inputs": [
        {
          "indexed": false,
          "internalType": "address",
          "name": "_insuranceContract",
          "type": "address"
        },
        {
          "indexed": false,
          "internalType": "uint256",
          "name": "_premium",
          "type": "uint256"
        },
        {
          "indexed": false,
          "internalType": "uint256",
          "name": "_totalCover",
          "type": "uint256"
        }
      ],
      "name": "contractCreated",
      "type": "event"
    },
    {
      "inputs": [],
      "name": "DAY_IN_SECONDS",
      "outputs": [
        {
          "internalType": "uint256",
          "name": "",
          "type": "uint256"
        }
      ],
      "stateMutability": "view",
      "type": "function",
      "constant": true
    },
    {
      "inputs": [],
      "name": "insurer",
      "outputs": [
        {
          "internalType": "address",
          "name": "",
          "type": "address"
        }
      ],
      "stateMutability": "view",
      "type": "function",
      "constant": true
    },
    {
      "inputs": [],
      "name": "owner",
      "outputs": [
        {
          "internalType": "address",
          "name": "",
          "type": "address"
        }
      ],
      "stateMutability": "view",
      "type": "function",
      "constant": true
    },
    {
      "inputs": [],
      "name": "renounceOwnership",
      "outputs": [],
      "stateMutability": "nonpayable",
      "type": "function"
    },
    {
      "inputs": [
        {
          "internalType": "address",
          "name": "newOwner",
          "type": "address"
        }
      ],
      "name": "transferOwnership",
      "outputs": [],
      "stateMutability": "nonpayable",
      "type": "function"
    },
    {
      "inputs": [
        {
          "internalType": "address",
          "name": "_client",
          "type": "address"
        },
        {
          "internalType": "uint256",
          "name": "_duration",
          "type": "uint256"
        },
        {
          "internalType": "uint256",
          "name": "_premium",
          "type": "uint256"
        },
        {
          "internalType": "uint256",
          "name": "_payoutValue",
          "type": "uint256"
        }
      ],
      "name": "newContract",
      "outputs": [
        {
          "internalType": "address",
          "name": "",
          "type": "address"
        }
      ],
      "stateMutability": "payable",
      "type": "function",
      "payable": true
    },
    {
      "inputs": [
        {
          "internalType": "address",
          "name": "_contract",
          "type": "address"
        }
      ],
      "name": "getContract",
      "outputs": [
        {
          "internalType": "contract InsuranceContract",
          "name": "",
          "type": "address"
        }
      ],
      "stateMutability": "view",
      "type": "function",
      "constant": true
    },
    {
      "inputs": [
        {
          "internalType": "address",
          "name": "_client",
          "type": "address"
        }
      ],
      "name": "getClientContract",
      "outputs": [
        {
          "internalType": "contract InsuranceContract",
          "name": "",
          "type": "address"
        }
      ],
      "stateMutability": "view",
      "type": "function",
      "constant": true
    },
    {
      "inputs": [
        {
          "internalType": "address",
          "name": "_contract",
          "type": "address"
        }
      ],
      "name": "updateContract",
      "outputs": [],
      "stateMutability": "nonpayable",
      "type": "function"
    },
    {
      "inputs": [
        {
          "internalType": "address",
          "name": "_contract",
          "type": "address"
        }
      ],
      "name": "getContractCurrentValue",
      "outputs": [
        {
          "internalType": "uint256",
          "name": "",
          "type": "uint256"
        }
      ],
      "stateMutability": "view",
      "type": "function",
      "constant": true
    },
    {
      "inputs": [
        {
          "internalType": "address",
          "name": "_contract",
          "type": "address"
        }
      ],
      "name": "getContractRequestCount",
      "outputs": [
        {
          "internalType": "uint256",
          "name": "",
          "type": "uint256"
        }
      ],
      "stateMutability": "view",
      "type": "function",
      "constant": true
    },
    {
      "inputs": [],
      "name": "getInsurer",
      "outputs": [
        {
          "internalType": "address",
          "name": "",
          "type": "address"
        }
      ],
      "stateMutability": "view",
      "type": "function",
      "constant": true
    },
    {
      "inputs": [
        {
          "internalType": "address",
          "name": "_address",
          "type": "address"
        }
      ],
      "name": "getContractStatus",
      "outputs": [
        {
          "internalType": "bool",
          "name": "",
          "type": "bool"
        }
      ],
      "stateMutability": "view",
      "type": "function",
      "constant": true
    },
    {
      "inputs": [],
      "name": "getContractBalance",
      "outputs": [
        {
          "internalType": "uint256",
          "name": "",
          "type": "uint256"
        }
      ],
      "stateMutability": "view",
      "type": "function",
      "constant": true
    },
    {
      "inputs": [],
      "name": "endContractProvider",
      "outputs": [],
      "stateMutability": "nonpayable",
      "type": "function"
    }
  ],
  "bytecode": "0x608060405234801561001057600080fd5b5061002d6100226100c860201b60201c565b6100d060201b60201c565b33600160006101000a81548173ffffffffffffffffffffffffffffffffffffffff021916908373ffffffffffffffffffffffffffffffffffffffff160217905550730fcbaeba1bd0ebf3cfed672c3e98b4aa76da9546600260006101000a81548173ffffffffffffffffffffffffffffffffffffffff021916908373ffffffffffffffffffffffffffffffffffffffff160217905550610194565b600033905090565b60008060009054906101000a900473ffffffffffffffffffffffffffffffffffffffff169050816000806101000a81548173ffffffffffffffffffffffffffffffffffffffff021916908373ffffffffffffffffffffffffffffffffffffffff1602179055508173ffffffffffffffffffffffffffffffffffffffff168173ffffffffffffffffffffffffffffffffffffffff167f8be0079c531659141344cd1fd0a4f28419497f9722a3daafe3b4186f6b6457e060405160405180910390a35050565b612c00806101a36000396000f3fe608060405260043610620000fe5760003560e01c80638da5cb5b1162000097578063dbc837c51162000061578063dbc837c5146200033d578063de8c8976146200036d578063e3db17b814620003b1578063f2fde38b14620003df57620000fe565b80638da5cb5b1462000279578063a1219c4214620002a9578063a424191d14620002c3578063bc47a074146200030757620000fe565b80635fdc628111620000d95780635fdc628114620001bb5780636896c87014620001eb5780636f9fb98a146200022f578063715018a6146200025f57620000fe565b80630ad1c2fa1462000103578063125716d614620001475780635d0c1476146200018b575b600080fd5b3480156200011057600080fd5b506200012f600480360381019062000129919062000ec9565b6200040d565b6040516200013e9190620011e6565b60405180910390f35b3480156200015457600080fd5b506200017360048036038101906200016d919062000ec9565b62000476565b604051620001829190620011c9565b60405180910390f35b3480156200019857600080fd5b50620001a362000506565b604051620001b2919062001112565b60405180910390f35b348015620001c857600080fd5b50620001d362000530565b604051620001e2919062001269565b60405180910390f35b348015620001f857600080fd5b5062000217600480360381019062000211919062000ec9565b62000535565b60405162000226919062001269565b60405180910390f35b3480156200023c57600080fd5b5062000247620005c5565b60405162000256919062001269565b60405180910390f35b3480156200026c57600080fd5b5062000277620005cd565b005b3480156200028657600080fd5b50620002916200065e565b604051620002a0919062001112565b60405180910390f35b348015620002b657600080fd5b50620002c162000687565b005b348015620002d057600080fd5b50620002ef6004803603810190620002e9919062000ec9565b62000745565b604051620002fe9190620011e6565b60405180910390f35b6200032560048036038101906200031f919062000efb565b62000812565b60405162000334919062001112565b60405180910390f35b3480156200034a57600080fd5b506200035562000a38565b60405162000364919062001112565b60405180910390f35b3480156200037a57600080fd5b5062000399600480360381019062000393919062000ec9565b62000a5e565b604051620003a8919062001269565b60405180910390f35b348015620003be57600080fd5b50620003dd6004803603810190620003d7919062000ec9565b62000aee565b005b348015620003ec57600080fd5b506200040b600480360381019062000405919062000ec9565b62000b59565b005b6000600360008373ffffffffffffffffffffffffffffffffffffffff1673ffffffffffffffffffffffffffffffffffffffff16815260200190815260200160002060009054906101000a900473ffffffffffffffffffffffffffffffffffffffff169050919050565b6000808290508073ffffffffffffffffffffffffffffffffffffffff1663c032846b6040518163ffffffff1660e01b815260040160206040518083038186803b158015620004c357600080fd5b505afa158015620004d8573d6000803e3d6000fd5b505050506040513d601f19601f82011682018060405250810190620004fe919062000f6d565b915050919050565b6000600160009054906101000a900473ffffffffffffffffffffffffffffffffffffffff16905090565b603c81565b6000808290508073ffffffffffffffffffffffffffffffffffffffff16633fad18346040518163ffffffff1660e01b815260040160206040518083038186803b1580156200058257600080fd5b505afa15801562000597573d6000803e3d6000fd5b505050506040513d601f19601f82011682018060405250810190620005bd919062000f9f565b915050919050565b600047905090565b620005d762000c5d565b73ffffffffffffffffffffffffffffffffffffffff16620005f76200065e565b73ffffffffffffffffffffffffffffffffffffffff161462000650576040517f08c379a0000000000000000000000000000000000000000000000000000000008152600401620006479062001225565b60405180910390fd5b6200065c600062000c65565b565b60008060009054906101000a900473ffffffffffffffffffffffffffffffffffffffff16905090565b6200069162000c5d565b73ffffffffffffffffffffffffffffffffffffffff16620006b16200065e565b73ffffffffffffffffffffffffffffffffffffffff16146200070a576040517f08c379a0000000000000000000000000000000000000000000000000000000008152600401620007019062001225565b60405180910390fd5b600160009054906101000a900473ffffffffffffffffffffffffffffffffffffffff1673ffffffffffffffffffffffffffffffffffffffff16ff5b600080600460008473ffffffffffffffffffffffffffffffffffffffff1673ffffffffffffffffffffffffffffffffffffffff16815260200190815260200160002060009054906101000a900473ffffffffffffffffffffffffffffffffffffffff169050600360008273ffffffffffffffffffffffffffffffffffffffff1673ffffffffffffffffffffffffffffffffffffffff16815260200190815260200160002060009054906101000a900473ffffffffffffffffffffffffffffffffffffffff16915050919050565b60006200081e62000c5d565b73ffffffffffffffffffffffffffffffffffffffff166200083e6200065e565b73ffffffffffffffffffffffffffffffffffffffff161462000897576040517f08c379a00000000000000000000000000000000000000000000000000000000081526004016200088e9062001225565b60405180910390fd5b6000620008a362000d29565b90506000838787878786604051620008bb9062000e31565b620008cb9594939291906200116c565b6040518091039082f0905080158015620008e9573d6000803e3d6000fd5b509050600081905080600360008473ffffffffffffffffffffffffffffffffffffffff1673ffffffffffffffffffffffffffffffffffffffff16815260200190815260200160002060006101000a81548173ffffffffffffffffffffffffffffffffffffffff021916908373ffffffffffffffffffffffffffffffffffffffff16021790555081600460003373ffffffffffffffffffffffffffffffffffffffff1673ffffffffffffffffffffffffffffffffffffffff16815260200190815260200160002060006101000a81548173ffffffffffffffffffffffffffffffffffffffff021916908373ffffffffffffffffffffffffffffffffffffffff1602179055507fa44aa7756c3391a11525eeee40213754bf3aee2a051d2597433fb40572a47d7681348760405162000a22939291906200112f565b60405180910390a1809350505050949350505050565b600160009054906101000a900473ffffffffffffffffffffffffffffffffffffffff1681565b6000808290508073ffffffffffffffffffffffffffffffffffffffff16630f76c1146040518163ffffffff1660e01b815260040160206040518083038186803b15801562000aab57600080fd5b505afa15801562000ac0573d6000803e3d6000fd5b505050506040513d601f19601f8201168201806040525081019062000ae6919062000f9f565b915050919050565b60008190508073ffffffffffffffffffffffffffffffffffffffff1663a241c0896040518163ffffffff1660e01b8152600401600060405180830381600087803b15801562000b3c57600080fd5b505af115801562000b51573d6000803e3d6000fd5b505050505050565b62000b6362000c5d565b73ffffffffffffffffffffffffffffffffffffffff1662000b836200065e565b73ffffffffffffffffffffffffffffffffffffffff161462000bdc576040517f08c379a000000000000000000000000000000000000000000000000000000000815260040162000bd39062001225565b60405180910390fd5b600073ffffffffffffffffffffffffffffffffffffffff168173ffffffffffffffffffffffffffffffffffffffff16141562000c4f576040517f08c379a000000000000000000000000000000000000000000000000000000000815260040162000c469062001203565b60405180910390fd5b62000c5a8162000c65565b50565b600033905090565b60008060009054906101000a900473ffffffffffffffffffffffffffffffffffffffff169050816000806101000a81548173ffffffffffffffffffffffffffffffffffffffff021916908373ffffffffffffffffffffffffffffffffffffffff1602179055508173ffffffffffffffffffffffffffffffffffffffff168173ffffffffffffffffffffffffffffffffffffffff167f8be0079c531659141344cd1fd0a4f28419497f9722a3daafe3b4186f6b6457e060405160405180910390a35050565b600080600080600080600260009054906101000a900473ffffffffffffffffffffffffffffffffffffffff1673ffffffffffffffffffffffffffffffffffffffff1663feaf968c6040518163ffffffff1660e01b815260040160a06040518083038186803b15801562000d9b57600080fd5b505afa15801562000db0573d6000803e3d6000fd5b505050506040513d601f19601f8201168201806040525081019062000dd6919062000fd1565b945094509450945094506000821162000e26576040517f08c379a000000000000000000000000000000000000000000000000000000000815260040162000e1d9062001247565b60405180910390fd5b839550505050505090565b611765806200146683390190565b60008135905062000e5081620013e3565b92915050565b60008151905062000e6781620013fd565b92915050565b60008151905062000e7e8162001417565b92915050565b60008135905062000e958162001431565b92915050565b60008151905062000eac8162001431565b92915050565b60008151905062000ec3816200144b565b92915050565b60006020828403121562000ee25762000ee16200133d565b5b600062000ef28482850162000e3f565b91505092915050565b6000806000806080858703121562000f185762000f176200133d565b5b600062000f288782880162000e3f565b945050602062000f3b8782880162000e84565b935050604062000f4e8782880162000e84565b925050606062000f618782880162000e84565b91505092959194509250565b60006020828403121562000f865762000f856200133d565b5b600062000f968482850162000e56565b91505092915050565b60006020828403121562000fb85762000fb76200133d565b5b600062000fc88482850162000e9b565b91505092915050565b600080600080600060a0868803121562000ff05762000fef6200133d565b5b6000620010008882890162000eb2565b9550506020620010138882890162000e6d565b9450506040620010268882890162000e9b565b9350506060620010398882890162000e9b565b92505060806200104c8882890162000eb2565b9150509295509295909350565b620010648162001297565b82525050565b6200107581620012ab565b82525050565b620010868162001301565b82525050565b60006200109b60268362001286565b9150620010a88262001342565b604082019050919050565b6000620010c260208362001286565b9150620010cf8262001391565b602082019050919050565b6000620010e960128362001286565b9150620010f682620013ba565b602082019050919050565b6200110c81620012e1565b82525050565b600060208201905062001129600083018462001059565b92915050565b600060608201905062001146600083018662001059565b62001155602083018562001101565b62001164604083018462001101565b949350505050565b600060a08201905062001183600083018862001059565b62001192602083018762001101565b620011a1604083018662001101565b620011b0606083018562001101565b620011bf608083018462001101565b9695505050505050565b6000602082019050620011e060008301846200106a565b92915050565b6000602082019050620011fd60008301846200107b565b92915050565b600060208201905081810360008301526200121e816200108c565b9050919050565b600060208201905081810360008301526200124081620010b3565b9050919050565b600060208201905081810360008301526200126281620010da565b9050919050565b600060208201905062001280600083018462001101565b92915050565b600082825260208201905092915050565b6000620012a482620012c1565b9050919050565b60008115159050919050565b6000819050919050565b600073ffffffffffffffffffffffffffffffffffffffff82169050919050565b6000819050919050565b600069ffffffffffffffffffff82169050919050565b60006200130e8262001315565b9050919050565b6000620013228262001329565b9050919050565b60006200133682620012c1565b9050919050565b600080fd5b7f4f776e61626c653a206e6577206f776e657220697320746865207a65726f206160008201527f6464726573730000000000000000000000000000000000000000000000000000602082015250565b7f4f776e61626c653a2063616c6c6572206973206e6f7420746865206f776e6572600082015250565b7f526f756e64206e6f7420636f6d706c6574650000000000000000000000000000600082015250565b620013ee8162001297565b8114620013fa57600080fd5b50565b6200140881620012ab565b81146200141457600080fd5b50565b6200142281620012b7565b81146200142e57600080fd5b50565b6200143c81620012e1565b81146200144857600080fd5b50565b6200145681620012eb565b81146200146257600080fd5b5056fe60806040526000600960016101000a81548160ff0219169083151502179055506000600a5542600b556000600c55604051620017653803806200176583398181016040528101906200005291906200035d565b62000072620000666200026360201b60201c565b6200026b60201b60201c565b730fcbaeba1bd0ebf3cfed672c3e98b4aa76da9546600160006101000a81548173ffffffffffffffffffffffffffffffffffffffff021916908373ffffffffffffffffffffffffffffffffffffffff160217905550813410156200010d576040517f08c379a000000000000000000000000000000000000000000000000000000000815260040162000104906200048b565b60405180910390fd5b33600260006101000a81548173ffffffffffffffffffffffffffffffffffffffff021916908373ffffffffffffffffffffffffffffffffffffffff16021790555084600360006101000a81548173ffffffffffffffffffffffffffffffffffffffff021916908373ffffffffffffffffffffffffffffffffffffffff160217905550426004819055508360058190555082600681905550816007819055506001600960006101000a81548160ff021916908315150217905550806008819055507f0203790cae2ea31823a6382172bd46011fcfbab29b22bb78b4b2f266febf6072600260009054906101000a900473ffffffffffffffffffffffffffffffffffffffff16600360009054906101000a900473ffffffffffffffffffffffffffffffffffffffff16600554600654600754604051620002509594939291906200042e565b60405180910390a1505050505062000584565b600033905090565b60008060009054906101000a900473ffffffffffffffffffffffffffffffffffffffff169050816000806101000a81548173ffffffffffffffffffffffffffffffffffffffff021916908373ffffffffffffffffffffffffffffffffffffffff1602179055508173ffffffffffffffffffffffffffffffffffffffff168173ffffffffffffffffffffffffffffffffffffffff167f8be0079c531659141344cd1fd0a4f28419497f9722a3daafe3b4186f6b6457e060405160405180910390a35050565b600081519050620003408162000550565b92915050565b60008151905062000357816200056a565b92915050565b600080600080600060a086880312156200037c576200037b620004fc565b5b60006200038c888289016200032f565b95505060206200039f8882890162000346565b9450506040620003b28882890162000346565b9350506060620003c58882890162000346565b9250506080620003d88882890162000346565b9150509295509295909350565b620003f081620004be565b82525050565b600062000405602183620004ad565b9150620004128262000501565b604082019050919050565b6200042881620004f2565b82525050565b600060a082019050620004456000830188620003e5565b620004546020830187620003e5565b6200046360408301866200041d565b6200047260608301856200041d565b6200048160808301846200041d565b9695505050505050565b60006020820190508181036000830152620004a681620003f6565b9050919050565b600082825260208201905092915050565b6000620004cb82620004d2565b9050919050565b600073ffffffffffffffffffffffffffffffffffffffff82169050919050565b6000819050919050565b600080fd5b7f4e6f7420656e6f7567682066756e64732073656e7420746f20636f6e7472616360008201527f7400000000000000000000000000000000000000000000000000000000000000602082015250565b6200055b81620004be565b81146200056757600080fd5b50565b6200057581620004f2565b81146200058157600080fd5b50565b6111d180620005946000396000f3fe608060405234801561001057600080fd5b50600436106101165760003560e01c8063ad2e8c9b116100a2578063c974402911610071578063c974402914610279578063dbc837c514610297578063dcbacd11146102b5578063e3ea4ef2146102d3578063f2fde38b146102f157610116565b8063ad2e8c9b14610201578063b0b30fee1461021f578063bbe4fd501461023d578063c032846b1461025b57610116565b80636f9fb98a116100e95780636f9fb98a14610193578063715018a6146101b15780638da5cb5b146101bb5780638e15f473146101d9578063a241c089146101f757610116565b80630f76c1141461011b578063243d9a5d146101395780633fad1834146101575780635fdc628114610175575b600080fd5b61012361030d565b6040516101309190610de3565b60405180910390f35b610141610317565b60405161014e9190610de3565b60405180910390f35b61015f610321565b60405161016c9190610de3565b60405180910390f35b61017d61032b565b60405161018a9190610de3565b60405180910390f35b61019b610330565b6040516101a89190610de3565b60405180910390f35b6101b9610338565b005b6101c36103c0565b6040516101d09190610d12565b60405180910390f35b6101e16103e9565b6040516101ee9190610d48565b60405180910390f35b6101ff6104ea565b005b6102096105c9565b6040516102169190610de3565b60405180910390f35b6102276105d3565b6040516102349190610d2d565b60405180910390f35b6102456105ea565b6040516102529190610de3565b60405180910390f35b6102636105f2565b6040516102709190610d2d565b60405180910390f35b610281610609565b60405161028e9190610de3565b60405180910390f35b61029f610613565b6040516102ac9190610d12565b60405180910390f35b6102bd610639565b6040516102ca9190610de3565b60405180910390f35b6102db610643565b6040516102e89190610de3565b60405180910390f35b61030b60048036038101906103069190610ba2565b61064d565b005b6000600a54905090565b6000600754905090565b6000600c54905090565b603c81565b600047905090565b610340610745565b73ffffffffffffffffffffffffffffffffffffffff1661035e6103c0565b73ffffffffffffffffffffffffffffffffffffffff16146103b4576040517f08c379a00000000000000000000000000000000000000000000000000000000081526004016103ab90610da3565b60405180910390fd5b6103be600061074d565b565b60008060009054906101000a900473ffffffffffffffffffffffffffffffffffffffff16905090565b600080600080600080600160009054906101000a900473ffffffffffffffffffffffffffffffffffffffff1673ffffffffffffffffffffffffffffffffffffffff1663feaf968c6040518163ffffffff1660e01b815260040160a06040518083038186803b15801561045a57600080fd5b505afa15801561046e573d6000803e3d6000fd5b505050506040513d601f19601f820116820180604052508101906104929190610bcf565b94509450945094509450600082116104df576040517f08c379a00000000000000000000000000000000000000000000000000000000081526004016104d690610dc3565b60405180910390fd5b839550505050505090565b60011515600960009054906101000a900460ff16151514610540576040517f08c379a000000000000000000000000000000000000000000000000000000000815260040161053790610d83565b60405180910390fd5b610548610811565b600960009054906101000a900460ff16156105c7576105656103e9565b600a8190555042600b819055506001600c60008282546105859190610e6f565b925050819055506105b560646105a7600a6008546109ec90919063ffffffff16565b610a0290919063ffffffff16565b600a54116105c6576105c5610a18565b5b5b565b6000600554905090565b6000600960019054906101000a900460ff16905090565b600042905090565b6000600960009054906101000a900460ff16905090565b6000600654905090565b600260009054906101000a900473ffffffffffffffffffffffffffffffffffffffff1681565b6000600454905090565b6000600b54905090565b610655610745565b73ffffffffffffffffffffffffffffffffffffffff166106736103c0565b73ffffffffffffffffffffffffffffffffffffffff16146106c9576040517f08c379a00000000000000000000000000000000000000000000000000000000081526004016106c090610da3565b60405180910390fd5b600073ffffffffffffffffffffffffffffffffffffffff168173ffffffffffffffffffffffffffffffffffffffff161415610739576040517f08c379a000000000000000000000000000000000000000000000000000000000815260040161073090610d63565b60405180910390fd5b6107428161074d565b50565b600033905090565b60008060009054906101000a900473ffffffffffffffffffffffffffffffffffffffff169050816000806101000a81548173ffffffffffffffffffffffffffffffffffffffff021916908373ffffffffffffffffffffffffffffffffffffffff1602179055508173ffffffffffffffffffffffffffffffffffffffff168173ffffffffffffffffffffffffffffffffffffffff167f8be0079c531659141344cd1fd0a4f28419497f9722a3daafe3b4186f6b6457e060405160405180910390a35050565b426005546004546108229190610e6f565b10156109ea576002610840603c600554610a0290919063ffffffff16565b61084a9190610f50565b600c54106108c057600260009054906101000a900473ffffffffffffffffffffffffffffffffffffffff1673ffffffffffffffffffffffffffffffffffffffff166108fc479081150290604051600060405180830381858888f193505050501580156108ba573d6000803e3d6000fd5b50610995565b600360009054906101000a900473ffffffffffffffffffffffffffffffffffffffff1673ffffffffffffffffffffffffffffffffffffffff166108fc6006549081150290604051600060405180830381858888f1935050505015801561092a573d6000803e3d6000fd5b50600260009054906101000a900473ffffffffffffffffffffffffffffffffffffffff1673ffffffffffffffffffffffffffffffffffffffff166108fc479081150290604051600060405180830381858888f19350505050158015610993573d6000803e3d6000fd5b505b6000600960006101000a81548160ff0219169083151502179055507f71d9f146944417dd66115a997376d9878c3618f396c331a6c3aa82ce653eae1442476040516109e1929190610dfe565b60405180910390a15b565b600081836109fa9190610ef6565b905092915050565b60008183610a109190610ec5565b905092915050565b60011515600960009054906101000a900460ff16151514610a6e576040517f08c379a0000000000000000000000000000000000000000000000000000000008152600401610a6590610d83565b60405180910390fd5b600360009054906101000a900473ffffffffffffffffffffffffffffffffffffffff1673ffffffffffffffffffffffffffffffffffffffff166108fc479081150290604051600060405180830381858888f19350505050158015610ad6573d6000803e3d6000fd5b507fd8874104029b491ba57b1b4875bd4ba8d4a98bf0261e1fdfac96db44022f95f842600754600a54604051610b0e93929190610e27565b60405180910390a16000600960006101000a81548160ff0219169083151502179055506001600960016101000a81548160ff021916908315150217905550565b600081359050610b5d8161113f565b92915050565b600081519050610b7281611156565b92915050565b600081519050610b878161116d565b92915050565b600081519050610b9c81611184565b92915050565b600060208284031215610bb857610bb761104a565b5b6000610bc684828501610b4e565b91505092915050565b600080600080600060a08688031215610beb57610bea61104a565b5b6000610bf988828901610b8d565b9550506020610c0a88828901610b63565b9450506040610c1b88828901610b78565b9350506060610c2c88828901610b78565b9250506080610c3d88828901610b8d565b9150509295509295909350565b610c5381610f84565b82525050565b610c6281610f96565b82525050565b610c7181610fa2565b82525050565b6000610c84602683610e5e565b9150610c8f8261104f565b604082019050919050565b6000610ca7603183610e5e565b9150610cb28261109e565b604082019050919050565b6000610cca602083610e5e565b9150610cd5826110ed565b602082019050919050565b6000610ced601283610e5e565b9150610cf882611116565b602082019050919050565b610d0c81610fcc565b82525050565b6000602082019050610d276000830184610c4a565b92915050565b6000602082019050610d426000830184610c59565b92915050565b6000602082019050610d5d6000830184610c68565b92915050565b60006020820190508181036000830152610d7c81610c77565b9050919050565b60006020820190508181036000830152610d9c81610c9a565b9050919050565b60006020820190508181036000830152610dbc81610cbd565b9050919050565b60006020820190508181036000830152610ddc81610ce0565b9050919050565b6000602082019050610df86000830184610d03565b92915050565b6000604082019050610e136000830185610d03565b610e206020830184610d03565b9392505050565b6000606082019050610e3c6000830186610d03565b610e496020830185610d03565b610e566040830184610d03565b949350505050565b600082825260208201905092915050565b6000610e7a82610fcc565b9150610e8583610fcc565b9250827fffffffffffffffffffffffffffffffffffffffffffffffffffffffffffffffff03821115610eba57610eb9610fec565b5b828201905092915050565b6000610ed082610fcc565b9150610edb83610fcc565b925082610eeb57610eea61101b565b5b828204905092915050565b6000610f0182610fcc565b9150610f0c83610fcc565b9250817fffffffffffffffffffffffffffffffffffffffffffffffffffffffffffffffff0483118215151615610f4557610f44610fec565b5b828202905092915050565b6000610f5b82610fcc565b9150610f6683610fcc565b925082821015610f7957610f78610fec565b5b828203905092915050565b6000610f8f82610fac565b9050919050565b60008115159050919050565b6000819050919050565b600073ffffffffffffffffffffffffffffffffffffffff82169050919050565b6000819050919050565b600069ffffffffffffffffffff82169050919050565b7f4e487b7100000000000000000000000000000000000000000000000000000000600052601160045260246000fd5b7f4e487b7100000000000000000000000000000000000000000000000000000000600052601260045260246000fd5b600080fd5b7f4f776e61626c653a206e6577206f776e657220697320746865207a65726f206160008201527f6464726573730000000000000000000000000000000000000000000000000000602082015250565b7f436f6e74726163742068617320656e6465642c2063616e7420696e746572616360008201527f74207769746820697420616e796d6f7265000000000000000000000000000000602082015250565b7f4f776e61626c653a2063616c6c6572206973206e6f7420746865206f776e6572600082015250565b7f526f756e64206e6f7420636f6d706c6574650000000000000000000000000000600082015250565b61114881610f84565b811461115357600080fd5b50565b61115f81610fa2565b811461116a57600080fd5b50565b61117681610fcc565b811461118157600080fd5b50565b61118d81610fd6565b811461119857600080fd5b5056fea2646970667358221220a1292266cf5e75c7f70dd96911b97377d8cdbd5970bf5c816dc86a02d5622da864736f6c63430008070033a26469706673582212205262efdfdf079e05921b9c09d748d88ae65ac03dabd4a0855a118bb92060f19764736f6c63430008070033",
  "immutableReferences": {},
  "source": "// SPDX-License-Identifier: MIT\npragma solidity ^0.8.7;\n\nimport \"@openzeppelin/contracts/access/Ownable.sol\";\nimport \"@openzeppelin/contracts/utils/math/SafeMath.sol\";\nimport \"@chainlink/contracts/src/v0.8/interfaces/AggregatorInterface.sol\";\nimport \"@chainlink/contracts/src/v0.8/interfaces/AggregatorV3Interface.sol\";\nimport \"./InsuranceContract.sol\";\n\ncontract InsuranceProvider is Ownable {\n    using SafeMath for uint;\n    \n    address public insurer;\n    AggregatorV3Interface internal priceFeed;\n    \n    uint public constant DAY_IN_SECONDS = 60; //Seconds in a day. 60 for testing, 86400 for Production\n    \n    mapping(address => InsuranceContract) contracts;\n    mapping(address => address) clientToContract;\n\n    constructor() {\n        insurer = payable(msg.sender);\n        priceFeed = AggregatorV3Interface(0x0FcBAebA1BD0EbF3cFed672C3e98B4aa76DA9546);\n    }\n    \n    event contractCreated(address _insuranceContract, uint _premium, uint _totalCover);\n    \n    function newContract(address _client, uint _duration, uint _premium, uint _payoutValue) public payable onlyOwner() returns(address) {\n        // require(_duration >= DAY_IN_SECONDS * 30, 'Cover duration must be atleast 30 days');\n        // require(_payoutValue >= 0, 'Payout value must be greater than 0');\n        // require(_premium > 0, 'Premium must be greater than 0');\n        // require(msg.value == _premium, 'Premium must be paid at the time of contract creation');\n        \n        uint _collateralValue = uint(getLatestPrice()); //Calculate collateral value based on current price;\n        \n        address contractAddr = address((new InsuranceContract){value: _payoutValue}(_client, _duration, _premium, _payoutValue, _collateralValue));\n\n        InsuranceContract insuranceContract = InsuranceContract(contractAddr);\n        contracts[contractAddr] = insuranceContract;\n        clientToContract[msg.sender] = contractAddr;\n\n        emit contractCreated(address(insuranceContract), msg.value, _payoutValue);\n\n        return address(insuranceContract);\n    }\n    \n    function getContract(address _contract) external view returns (InsuranceContract) {\n        return contracts[_contract];\n    }\n    \n    function getClientContract(address _client) external view returns (InsuranceContract) {\n        address contractAddr = clientToContract[_client];\n        return contracts[contractAddr];\n    }\n\n    function updateContract(address _contract) external {\n        InsuranceContract i = InsuranceContract(_contract);\n        i.updateContract();\n    }\n\n    function getContractCurrentValue(address _contract) external view returns(uint) {\n        InsuranceContract i = InsuranceContract(_contract);\n        return i.getCurrentValue();\n    }\n\n    function getContractRequestCount(address _contract) external view returns(uint) {\n        InsuranceContract i = InsuranceContract(_contract);\n        return i.getRequestCount();\n    }\n\n    function getInsurer() external view returns (address) {\n        return insurer;\n    }\n\n    function getContractStatus(address _address) external view returns (bool) {\n        InsuranceContract i = InsuranceContract(_address);\n        return i.getContractStatus();\n    }\n\n    function getContractBalance() external view returns (uint) {\n        return address(this).balance;\n    }\n\n    function endContractProvider() external onlyOwner() {\n        selfdestruct(payable(insurer));\n    }\n\n    function getLatestPrice() internal view returns (int) {\n        (\n            uint80 roundID,\n            int price,\n            uint startedAt,\n            uint timeStamp,\n            uint80 answeredInRound\n        ) = priceFeed.latestRoundData();\n        require(timeStamp > 0, \"Round not complete\");\n\n        return price;\n    }\n}",
  "sourcePath": "C:\\Users\\Chaitanya\\Documents\\Projects\\nervos-insure\\contracts\\InsuranceProvider.sol",
  "compiler": {
    "name": "solc",
    "version": "0.8.7+commit.e28d00a7.Emscripten.clang"
  },
  "schemaVersion": "3.4.3",
  "updatedAt": "2021-09-27T07:19:55.638Z",
  "networkType": "ethereum",
  "devdoc": {
    "kind": "dev",
    "methods": {
      "owner()": {
        "details": "Returns the address of the current owner."
      },
      "renounceOwnership()": {
        "details": "Leaves the contract without owner. It will not be possible to call `onlyOwner` functions anymore. Can only be called by the current owner. NOTE: Renouncing ownership will leave the contract without an owner, thereby removing any functionality that is only available to the owner."
      },
      "transferOwnership(address)": {
        "details": "Transfers ownership of the contract to a new account (`newOwner`). Can only be called by the current owner."
      }
    },
    "version": 1
  },
  "userdoc": {
    "kind": "user",
    "methods": {},
    "version": 1
  }
}