{
  "contractName": "Pool",
  "abi": [
    {
      "inputs": [
        {
          "internalType": "address",
          "name": "_insuranceProvider",
          "type": "address"
        }
      ],
      "stateMutability": "nonpayable",
      "type": "constructor"
    },
    {
      "anonymous": false,
      "inputs": [
        {
          "indexed": true,
          "internalType": "address",
          "name": "_client",
          "type": "address"
        },
        {
          "indexed": false,
          "internalType": "uint256",
          "name": "_payoutValue",
          "type": "uint256"
        },
        {
          "indexed": false,
          "internalType": "uint256",
          "name": "_time",
          "type": "uint256"
        }
      ],
      "name": "Claim",
      "type": "event"
    },
    {
      "anonymous": false,
      "inputs": [
        {
          "indexed": true,
          "internalType": "address",
          "name": "_client",
          "type": "address"
        },
        {
          "indexed": false,
          "internalType": "uint256",
          "name": "_amount",
          "type": "uint256"
        },
        {
          "indexed": false,
          "internalType": "uint256",
          "name": "_timeStart",
          "type": "uint256"
        }
      ],
      "name": "Deposit",
      "type": "event"
    },
    {
      "anonymous": false,
      "inputs": [
        {
          "indexed": true,
          "internalType": "address",
          "name": "_client",
          "type": "address"
        },
        {
          "indexed": false,
          "internalType": "uint256",
          "name": "_amount",
          "type": "uint256"
        },
        {
          "indexed": false,
          "internalType": "uint256",
          "name": "_time",
          "type": "uint256"
        }
      ],
      "name": "Withdraw",
      "type": "event"
    },
    {
      "inputs": [],
      "name": "DAY_IN_SECONDS",
      "outputs": [
        {
          "internalType": "uint256",
          "name": "",
          "type": "uint256"
        }
      ],
      "stateMutability": "view",
      "type": "function",
      "constant": true
    },
    {
      "inputs": [],
      "name": "LOCKIN_PERIOD",
      "outputs": [
        {
          "internalType": "uint256",
          "name": "",
          "type": "uint256"
        }
      ],
      "stateMutability": "view",
      "type": "function",
      "constant": true
    },
    {
      "inputs": [],
      "name": "deposit",
      "outputs": [],
      "stateMutability": "payable",
      "type": "function",
      "payable": true
    },
    {
      "inputs": [
        {
          "internalType": "uint256",
          "name": "_amount",
          "type": "uint256"
        }
      ],
      "name": "withdraw",
      "outputs": [],
      "stateMutability": "nonpayable",
      "type": "function"
    },
    {
      "inputs": [
        {
          "internalType": "address payable",
          "name": "_client",
          "type": "address"
        },
        {
          "internalType": "uint256",
          "name": "_payoutValue",
          "type": "uint256"
        }
      ],
      "name": "claimContract",
      "outputs": [],
      "stateMutability": "nonpayable",
      "type": "function"
    },
    {
      "inputs": [],
      "name": "getReserveAvailableLiquidity",
      "outputs": [
        {
          "internalType": "uint256",
          "name": "",
          "type": "uint256"
        }
      ],
      "stateMutability": "view",
      "type": "function",
      "constant": true
    },
    {
      "inputs": [
        {
          "internalType": "address",
          "name": "_client",
          "type": "address"
        }
      ],
      "name": "balanceOf",
      "outputs": [
        {
          "internalType": "uint256",
          "name": "",
          "type": "uint256"
        }
      ],
      "stateMutability": "view",
      "type": "function",
      "constant": true
    },
    {
      "inputs": [
        {
          "internalType": "address",
          "name": "_client",
          "type": "address"
        }
      ],
      "name": "getWithdrawalUnlockDate",
      "outputs": [
        {
          "internalType": "uint256",
          "name": "",
          "type": "uint256"
        }
      ],
      "stateMutability": "view",
      "type": "function",
      "constant": true
    }
  ],
  "bytecode": "0x60806040523480156200001157600080fd5b50604051620018673803806200186783398181016040528101906200003791906200009e565b600160008190555080600160006101000a81548173ffffffffffffffffffffffffffffffffffffffff021916908373ffffffffffffffffffffffffffffffffffffffff1602179055505062000123565b600081519050620000988162000109565b92915050565b600060208284031215620000b757620000b662000104565b5b6000620000c78482850162000087565b91505092915050565b6000620000dd82620000e4565b9050919050565b600073ffffffffffffffffffffffffffffffffffffffff82169050919050565b600080fd5b6200011481620000d0565b81146200012057600080fd5b50565b61173480620001336000396000f3fe60806040526004361061007b5760003560e01c80635fdc62811161004e5780635fdc62811461013c57806370a0823114610167578063b48ae273146101a4578063d0e30db0146101cd5761007b565b80631be59c60146100805780632116838f146100ab5780632e1a7d4d146100e857806354f3037e14610111575b600080fd5b34801561008c57600080fd5b506100956101d7565b6040516100a291906111ca565b60405180910390f35b3480156100b757600080fd5b506100d260048036038101906100cd9190610e31565b6101dc565b6040516100df91906111ca565b60405180910390f35b3480156100f457600080fd5b5061010f600480360381019061010a9190610f14565b610258565b005b34801561011d57600080fd5b50610126610712565b60405161013391906111ca565b60405180910390f35b34801561014857600080fd5b5061015161071a565b60405161015e91906111ca565b60405180910390f35b34801561017357600080fd5b5061018e60048036038101906101899190610e31565b61071f565b60405161019b91906111ca565b60405180910390f35b3480156101b057600080fd5b506101cb60048036038101906101c69190610e5e565b61078f565b005b6101d5610b54565b005b600781565b600080600260008473ffffffffffffffffffffffffffffffffffffffff1673ffffffffffffffffffffffffffffffffffffffff16815260200190815260200160002060405180604001604052908160008201548152602001600182015481525050905060078160000151610250919061127b565b915050919050565b6002600054141561029e576040517f08c379a0000000000000000000000000000000000000000000000000000000008152600401610295906111aa565b60405180910390fd5b600260008190555080600081116102ea576040517f08c379a00000000000000000000000000000000000000000000000000000000081526004016102e19061110a565b60405180910390fd5b336000600260008373ffffffffffffffffffffffffffffffffffffffff1673ffffffffffffffffffffffffffffffffffffffff168152602001908152602001600020604051806040016040529081600082015481526020016001820154815250509050426007603c61035c91906112d1565b826000015161036b919061127b565b10156103ac576040517f08c379a00000000000000000000000000000000000000000000000000000000081526004016103a3906110ca565b60405180910390fd5b33846000600260008473ffffffffffffffffffffffffffffffffffffffff1673ffffffffffffffffffffffffffffffffffffffff1681526020019081526020016000206040518060400160405290816000820154815260200160018201548152505090508181602001511015610457576040517f08c379a000000000000000000000000000000000000000000000000000000000815260040161044e9061112a565b60405180910390fd5b6000610461610712565b9050878110156104a6576040517f08c379a000000000000000000000000000000000000000000000000000000000815260040161049d906110ea565b60405180910390fd5b6000600260003373ffffffffffffffffffffffffffffffffffffffff1673ffffffffffffffffffffffffffffffffffffffff168152602001908152602001600020604051806040016040529081600082015481526020016001820154815250509050600089826020015161051a919061132b565b905060008114156105b9576000600260003373ffffffffffffffffffffffffffffffffffffffff1673ffffffffffffffffffffffffffffffffffffffff1681526020019081526020016000206000018190555080600260003373ffffffffffffffffffffffffffffffffffffffff1673ffffffffffffffffffffffffffffffffffffffff16815260200190815260200160002060010181905550610601565b80600260003373ffffffffffffffffffffffffffffffffffffffff1673ffffffffffffffffffffffffffffffffffffffff168152602001908152602001600020600101819055505b60003373ffffffffffffffffffffffffffffffffffffffff168b6040516106279061109a565b60006040518083038185875af1925050503d8060008114610664576040519150601f19603f3d011682016040523d82523d6000602084013e610669565b606091505b50509050806106ad576040517f08c379a00000000000000000000000000000000000000000000000000000000081526004016106a49061116a565b60405180910390fd5b3373ffffffffffffffffffffffffffffffffffffffff167ff279e6a1f5e320cca91135676d9cb6e44ca8a08c0b88342bcdb1144f6511b5688c426040516106f59291906111e5565b60405180910390a250505050505050505050600160008190555050565b600047905090565b603c81565b600080600260008473ffffffffffffffffffffffffffffffffffffffff1673ffffffffffffffffffffffffffffffffffffffff1681526020019081526020016000206040518060400160405290816000820154815260200160018201548152505090508060200151915050919050565b600260005414156107d5576040517f08c379a00000000000000000000000000000000000000000000000000000000081526004016107cc906111aa565b60405180910390fd5b600260008190555081336000600160009054906101000a900473ffffffffffffffffffffffffffffffffffffffff1673ffffffffffffffffffffffffffffffffffffffff1663f134a75a846040518263ffffffff1660e01b815260040161083c91906110af565b60006040518083038186803b15801561085457600080fd5b505afa158015610868573d6000803e3d6000fd5b505050506040513d6000823e3d601f19601f820116820180604052508101906108919190610e9e565b90506000805b8251811015610906578373ffffffffffffffffffffffffffffffffffffffff168382815181106108ca576108c9611462565b5b602002602001015173ffffffffffffffffffffffffffffffffffffffff1614156108f357600191505b80806108fe906113ea565b915050610897565b50600115158115151461094e576040517f08c379a00000000000000000000000000000000000000000000000000000000081526004016109459061118a565b60405180910390fd5b336000600160009054906101000a900473ffffffffffffffffffffffffffffffffffffffff1673ffffffffffffffffffffffffffffffffffffffff1663125716d6836040518263ffffffff1660e01b81526004016109ac91906110af565b60206040518083038186803b1580156109c457600080fd5b505afa1580156109d8573d6000803e3d6000fd5b505050506040513d601f19601f820116820180604052508101906109fc9190610ee7565b90506001151581151514610a45576040517f08c379a0000000000000000000000000000000000000000000000000000000008152600401610a3c9061114a565b60405180910390fd5b60008873ffffffffffffffffffffffffffffffffffffffff1688604051610a6b9061109a565b60006040518083038185875af1925050503d8060008114610aa8576040519150601f19603f3d011682016040523d82523d6000602084013e610aad565b606091505b5050905080610af1576040517f08c379a0000000000000000000000000000000000000000000000000000000008152600401610ae89061116a565b60405180910390fd5b8873ffffffffffffffffffffffffffffffffffffffff167f34fcbac0073d7c3d388e51312faf357774904998eeb8fca628b9e6f65ee1cbf78942604051610b399291906111e5565b60405180910390a25050505050505060016000819055505050565b60026000541415610b9a576040517f08c379a0000000000000000000000000000000000000000000000000000000008152600401610b91906111aa565b60405180910390fd5b60026000819055503460008111610be6576040517f08c379a0000000000000000000000000000000000000000000000000000000008152600401610bdd9061110a565b60405180910390fd5b6000600260003373ffffffffffffffffffffffffffffffffffffffff1673ffffffffffffffffffffffffffffffffffffffff16815260200190815260200160002060405180604001604052908160008201548152602001600182015481525050905060004290506000348360200151610c5f919061127b565b9050604051806040016040528083815260200182815250600260003373ffffffffffffffffffffffffffffffffffffffff1673ffffffffffffffffffffffffffffffffffffffff16815260200190815260200160002060008201518160000155602082015181600101559050503373ffffffffffffffffffffffffffffffffffffffff167f90890809c654f11d6e72a28fa60149770a0d11ec6c92319d6ceb2bb0a4ea1a153484604051610d149291906111e5565b60405180910390a2505050506001600081905550565b6000610d3d610d3884611233565b61120e565b90508083825260208201905082856020860282011115610d6057610d5f6114c5565b5b60005b85811015610d905781610d768882610daf565b845260208401935060208301925050600181019050610d63565b5050509392505050565b600081359050610da9816116a2565b92915050565b600081519050610dbe816116a2565b92915050565b600081359050610dd3816116b9565b92915050565b600082601f830112610dee57610ded6114c0565b5b8151610dfe848260208601610d2a565b91505092915050565b600081519050610e16816116d0565b92915050565b600081359050610e2b816116e7565b92915050565b600060208284031215610e4757610e466114cf565b5b6000610e5584828501610d9a565b91505092915050565b60008060408385031215610e7557610e746114cf565b5b6000610e8385828601610dc4565b9250506020610e9485828601610e1c565b9150509250929050565b600060208284031215610eb457610eb36114cf565b5b600082015167ffffffffffffffff811115610ed257610ed16114ca565b5b610ede84828501610dd9565b91505092915050565b600060208284031215610efd57610efc6114cf565b5b6000610f0b84828501610e07565b91505092915050565b600060208284031215610f2a57610f296114cf565b5b6000610f3884828501610e1c565b91505092915050565b610f4a8161135f565b82525050565b6000610f5d60228361126a565b9150610f68826114e5565b604082019050919050565b6000610f8060318361126a565b9150610f8b82611534565b604082019050919050565b6000610fa3601d8361126a565b9150610fae82611583565b602082019050919050565b6000610fc660148361126a565b9150610fd1826115ac565b602082019050919050565b6000610fe960118361126a565b9150610ff4826115d5565b602082019050919050565b600061100c60008361125f565b9150611017826115fe565b600082019050919050565b600061102f60148361126a565b915061103a82611601565b602082019050919050565b6000611052602c8361126a565b915061105d8261162a565b604082019050919050565b6000611075601f8361126a565b915061108082611679565b602082019050919050565b611094816113af565b82525050565b60006110a582610fff565b9150819050919050565b60006020820190506110c46000830184610f41565b92915050565b600060208201905081810360008301526110e381610f50565b9050919050565b6000602082019050818103600083015261110381610f73565b9050919050565b6000602082019050818103600083015261112381610f96565b9050919050565b6000602082019050818103600083015261114381610fb9565b9050919050565b6000602082019050818103600083015261116381610fdc565b9050919050565b6000602082019050818103600083015261118381611022565b9050919050565b600060208201905081810360008301526111a381611045565b9050919050565b600060208201905081810360008301526111c381611068565b9050919050565b60006020820190506111df600083018461108b565b92915050565b60006040820190506111fa600083018561108b565b611207602083018461108b565b9392505050565b6000611218611229565b905061122482826113b9565b919050565b6000604051905090565b600067ffffffffffffffff82111561124e5761124d611491565b5b602082029050602081019050919050565b600081905092915050565b600082825260208201905092915050565b6000611286826113af565b9150611291836113af565b9250827fffffffffffffffffffffffffffffffffffffffffffffffffffffffffffffffff038211156112c6576112c5611433565b5b828201905092915050565b60006112dc826113af565b91506112e7836113af565b9250817fffffffffffffffffffffffffffffffffffffffffffffffffffffffffffffffff04831182151516156113205761131f611433565b5b828202905092915050565b6000611336826113af565b9150611341836113af565b92508282101561135457611353611433565b5b828203905092915050565b600061136a8261138f565b9050919050565b600061137c8261138f565b9050919050565b60008115159050919050565b600073ffffffffffffffffffffffffffffffffffffffff82169050919050565b6000819050919050565b6113c2826114d4565b810181811067ffffffffffffffff821117156113e1576113e0611491565b5b80604052505050565b60006113f5826113af565b91507fffffffffffffffffffffffffffffffffffffffffffffffffffffffffffffffff82141561142857611427611433565b5b600182019050919050565b7f4e487b7100000000000000000000000000000000000000000000000000000000600052601160045260246000fd5b7f4e487b7100000000000000000000000000000000000000000000000000000000600052603260045260246000fd5b7f4e487b7100000000000000000000000000000000000000000000000000000000600052604160045260246000fd5b600080fd5b600080fd5b600080fd5b600080fd5b6000601f19601f8301169050919050565b7f43616e6e6f7420776974686472617720647572696e67206c6f636b207065726960008201527f6f64000000000000000000000000000000000000000000000000000000000000602082015250565b7f5468657265206973206e6f7420656e6f756768206c697175696469747920617660008201527f61696c61626c6520746f2072656465656d000000000000000000000000000000602082015250565b7f416d6f756e74206d7573742062652067726561746572207468616e2030000000600082015250565b7f496e73756666696369656e742062616c616e6365000000000000000000000000600082015250565b7f496e61637469766520636f6e7472616374000000000000000000000000000000600082015250565b50565b7f434b42207472616e73666572206661696c65642e000000000000000000000000600082015250565b7f4f6e6c7920636c69656e7420636f6e7472616374732063616e2063616c6c207460008201527f6869732066756e6374696f6e0000000000000000000000000000000000000000602082015250565b7f5265656e7472616e637947756172643a207265656e7472616e742063616c6c00600082015250565b6116ab8161135f565b81146116b657600080fd5b50565b6116c281611371565b81146116cd57600080fd5b50565b6116d981611383565b81146116e457600080fd5b50565b6116f0816113af565b81146116fb57600080fd5b5056fea2646970667358221220dcfb146b5394d8131599855bcdf596dda18ec6f3fd8fa62f24aacd06076dc7a164736f6c63430008070033",
  "immutableReferences": {},
  "source": "// SPDX-License-Identifier: MIT\npragma solidity >=0.4.22 <0.9.0;\n\nimport \"@openzeppelin/contracts/security/ReentrancyGuard.sol\";\nimport \"./InsuranceProvider.sol\";\n\ncontract Pool is ReentrancyGuard {\n  InsuranceProvider private insuranceProvider;\n\n  uint public constant DAY_IN_SECONDS = 60; //Seconds in a day. 60 for testing, 86400 for Production\n  uint public constant LOCKIN_PERIOD = 7;\n\n  struct Details {\n    uint depositStart;\n    uint balance;\n  }\n\n  mapping (address => Details) capitalProviders;\n\n  modifier onlyAmountGreaterThanZero(uint256 _amount) {\n    require(_amount > 0, \"Amount must be greater than 0\");\n    _;\n  }\n\n  modifier availableForWithdrawal(address _client) {\n    Details memory providerDetails = capitalProviders[_client];\n    require(\n      providerDetails.depositStart + (DAY_IN_SECONDS * LOCKIN_PERIOD) >= block.timestamp, \n      \"Cannot withdraw during lock period\"\n    );\n    _;\n  }\n\n  modifier hasSufficientBalance(address _client, uint _amount) {\n    Details memory providerDetails = capitalProviders[_client];\n    require(providerDetails.balance >= _amount, \"Insufficient balance\");\n    _;\n  }\n\n  modifier onlyClientContract(address _client, address _contract) {\n    address[] memory clientContracts = insuranceProvider.getClientContracts(_client);\n    bool isClientContract = false;\n    for (uint i = 0; i < clientContracts.length; i++) {\n      if(clientContracts[i] == _contract) {\n        isClientContract = true;\n      }\n    }\n\n    require(isClientContract == true, \"Only client contracts can call this function\");\n    _;\n  }\n\n  modifier onlyActiveContract(address _contract) {\n    bool isActive = insuranceProvider.getContractStatus(_contract);\n    require(isActive == true, \"Inactive contract\");\n    _;\n  }\n\n  event Deposit(address indexed _client, uint _amount, uint _timeStart);\n  event Withdraw(address indexed _client, uint _amount, uint _time);\n  event Claim(address indexed _client, uint _payoutValue, uint _time);\n\n  constructor(address _insuranceProvider) {\n    insuranceProvider = InsuranceProvider(_insuranceProvider);\n  }\n\n  function deposit() \n    external \n    payable \n    nonReentrant \n    onlyAmountGreaterThanZero(msg.value) \n  {\n    Details memory providerDetails = capitalProviders[msg.sender];\n    uint _depositStart = block.timestamp;\n    uint _balance = providerDetails.balance + msg.value;\n\n    capitalProviders[msg.sender] = Details(_depositStart, _balance);\n    \n    emit Deposit(msg.sender, msg.value, _depositStart);\n  }\n\n  function withdraw(uint _amount) \n    external \n    nonReentrant \n    onlyAmountGreaterThanZero(_amount) \n    availableForWithdrawal(msg.sender)\n    hasSufficientBalance(msg.sender, _amount)\n  {\n    uint currentAvailableLiquidity = getReserveAvailableLiquidity();\n    require(\n      currentAvailableLiquidity >= _amount,\n      \"There is not enough liquidity available to redeem\"\n    );\n\n    Details memory providerDetails = capitalProviders[msg.sender];\n    uint _updatedBalance = providerDetails.balance - _amount;\n\n    if(_updatedBalance == 0) {\n      capitalProviders[msg.sender].depositStart = 0;\n      capitalProviders[msg.sender].balance = _updatedBalance;\n    } else {\n      capitalProviders[msg.sender].balance = _updatedBalance;\n    }\n\n    (bool success, ) = msg.sender.call{value: _amount}(\"\");\n    require(success, \"CKB transfer failed.\");\n\n    emit Withdraw(msg.sender, _amount, block.timestamp);\n  }\n\n  function claimContract(address payable _client, uint _payoutValue) \n    external \n    nonReentrant\n    onlyClientContract(_client, msg.sender) \n    onlyActiveContract(msg.sender) \n  {\n    (bool success, ) = _client.call{value: _payoutValue}(\"\");\n    require(success, \"CKB transfer failed.\");\n\n    emit Claim(_client, _payoutValue, block.timestamp);\n  }\n\n  function getReserveAvailableLiquidity() public view returns (uint) {\n    return address(this).balance;\n  }\n\n  /** \n  * @notice Explain to an end user what this does\n  * @dev Explain to a developer any extra details\n  * @param _client polyjuice address of client\n  * @return balance of deposited funds of client\n  **/\n  function balanceOf(address _client) external view returns (uint) {\n    Details memory providerDetails = capitalProviders[_client];\n\n    return providerDetails.balance;\n  }\n\n  /** \n  * @notice Explain to an end user what this does\n  * @dev Explain to a developer any extra details\n  * @param _client polyjuice address of client\n  * @return fund unlock date off client\n  **/\n  function getWithdrawalUnlockDate(address _client) public view returns (uint) {\n    Details memory providerDetails = capitalProviders[_client];\n\n    return providerDetails.depositStart + LOCKIN_PERIOD;\n  }\n}\n",
  "sourcePath": "C:\\Users\\Chaitanya\\Documents\\Projects\\nervos-insure\\contracts\\Pool.sol",
  "compiler": {
    "name": "solc",
    "version": "0.8.7+commit.e28d00a7.Emscripten.clang"
  },
  "schemaVersion": "3.4.3",
  "updatedAt": "2021-10-05T09:31:44.115Z",
  "networkType": "ethereum",
  "devdoc": {
    "kind": "dev",
    "methods": {
      "balanceOf(address)": {
        "details": "Explain to a developer any extra details",
        "params": {
          "_client": "polyjuice address of client"
        },
        "returns": {
          "_0": "balance of deposited funds of client*"
        }
      },
      "getWithdrawalUnlockDate(address)": {
        "details": "Explain to a developer any extra details",
        "params": {
          "_client": "polyjuice address of client"
        },
        "returns": {
          "_0": "fund unlock date off client*"
        }
      }
    },
    "version": 1
  },
  "userdoc": {
    "kind": "user",
    "methods": {
      "balanceOf(address)": {
        "notice": "Explain to an end user what this does"
      },
      "getWithdrawalUnlockDate(address)": {
        "notice": "Explain to an end user what this does"
      }
    },
    "version": 1
  }
}