{
  "contractName": "Pool",
  "abi": [
    {
      "inputs": [
        {
          "internalType": "address",
          "name": "_insuranceProvider",
          "type": "address"
        }
      ],
      "stateMutability": "nonpayable",
      "type": "constructor"
    },
    {
      "anonymous": false,
      "inputs": [
        {
          "indexed": true,
          "internalType": "address",
          "name": "_client",
          "type": "address"
        },
        {
          "indexed": false,
          "internalType": "uint256",
          "name": "_payoutValue",
          "type": "uint256"
        },
        {
          "indexed": false,
          "internalType": "uint256",
          "name": "_time",
          "type": "uint256"
        }
      ],
      "name": "Claim",
      "type": "event"
    },
    {
      "anonymous": false,
      "inputs": [
        {
          "indexed": true,
          "internalType": "address",
          "name": "_client",
          "type": "address"
        },
        {
          "indexed": false,
          "internalType": "uint256",
          "name": "_amount",
          "type": "uint256"
        },
        {
          "indexed": false,
          "internalType": "uint256",
          "name": "_timeStart",
          "type": "uint256"
        }
      ],
      "name": "Deposit",
      "type": "event"
    },
    {
      "anonymous": false,
      "inputs": [
        {
          "indexed": true,
          "internalType": "address",
          "name": "_client",
          "type": "address"
        },
        {
          "indexed": false,
          "internalType": "uint256",
          "name": "_amount",
          "type": "uint256"
        },
        {
          "indexed": false,
          "internalType": "uint256",
          "name": "_time",
          "type": "uint256"
        }
      ],
      "name": "Withdraw",
      "type": "event"
    },
    {
      "inputs": [],
      "name": "DAY_IN_SECONDS",
      "outputs": [
        {
          "internalType": "uint256",
          "name": "",
          "type": "uint256"
        }
      ],
      "stateMutability": "view",
      "type": "function",
      "constant": true
    },
    {
      "inputs": [],
      "name": "LOCKIN_PERIOD",
      "outputs": [
        {
          "internalType": "uint256",
          "name": "",
          "type": "uint256"
        }
      ],
      "stateMutability": "view",
      "type": "function",
      "constant": true
    },
    {
      "inputs": [],
      "name": "deposit",
      "outputs": [],
      "stateMutability": "payable",
      "type": "function",
      "payable": true
    },
    {
      "inputs": [
        {
          "internalType": "uint256",
          "name": "_amount",
          "type": "uint256"
        }
      ],
      "name": "withdraw",
      "outputs": [],
      "stateMutability": "nonpayable",
      "type": "function"
    },
    {
      "inputs": [
        {
          "internalType": "address payable",
          "name": "_client",
          "type": "address"
        },
        {
          "internalType": "uint256",
          "name": "_payoutValue",
          "type": "uint256"
        }
      ],
      "name": "claimContract",
      "outputs": [],
      "stateMutability": "nonpayable",
      "type": "function"
    },
    {
      "inputs": [],
      "name": "getReserveAvailableLiquidity",
      "outputs": [
        {
          "internalType": "uint256",
          "name": "",
          "type": "uint256"
        }
      ],
      "stateMutability": "view",
      "type": "function",
      "constant": true
    },
    {
      "inputs": [
        {
          "internalType": "address",
          "name": "_client",
          "type": "address"
        }
      ],
      "name": "balanceOf",
      "outputs": [
        {
          "internalType": "uint256",
          "name": "",
          "type": "uint256"
        }
      ],
      "stateMutability": "view",
      "type": "function",
      "constant": true
    },
    {
      "inputs": [
        {
          "internalType": "address",
          "name": "_client",
          "type": "address"
        }
      ],
      "name": "getWithdrawalUnlockDate",
      "outputs": [
        {
          "internalType": "uint256",
          "name": "",
          "type": "uint256"
        }
      ],
      "stateMutability": "view",
      "type": "function",
      "constant": true
    }
  ],
  "bytecode": "0x60806040523480156200001157600080fd5b506040516200182d3803806200182d83398181016040528101906200003791906200009e565b600160008190555080600160006101000a81548173ffffffffffffffffffffffffffffffffffffffff021916908373ffffffffffffffffffffffffffffffffffffffff1602179055505062000123565b600081519050620000988162000109565b92915050565b600060208284031215620000b757620000b662000104565b5b6000620000c78482850162000087565b91505092915050565b6000620000dd82620000e4565b9050919050565b600073ffffffffffffffffffffffffffffffffffffffff82169050919050565b600080fd5b6200011481620000d0565b81146200012057600080fd5b50565b6116fa80620001336000396000f3fe60806040526004361061007b5760003560e01c80635fdc62811161004e5780635fdc62811461013c57806370a0823114610167578063b48ae273146101a4578063d0e30db0146101cd5761007b565b80631be59c60146100805780632116838f146100ab5780632e1a7d4d146100e857806354f3037e14610111575b600080fd5b34801561008c57600080fd5b506100956101d7565b6040516100a29190611190565b60405180910390f35b3480156100b757600080fd5b506100d260048036038101906100cd9190610df7565b6101dc565b6040516100df9190611190565b60405180910390f35b3480156100f457600080fd5b5061010f600480360381019061010a9190610eda565b610266565b005b34801561011d57600080fd5b506101266106d6565b6040516101339190611190565b60405180910390f35b34801561014857600080fd5b506101516106de565b60405161015e9190611190565b60405180910390f35b34801561017357600080fd5b5061018e60048036038101906101899190610df7565b6106e5565b60405161019b9190611190565b60405180910390f35b3480156101b057600080fd5b506101cb60048036038101906101c69190610e24565b610755565b005b6101d5610b1a565b005b600281565b600080600260008473ffffffffffffffffffffffffffffffffffffffff1673ffffffffffffffffffffffffffffffffffffffff16815260200190815260200160002060405180604001604052908160008201548152602001600182015481525050905060026201518061024f9190611297565b816000015161025e9190611241565b915050919050565b600260005414156102ac576040517f08c379a00000000000000000000000000000000000000000000000000000000081526004016102a390611170565b60405180910390fd5b600260008190555080600081116102f8576040517f08c379a00000000000000000000000000000000000000000000000000000000081526004016102ef906110d0565b60405180910390fd5b336000600260008373ffffffffffffffffffffffffffffffffffffffff1673ffffffffffffffffffffffffffffffffffffffff1681526020019081526020016000206040518060400160405290816000820154815260200160018201548152505090504260026201518061036c9190611297565b826000015161037b9190611241565b10156103bc576040517f08c379a00000000000000000000000000000000000000000000000000000000081526004016103b390611090565b60405180910390fd5b33846000600260008473ffffffffffffffffffffffffffffffffffffffff1673ffffffffffffffffffffffffffffffffffffffff1681526020019081526020016000206040518060400160405290816000820154815260200160018201548152505090508181602001511015610467576040517f08c379a000000000000000000000000000000000000000000000000000000000815260040161045e906110f0565b60405180910390fd5b60006104716106d6565b9050878110156104b6576040517f08c379a00000000000000000000000000000000000000000000000000000000081526004016104ad906110b0565b60405180910390fd5b6000600260003373ffffffffffffffffffffffffffffffffffffffff1673ffffffffffffffffffffffffffffffffffffffff168152602001908152602001600020604051806040016040529081600082015481526020016001820154815250509050600089826020015161052a91906112f1565b9050600081141561057e576000600260003373ffffffffffffffffffffffffffffffffffffffff1673ffffffffffffffffffffffffffffffffffffffff168152602001908152602001600020600001819055505b80600260003373ffffffffffffffffffffffffffffffffffffffff1673ffffffffffffffffffffffffffffffffffffffff1681526020019081526020016000206001018190555060003373ffffffffffffffffffffffffffffffffffffffff168b6040516105eb90611060565b60006040518083038185875af1925050503d8060008114610628576040519150601f19603f3d011682016040523d82523d6000602084013e61062d565b606091505b5050905080610671576040517f08c379a000000000000000000000000000000000000000000000000000000000815260040161066890611130565b60405180910390fd5b3373ffffffffffffffffffffffffffffffffffffffff167ff279e6a1f5e320cca91135676d9cb6e44ca8a08c0b88342bcdb1144f6511b5688c426040516106b99291906111ab565b60405180910390a250505050505050505050600160008190555050565b600047905090565b6201518081565b600080600260008473ffffffffffffffffffffffffffffffffffffffff1673ffffffffffffffffffffffffffffffffffffffff1681526020019081526020016000206040518060400160405290816000820154815260200160018201548152505090508060200151915050919050565b6002600054141561079b576040517f08c379a000000000000000000000000000000000000000000000000000000000815260040161079290611170565b60405180910390fd5b600260008190555081336000600160009054906101000a900473ffffffffffffffffffffffffffffffffffffffff1673ffffffffffffffffffffffffffffffffffffffff1663f134a75a846040518263ffffffff1660e01b81526004016108029190611075565b60006040518083038186803b15801561081a57600080fd5b505afa15801561082e573d6000803e3d6000fd5b505050506040513d6000823e3d601f19601f820116820180604052508101906108579190610e64565b90506000805b82518110156108cc578373ffffffffffffffffffffffffffffffffffffffff168382815181106108905761088f611428565b5b602002602001015173ffffffffffffffffffffffffffffffffffffffff1614156108b957600191505b80806108c4906113b0565b91505061085d565b506001151581151514610914576040517f08c379a000000000000000000000000000000000000000000000000000000000815260040161090b90611150565b60405180910390fd5b336000600160009054906101000a900473ffffffffffffffffffffffffffffffffffffffff1673ffffffffffffffffffffffffffffffffffffffff1663125716d6836040518263ffffffff1660e01b81526004016109729190611075565b60206040518083038186803b15801561098a57600080fd5b505afa15801561099e573d6000803e3d6000fd5b505050506040513d601f19601f820116820180604052508101906109c29190610ead565b90506001151581151514610a0b576040517f08c379a0000000000000000000000000000000000000000000000000000000008152600401610a0290611110565b60405180910390fd5b60008873ffffffffffffffffffffffffffffffffffffffff1688604051610a3190611060565b60006040518083038185875af1925050503d8060008114610a6e576040519150601f19603f3d011682016040523d82523d6000602084013e610a73565b606091505b5050905080610ab7576040517f08c379a0000000000000000000000000000000000000000000000000000000008152600401610aae90611130565b60405180910390fd5b8873ffffffffffffffffffffffffffffffffffffffff167f34fcbac0073d7c3d388e51312faf357774904998eeb8fca628b9e6f65ee1cbf78942604051610aff9291906111ab565b60405180910390a25050505050505060016000819055505050565b60026000541415610b60576040517f08c379a0000000000000000000000000000000000000000000000000000000008152600401610b5790611170565b60405180910390fd5b60026000819055503460008111610bac576040517f08c379a0000000000000000000000000000000000000000000000000000000008152600401610ba3906110d0565b60405180910390fd5b6000600260003373ffffffffffffffffffffffffffffffffffffffff1673ffffffffffffffffffffffffffffffffffffffff16815260200190815260200160002060405180604001604052908160008201548152602001600182015481525050905060004290506000348360200151610c259190611241565b9050604051806040016040528083815260200182815250600260003373ffffffffffffffffffffffffffffffffffffffff1673ffffffffffffffffffffffffffffffffffffffff16815260200190815260200160002060008201518160000155602082015181600101559050503373ffffffffffffffffffffffffffffffffffffffff167f90890809c654f11d6e72a28fa60149770a0d11ec6c92319d6ceb2bb0a4ea1a153484604051610cda9291906111ab565b60405180910390a2505050506001600081905550565b6000610d03610cfe846111f9565b6111d4565b90508083825260208201905082856020860282011115610d2657610d2561148b565b5b60005b85811015610d565781610d3c8882610d75565b845260208401935060208301925050600181019050610d29565b5050509392505050565b600081359050610d6f81611668565b92915050565b600081519050610d8481611668565b92915050565b600081359050610d998161167f565b92915050565b600082601f830112610db457610db3611486565b5b8151610dc4848260208601610cf0565b91505092915050565b600081519050610ddc81611696565b92915050565b600081359050610df1816116ad565b92915050565b600060208284031215610e0d57610e0c611495565b5b6000610e1b84828501610d60565b91505092915050565b60008060408385031215610e3b57610e3a611495565b5b6000610e4985828601610d8a565b9250506020610e5a85828601610de2565b9150509250929050565b600060208284031215610e7a57610e79611495565b5b600082015167ffffffffffffffff811115610e9857610e97611490565b5b610ea484828501610d9f565b91505092915050565b600060208284031215610ec357610ec2611495565b5b6000610ed184828501610dcd565b91505092915050565b600060208284031215610ef057610eef611495565b5b6000610efe84828501610de2565b91505092915050565b610f1081611325565b82525050565b6000610f23602283611230565b9150610f2e826114ab565b604082019050919050565b6000610f46603183611230565b9150610f51826114fa565b604082019050919050565b6000610f69601d83611230565b9150610f7482611549565b602082019050919050565b6000610f8c601483611230565b9150610f9782611572565b602082019050919050565b6000610faf601183611230565b9150610fba8261159b565b602082019050919050565b6000610fd2600083611225565b9150610fdd826115c4565b600082019050919050565b6000610ff5601483611230565b9150611000826115c7565b602082019050919050565b6000611018602c83611230565b9150611023826115f0565b604082019050919050565b600061103b601f83611230565b91506110468261163f565b602082019050919050565b61105a81611375565b82525050565b600061106b82610fc5565b9150819050919050565b600060208201905061108a6000830184610f07565b92915050565b600060208201905081810360008301526110a981610f16565b9050919050565b600060208201905081810360008301526110c981610f39565b9050919050565b600060208201905081810360008301526110e981610f5c565b9050919050565b6000602082019050818103600083015261110981610f7f565b9050919050565b6000602082019050818103600083015261112981610fa2565b9050919050565b6000602082019050818103600083015261114981610fe8565b9050919050565b600060208201905081810360008301526111698161100b565b9050919050565b600060208201905081810360008301526111898161102e565b9050919050565b60006020820190506111a56000830184611051565b92915050565b60006040820190506111c06000830185611051565b6111cd6020830184611051565b9392505050565b60006111de6111ef565b90506111ea828261137f565b919050565b6000604051905090565b600067ffffffffffffffff82111561121457611213611457565b5b602082029050602081019050919050565b600081905092915050565b600082825260208201905092915050565b600061124c82611375565b915061125783611375565b9250827fffffffffffffffffffffffffffffffffffffffffffffffffffffffffffffffff0382111561128c5761128b6113f9565b5b828201905092915050565b60006112a282611375565b91506112ad83611375565b9250817fffffffffffffffffffffffffffffffffffffffffffffffffffffffffffffffff04831182151516156112e6576112e56113f9565b5b828202905092915050565b60006112fc82611375565b915061130783611375565b92508282101561131a576113196113f9565b5b828203905092915050565b600061133082611355565b9050919050565b600061134282611355565b9050919050565b60008115159050919050565b600073ffffffffffffffffffffffffffffffffffffffff82169050919050565b6000819050919050565b6113888261149a565b810181811067ffffffffffffffff821117156113a7576113a6611457565b5b80604052505050565b60006113bb82611375565b91507fffffffffffffffffffffffffffffffffffffffffffffffffffffffffffffffff8214156113ee576113ed6113f9565b5b600182019050919050565b7f4e487b7100000000000000000000000000000000000000000000000000000000600052601160045260246000fd5b7f4e487b7100000000000000000000000000000000000000000000000000000000600052603260045260246000fd5b7f4e487b7100000000000000000000000000000000000000000000000000000000600052604160045260246000fd5b600080fd5b600080fd5b600080fd5b600080fd5b6000601f19601f8301169050919050565b7f43616e6e6f7420776974686472617720647572696e67206c6f636b207065726960008201527f6f64000000000000000000000000000000000000000000000000000000000000602082015250565b7f5468657265206973206e6f7420656e6f756768206c697175696469747920617660008201527f61696c61626c6520746f2072656465656d000000000000000000000000000000602082015250565b7f416d6f756e74206d7573742062652067726561746572207468616e2030000000600082015250565b7f496e73756666696369656e742062616c616e6365000000000000000000000000600082015250565b7f496e61637469766520636f6e7472616374000000000000000000000000000000600082015250565b50565b7f434b42207472616e73666572206661696c65642e000000000000000000000000600082015250565b7f4f6e6c7920636c69656e7420636f6e7472616374732063616e2063616c6c207460008201527f6869732066756e6374696f6e0000000000000000000000000000000000000000602082015250565b7f5265656e7472616e637947756172643a207265656e7472616e742063616c6c00600082015250565b61167181611325565b811461167c57600080fd5b50565b61168881611337565b811461169357600080fd5b50565b61169f81611349565b81146116aa57600080fd5b50565b6116b681611375565b81146116c157600080fd5b5056fea26469706673582212204cf0ed473169d3433fd5267ac3a9c916393ac4767ab804dac6f45a46ab1f0e6364736f6c63430008070033",
  "immutableReferences": {},
  "source": "// SPDX-License-Identifier: MIT\npragma solidity >=0.4.22 <0.9.0;\n\nimport \"@openzeppelin/contracts/security/ReentrancyGuard.sol\";\nimport \"./InsuranceProvider.sol\";\n\ncontract Pool is ReentrancyGuard {\n  InsuranceProvider private insuranceProvider;\n\n  uint public constant DAY_IN_SECONDS = 86400; //Seconds in a day. 60 for testing, 86400 for Production\n  uint public constant LOCKIN_PERIOD = 2;  // Cooldown period for withdrawals\n\n  struct Details {\n    uint depositStart;\n    uint balance;\n  }\n\n  mapping (address => Details) capitalProviders;\n\n  modifier onlyAmountGreaterThanZero(uint256 _amount) {\n    require(_amount > 0, \"Amount must be greater than 0\");\n    _;\n  }\n\n  modifier availableForWithdrawal(address _client) {\n    Details memory providerDetails = capitalProviders[_client];\n    require(\n      providerDetails.depositStart + (DAY_IN_SECONDS * LOCKIN_PERIOD) >= block.timestamp, \n      \"Cannot withdraw during lock period\"\n    );\n    _;\n  }\n\n  modifier hasSufficientBalance(address _client, uint _amount) {\n    Details memory providerDetails = capitalProviders[_client];\n    require(providerDetails.balance >= _amount, \"Insufficient balance\");\n    _;\n  }\n\n  modifier onlyClientContract(address _client, address _contract) {\n    address[] memory clientContracts = insuranceProvider.getClientContracts(_client);\n    bool isClientContract = false;\n    for (uint i = 0; i < clientContracts.length; i++) {\n      if(clientContracts[i] == _contract) {\n        isClientContract = true;\n      }\n    }\n\n    require(isClientContract == true, \"Only client contracts can call this function\");\n    _;\n  }\n\n  modifier onlyActiveContract(address _contract) {\n    bool isActive = insuranceProvider.getContractStatus(_contract);\n    require(isActive == true, \"Inactive contract\");\n    _;\n  }\n\n  event Deposit(address indexed _client, uint _amount, uint _timeStart);\n  event Withdraw(address indexed _client, uint _amount, uint _time);\n  event Claim(address indexed _client, uint _payoutValue, uint _time);\n\n  constructor(address _insuranceProvider) {\n    insuranceProvider = InsuranceProvider(_insuranceProvider);\n  }\n\n  function deposit() \n    external \n    payable \n    nonReentrant \n    onlyAmountGreaterThanZero(msg.value) \n  {\n    Details memory providerDetails = capitalProviders[msg.sender];\n    uint _depositStart = block.timestamp;\n    uint _balance = providerDetails.balance + msg.value;\n\n    capitalProviders[msg.sender] = Details(_depositStart, _balance);\n    \n    emit Deposit(msg.sender, msg.value, _depositStart);\n  }\n\n  function withdraw(uint _amount) \n    external \n    nonReentrant \n    onlyAmountGreaterThanZero(_amount) \n    availableForWithdrawal(msg.sender)\n    hasSufficientBalance(msg.sender, _amount)\n  {\n    uint currentAvailableLiquidity = getReserveAvailableLiquidity();\n    require(\n      currentAvailableLiquidity >= _amount,\n      \"There is not enough liquidity available to redeem\"\n    );\n\n    Details memory providerDetails = capitalProviders[msg.sender];\n    uint _updatedBalance = providerDetails.balance - _amount;\n\n    if(_updatedBalance == 0) {\n      capitalProviders[msg.sender].depositStart = 0;\n    }\n    capitalProviders[msg.sender].balance = _updatedBalance;\n\n    (bool success, ) = msg.sender.call{value: _amount}(\"\");\n    require(success, \"CKB transfer failed.\");\n\n    emit Withdraw(msg.sender, _amount, block.timestamp);\n  }\n\n  function claimContract(address payable _client, uint _payoutValue) \n    external \n    nonReentrant\n    onlyClientContract(_client, msg.sender) \n    onlyActiveContract(msg.sender) \n  {\n    (bool success, ) = _client.call{value: _payoutValue}(\"\");\n    require(success, \"CKB transfer failed.\");\n\n    emit Claim(_client, _payoutValue, block.timestamp);\n  }\n\n  function getReserveAvailableLiquidity() public view returns (uint) {\n    return address(this).balance;\n  }\n\n  /** \n  * @notice Explain to an end user what this does\n  * @dev Explain to a developer any extra details\n  * @param _client polyjuice address of client\n  * @return balance of deposited funds of client\n  **/\n  function balanceOf(address _client) external view returns (uint) {\n    Details memory providerDetails = capitalProviders[_client];\n\n    return providerDetails.balance;\n  }\n\n  /** \n  * @notice Explain to an end user what this does\n  * @dev Explain to a developer any extra details\n  * @param _client polyjuice address of client\n  * @return fund unlock date off client\n  **/\n  function getWithdrawalUnlockDate(address _client) public view returns (uint) {\n    Details memory providerDetails = capitalProviders[_client];\n\n    return providerDetails.depositStart + DAY_IN_SECONDS * LOCKIN_PERIOD;\n  }\n}\n",
  "sourcePath": "C:\\Users\\Chaitanya\\Documents\\Projects\\nervos-insure\\contracts\\Pool.sol",
  "compiler": {
    "name": "solc",
    "version": "0.8.7+commit.e28d00a7.Emscripten.clang"
  },
  "schemaVersion": "3.4.3",
  "updatedAt": "2021-10-06T15:45:15.674Z",
  "networkType": "ethereum",
  "devdoc": {
    "kind": "dev",
    "methods": {
      "balanceOf(address)": {
        "details": "Explain to a developer any extra details",
        "params": {
          "_client": "polyjuice address of client"
        },
        "returns": {
          "_0": "balance of deposited funds of client*"
        }
      },
      "getWithdrawalUnlockDate(address)": {
        "details": "Explain to a developer any extra details",
        "params": {
          "_client": "polyjuice address of client"
        },
        "returns": {
          "_0": "fund unlock date off client*"
        }
      }
    },
    "version": 1
  },
  "userdoc": {
    "kind": "user",
    "methods": {
      "balanceOf(address)": {
        "notice": "Explain to an end user what this does"
      },
      "getWithdrawalUnlockDate(address)": {
        "notice": "Explain to an end user what this does"
      }
    },
    "version": 1
  }
}